{"abi":[{"type":"constructor","inputs":[{"name":"_approvalRegistry","type":"address","internalType":"address"},{"name":"_lockState","type":"uint8","internalType":"enum LockState"},{"name":"_coreProtocolFee","type":"uint256","internalType":"uint256"},{"name":"_feeExemptions","type":"address","internalType":"address"}],"stateMutability":"nonpayable"},{"type":"function","name":"CORE_PROTOCOL_FEE","inputs":[],"outputs":[{"name":"","type":"uint256","internalType":"uint256"}],"stateMutability":"view"},{"type":"function","name":"addToPaidCallbackWhitelist","inputs":[{"name":"callbackContract","type":"address","internalType":"address"},{"name":"selector","type":"bytes4","internalType":"bytes4"}],"outputs":[],"stateMutability":"nonpayable"},{"type":"function","name":"approvalRegistry","inputs":[],"outputs":[{"name":"","type":"address","internalType":"contract IBullaApprovalRegistry"}],"stateMutability":"view"},{"type":"function","name":"approve","inputs":[{"name":"to","type":"address","internalType":"address"},{"name":"claimId","type":"uint256","internalType":"uint256"}],"outputs":[],"stateMutability":"nonpayable"},{"type":"function","name":"approveFrom","inputs":[{"name":"from","type":"address","internalType":"address"},{"name":"to","type":"address","internalType":"address"},{"name":"claimId","type":"uint256","internalType":"uint256"}],"outputs":[],"stateMutability":"nonpayable"},{"type":"function","name":"balanceOf","inputs":[{"name":"owner","type":"address","internalType":"address"}],"outputs":[{"name":"","type":"uint256","internalType":"uint256"}],"stateMutability":"view"},{"type":"function","name":"cancelClaim","inputs":[{"name":"claimId","type":"uint256","internalType":"uint256"},{"name":"note","type":"string","internalType":"string"}],"outputs":[],"stateMutability":"nonpayable"},{"type":"function","name":"cancelClaimFrom","inputs":[{"name":"from","type":"address","internalType":"address"},{"name":"claimId","type":"uint256","internalType":"uint256"},{"name":"note","type":"string","internalType":"string"}],"outputs":[],"stateMutability":"nonpayable"},{"type":"function","name":"claimMetadata","inputs":[{"name":"","type":"uint256","internalType":"uint256"}],"outputs":[{"name":"tokenURI","type":"string","internalType":"string"},{"name":"attachmentURI","type":"string","internalType":"string"}],"stateMutability":"view"},{"type":"function","name":"claimMetadataGenerator","inputs":[],"outputs":[{"name":"","type":"address","internalType":"contract IClaimMetadataGenerator"}],"stateMutability":"view"},{"type":"function","name":"createClaim","inputs":[{"name":"params","type":"tuple","internalType":"struct CreateClaimParams","components":[{"name":"creditor","type":"address","internalType":"address"},{"name":"debtor","type":"address","internalType":"address"},{"name":"claimAmount","type":"uint256","internalType":"uint256"},{"name":"description","type":"string","internalType":"string"},{"name":"token","type":"address","internalType":"address"},{"name":"binding","type":"uint8","internalType":"enum ClaimBinding"},{"name":"dueBy","type":"uint256","internalType":"uint256"},{"name":"impairmentGracePeriod","type":"uint256","internalType":"uint256"}]}],"outputs":[{"name":"","type":"uint256","internalType":"uint256"}],"stateMutability":"payable"},{"type":"function","name":"createClaimFrom","inputs":[{"name":"from","type":"address","internalType":"address"},{"name":"params","type":"tuple","internalType":"struct CreateClaimParams","components":[{"name":"creditor","type":"address","internalType":"address"},{"name":"debtor","type":"address","internalType":"address"},{"name":"claimAmount","type":"uint256","internalType":"uint256"},{"name":"description","type":"string","internalType":"string"},{"name":"token","type":"address","internalType":"address"},{"name":"binding","type":"uint8","internalType":"enum ClaimBinding"},{"name":"dueBy","type":"uint256","internalType":"uint256"},{"name":"impairmentGracePeriod","type":"uint256","internalType":"uint256"}]}],"outputs":[{"name":"","type":"uint256","internalType":"uint256"}],"stateMutability":"payable"},{"type":"function","name":"createClaimWithMetadata","inputs":[{"name":"params","type":"tuple","internalType":"struct CreateClaimParams","components":[{"name":"creditor","type":"address","internalType":"address"},{"name":"debtor","type":"address","internalType":"address"},{"name":"claimAmount","type":"uint256","internalType":"uint256"},{"name":"description","type":"string","internalType":"string"},{"name":"token","type":"address","internalType":"address"},{"name":"binding","type":"uint8","internalType":"enum ClaimBinding"},{"name":"dueBy","type":"uint256","internalType":"uint256"},{"name":"impairmentGracePeriod","type":"uint256","internalType":"uint256"}]},{"name":"metadata","type":"tuple","internalType":"struct ClaimMetadata","components":[{"name":"tokenURI","type":"string","internalType":"string"},{"name":"attachmentURI","type":"string","internalType":"string"}]}],"outputs":[{"name":"","type":"uint256","internalType":"uint256"}],"stateMutability":"payable"},{"type":"function","name":"createClaimWithMetadataFrom","inputs":[{"name":"from","type":"address","internalType":"address"},{"name":"params","type":"tuple","internalType":"struct CreateClaimParams","components":[{"name":"creditor","type":"address","internalType":"address"},{"name":"debtor","type":"address","internalType":"address"},{"name":"claimAmount","type":"uint256","internalType":"uint256"},{"name":"description","type":"string","internalType":"string"},{"name":"token","type":"address","internalType":"address"},{"name":"binding","type":"uint8","internalType":"enum ClaimBinding"},{"name":"dueBy","type":"uint256","internalType":"uint256"},{"name":"impairmentGracePeriod","type":"uint256","internalType":"uint256"}]},{"name":"metadata","type":"tuple","internalType":"struct ClaimMetadata","components":[{"name":"tokenURI","type":"string","internalType":"string"},{"name":"attachmentURI","type":"string","internalType":"string"}]}],"outputs":[{"name":"","type":"uint256","internalType":"uint256"}],"stateMutability":"payable"},{"type":"function","name":"currentClaimId","inputs":[],"outputs":[{"name":"","type":"uint256","internalType":"uint256"}],"stateMutability":"view"},{"type":"function","name":"feeExemptions","inputs":[],"outputs":[{"name":"","type":"address","internalType":"contract IPermissions"}],"stateMutability":"view"},{"type":"function","name":"getApproved","inputs":[{"name":"tokenId","type":"uint256","internalType":"uint256"}],"outputs":[{"name":"","type":"address","internalType":"address"}],"stateMutability":"view"},{"type":"function","name":"getClaim","inputs":[{"name":"claimId","type":"uint256","internalType":"uint256"}],"outputs":[{"name":"claim","type":"tuple","internalType":"struct Claim","components":[{"name":"claimAmount","type":"uint256","internalType":"uint256"},{"name":"paidAmount","type":"uint256","internalType":"uint256"},{"name":"dueBy","type":"uint256","internalType":"uint256"},{"name":"impairmentGracePeriod","type":"uint256","internalType":"uint256"},{"name":"originalCreditor","type":"address","internalType":"address"},{"name":"debtor","type":"address","internalType":"address"},{"name":"creditor","type":"address","internalType":"address"},{"name":"token","type":"address","internalType":"address"},{"name":"controller","type":"address","internalType":"address"},{"name":"status","type":"uint8","internalType":"enum Status"},{"name":"binding","type":"uint8","internalType":"enum ClaimBinding"}]}],"stateMutability":"view"},{"type":"function","name":"getPaidClaimCallback","inputs":[{"name":"claimId","type":"uint256","internalType":"uint256"}],"outputs":[{"name":"","type":"tuple","internalType":"struct PaidClaimCallback","components":[{"name":"callbackContract","type":"address","internalType":"address"},{"name":"callbackSelector","type":"bytes4","internalType":"bytes4"}]}],"stateMutability":"view"},{"type":"function","name":"impairClaim","inputs":[{"name":"claimId","type":"uint256","internalType":"uint256"}],"outputs":[],"stateMutability":"nonpayable"},{"type":"function","name":"impairClaimFrom","inputs":[{"name":"from","type":"address","internalType":"address"},{"name":"claimId","type":"uint256","internalType":"uint256"}],"outputs":[],"stateMutability":"nonpayable"},{"type":"function","name":"isApprovedForAll","inputs":[{"name":"owner","type":"address","internalType":"address"},{"name":"operator","type":"address","internalType":"address"}],"outputs":[{"name":"","type":"bool","internalType":"bool"}],"stateMutability":"view"},{"type":"function","name":"isPaidCallbackWhitelisted","inputs":[{"name":"callbackContract","type":"address","internalType":"address"},{"name":"selector","type":"bytes4","internalType":"bytes4"}],"outputs":[{"name":"","type":"bool","internalType":"bool"}],"stateMutability":"view"},{"type":"function","name":"lockState","inputs":[],"outputs":[{"name":"","type":"uint8","internalType":"enum LockState"}],"stateMutability":"view"},{"type":"function","name":"markClaimAsPaid","inputs":[{"name":"claimId","type":"uint256","internalType":"uint256"}],"outputs":[],"stateMutability":"nonpayable"},{"type":"function","name":"markClaimAsPaidFrom","inputs":[{"name":"from","type":"address","internalType":"address"},{"name":"claimId","type":"uint256","internalType":"uint256"}],"outputs":[],"stateMutability":"nonpayable"},{"type":"function","name":"name","inputs":[],"outputs":[{"name":"","type":"string","internalType":"string"}],"stateMutability":"view"},{"type":"function","name":"owner","inputs":[],"outputs":[{"name":"","type":"address","internalType":"address"}],"stateMutability":"view"},{"type":"function","name":"ownerOf","inputs":[{"name":"claimId","type":"uint256","internalType":"uint256"}],"outputs":[{"name":"","type":"address","internalType":"address"}],"stateMutability":"view"},{"type":"function","name":"paidCallbackWhitelist","inputs":[{"name":"","type":"address","internalType":"address"},{"name":"","type":"bytes4","internalType":"bytes4"}],"outputs":[{"name":"","type":"bool","internalType":"bool"}],"stateMutability":"view"},{"type":"function","name":"payClaim","inputs":[{"name":"claimId","type":"uint256","internalType":"uint256"},{"name":"amount","type":"uint256","internalType":"uint256"}],"outputs":[],"stateMutability":"payable"},{"type":"function","name":"payClaimFrom","inputs":[{"name":"from","type":"address","internalType":"address"},{"name":"claimId","type":"uint256","internalType":"uint256"},{"name":"amount","type":"uint256","internalType":"uint256"}],"outputs":[],"stateMutability":"payable"},{"type":"function","name":"payClaimFromControllerWithoutTransfer","inputs":[{"name":"from","type":"address","internalType":"address"},{"name":"claimId","type":"uint256","internalType":"uint256"},{"name":"amount","type":"uint256","internalType":"uint256"}],"outputs":[{"name":"claimPaid","type":"bool","internalType":"bool"}],"stateMutability":"nonpayable"},{"type":"function","name":"removeFromPaidCallbackWhitelist","inputs":[{"name":"callbackContract","type":"address","internalType":"address"},{"name":"selector","type":"bytes4","internalType":"bytes4"}],"outputs":[],"stateMutability":"nonpayable"},{"type":"function","name":"renounceOwnership","inputs":[],"outputs":[],"stateMutability":"nonpayable"},{"type":"function","name":"safeTransferFrom","inputs":[{"name":"from","type":"address","internalType":"address"},{"name":"to","type":"address","internalType":"address"},{"name":"tokenId","type":"uint256","internalType":"uint256"}],"outputs":[],"stateMutability":"nonpayable"},{"type":"function","name":"safeTransferFrom","inputs":[{"name":"from","type":"address","internalType":"address"},{"name":"to","type":"address","internalType":"address"},{"name":"claimId","type":"uint256","internalType":"uint256"},{"name":"data","type":"bytes","internalType":"bytes"}],"outputs":[],"stateMutability":"nonpayable"},{"type":"function","name":"safeTransferFromFrom","inputs":[{"name":"fromAkaOriginalMsgSender","type":"address","internalType":"address"},{"name":"fromAkaNftOwner","type":"address","internalType":"address"},{"name":"to","type":"address","internalType":"address"},{"name":"claimId","type":"uint256","internalType":"uint256"},{"name":"data","type":"bytes","internalType":"bytes"}],"outputs":[],"stateMutability":"nonpayable"},{"type":"function","name":"setApprovalForAll","inputs":[{"name":"","type":"address","internalType":"address"},{"name":"","type":"bool","internalType":"bool"}],"outputs":[],"stateMutability":"pure"},{"type":"function","name":"setClaimMetadataGenerator","inputs":[{"name":"_metadataGenerator","type":"address","internalType":"address"}],"outputs":[],"stateMutability":"nonpayable"},{"type":"function","name":"setCoreProtocolFee","inputs":[{"name":"_coreProtocolFee","type":"uint256","internalType":"uint256"}],"outputs":[],"stateMutability":"nonpayable"},{"type":"function","name":"setFeeExemptions","inputs":[{"name":"_feeExemptions","type":"address","internalType":"address"}],"outputs":[],"stateMutability":"nonpayable"},{"type":"function","name":"setLockState","inputs":[{"name":"_lockState","type":"uint8","internalType":"enum LockState"}],"outputs":[],"stateMutability":"nonpayable"},{"type":"function","name":"setPaidClaimCallback","inputs":[{"name":"claimId","type":"uint256","internalType":"uint256"},{"name":"callbackContract","type":"address","internalType":"address"},{"name":"callbackSelector","type":"bytes4","internalType":"bytes4"}],"outputs":[],"stateMutability":"nonpayable"},{"type":"function","name":"setPaidClaimCallbackFrom","inputs":[{"name":"from","type":"address","internalType":"address"},{"name":"claimId","type":"uint256","internalType":"uint256"},{"name":"callbackContract","type":"address","internalType":"address"},{"name":"callbackSelector","type":"bytes4","internalType":"bytes4"}],"outputs":[],"stateMutability":"nonpayable"},{"type":"function","name":"supportsInterface","inputs":[{"name":"interfaceId","type":"bytes4","internalType":"bytes4"}],"outputs":[{"name":"","type":"bool","internalType":"bool"}],"stateMutability":"view"},{"type":"function","name":"symbol","inputs":[],"outputs":[{"name":"","type":"string","internalType":"string"}],"stateMutability":"view"},{"type":"function","name":"tokenURI","inputs":[{"name":"claimId","type":"uint256","internalType":"uint256"}],"outputs":[{"name":"","type":"string","internalType":"string"}],"stateMutability":"view"},{"type":"function","name":"transferFrom","inputs":[{"name":"from","type":"address","internalType":"address"},{"name":"to","type":"address","internalType":"address"},{"name":"claimId","type":"uint256","internalType":"uint256"}],"outputs":[],"stateMutability":"nonpayable"},{"type":"function","name":"transferFromFrom","inputs":[{"name":"fromAkaOriginalMsgSender","type":"address","internalType":"address"},{"name":"fromAkaNftOwner","type":"address","internalType":"address"},{"name":"to","type":"address","internalType":"address"},{"name":"claimId","type":"uint256","internalType":"uint256"}],"outputs":[],"stateMutability":"nonpayable"},{"type":"function","name":"transferOwnership","inputs":[{"name":"newOwner","type":"address","internalType":"address"}],"outputs":[],"stateMutability":"nonpayable"},{"type":"function","name":"updateBinding","inputs":[{"name":"claimId","type":"uint256","internalType":"uint256"},{"name":"binding","type":"uint8","internalType":"enum ClaimBinding"}],"outputs":[],"stateMutability":"nonpayable"},{"type":"function","name":"updateBindingFrom","inputs":[{"name":"from","type":"address","internalType":"address"},{"name":"claimId","type":"uint256","internalType":"uint256"},{"name":"binding","type":"uint8","internalType":"enum ClaimBinding"}],"outputs":[],"stateMutability":"nonpayable"},{"type":"function","name":"withdrawAllFees","inputs":[],"outputs":[],"stateMutability":"nonpayable"},{"type":"event","name":"Approval","inputs":[{"name":"owner","type":"address","indexed":true,"internalType":"address"},{"name":"approved","type":"address","indexed":true,"internalType":"address"},{"name":"tokenId","type":"uint256","indexed":true,"internalType":"uint256"}],"anonymous":false},{"type":"event","name":"ApprovalForAll","inputs":[{"name":"owner","type":"address","indexed":true,"internalType":"address"},{"name":"operator","type":"address","indexed":true,"internalType":"address"},{"name":"approved","type":"bool","indexed":false,"internalType":"bool"}],"anonymous":false},{"type":"event","name":"BindingUpdated","inputs":[{"name":"claimId","type":"uint256","indexed":true,"internalType":"uint256"},{"name":"from","type":"address","indexed":true,"internalType":"address"},{"name":"binding","type":"uint8","indexed":true,"internalType":"enum ClaimBinding"}],"anonymous":false},{"type":"event","name":"CallbackRemovedFromWhitelist","inputs":[{"name":"callbackContract","type":"address","indexed":true,"internalType":"address"},{"name":"selector","type":"bytes4","indexed":true,"internalType":"bytes4"}],"anonymous":false},{"type":"event","name":"CallbackWhitelisted","inputs":[{"name":"callbackContract","type":"address","indexed":true,"internalType":"address"},{"name":"selector","type":"bytes4","indexed":true,"internalType":"bytes4"}],"anonymous":false},{"type":"event","name":"ClaimCreated","inputs":[{"name":"claimId","type":"uint256","indexed":true,"internalType":"uint256"},{"name":"from","type":"address","indexed":false,"internalType":"address"},{"name":"creditor","type":"address","indexed":true,"internalType":"address"},{"name":"debtor","type":"address","indexed":true,"internalType":"address"},{"name":"claimAmount","type":"uint256","indexed":false,"internalType":"uint256"},{"name":"dueBy","type":"uint256","indexed":false,"internalType":"uint256"},{"name":"description","type":"string","indexed":false,"internalType":"string"},{"name":"token","type":"address","indexed":false,"internalType":"address"},{"name":"controller","type":"address","indexed":false,"internalType":"address"},{"name":"binding","type":"uint8","indexed":false,"internalType":"enum ClaimBinding"}],"anonymous":false},{"type":"event","name":"ClaimImpaired","inputs":[{"name":"claimId","type":"uint256","indexed":true,"internalType":"uint256"}],"anonymous":false},{"type":"event","name":"ClaimMarkedAsPaid","inputs":[{"name":"claimId","type":"uint256","indexed":true,"internalType":"uint256"}],"anonymous":false},{"type":"event","name":"ClaimPayment","inputs":[{"name":"claimId","type":"uint256","indexed":true,"internalType":"uint256"},{"name":"paidBy","type":"address","indexed":true,"internalType":"address"},{"name":"paymentAmount","type":"uint256","indexed":false,"internalType":"uint256"},{"name":"totalPaidAmount","type":"uint256","indexed":false,"internalType":"uint256"}],"anonymous":false},{"type":"event","name":"ClaimRejected","inputs":[{"name":"claimId","type":"uint256","indexed":true,"internalType":"uint256"},{"name":"from","type":"address","indexed":true,"internalType":"address"},{"name":"note","type":"string","indexed":false,"internalType":"string"}],"anonymous":false},{"type":"event","name":"ClaimRescinded","inputs":[{"name":"claimId","type":"uint256","indexed":true,"internalType":"uint256"},{"name":"from","type":"address","indexed":true,"internalType":"address"},{"name":"note","type":"string","indexed":false,"internalType":"string"}],"anonymous":false},{"type":"event","name":"FeeWithdrawn","inputs":[{"name":"owner","type":"address","indexed":true,"internalType":"address"},{"name":"amount","type":"uint256","indexed":false,"internalType":"uint256"}],"anonymous":false},{"type":"event","name":"MetadataAdded","inputs":[{"name":"claimId","type":"uint256","indexed":true,"internalType":"uint256"},{"name":"tokenURI","type":"string","indexed":false,"internalType":"string"},{"name":"attachmentURI","type":"string","indexed":false,"internalType":"string"}],"anonymous":false},{"type":"event","name":"OwnershipTransferred","inputs":[{"name":"previousOwner","type":"address","indexed":true,"internalType":"address"},{"name":"newOwner","type":"address","indexed":true,"internalType":"address"}],"anonymous":false},{"type":"event","name":"PaidClaimCallbackSet","inputs":[{"name":"claimId","type":"uint256","indexed":true,"internalType":"uint256"},{"name":"callbackContract","type":"address","indexed":true,"internalType":"address"},{"name":"selector","type":"bytes4","indexed":false,"internalType":"bytes4"}],"anonymous":false},{"type":"event","name":"Transfer","inputs":[{"name":"from","type":"address","indexed":true,"internalType":"address"},{"name":"to","type":"address","indexed":true,"internalType":"address"},{"name":"tokenId","type":"uint256","indexed":true,"internalType":"uint256"}],"anonymous":false},{"type":"error","name":"ApprovalExpired","inputs":[]},{"type":"error","name":"CallbackFailed","inputs":[{"name":"data","type":"bytes","internalType":"bytes"}]},{"type":"error","name":"CallbackNotWhitelisted","inputs":[]},{"type":"error","name":"CannotBindClaim","inputs":[]},{"type":"error","name":"ClaimBound","inputs":[]},{"type":"error","name":"ClaimNotPending","inputs":[]},{"type":"error","name":"ClaimPending","inputs":[]},{"type":"error","name":"ERC721IncorrectOwner","inputs":[{"name":"sender","type":"address","internalType":"address"},{"name":"tokenId","type":"uint256","internalType":"uint256"},{"name":"owner","type":"address","internalType":"address"}]},{"type":"error","name":"ERC721InsufficientApproval","inputs":[{"name":"operator","type":"address","internalType":"address"},{"name":"tokenId","type":"uint256","internalType":"uint256"}]},{"type":"error","name":"ERC721InvalidApprover","inputs":[{"name":"approver","type":"address","internalType":"address"}]},{"type":"error","name":"ERC721InvalidOperator","inputs":[{"name":"operator","type":"address","internalType":"address"}]},{"type":"error","name":"ERC721InvalidOwner","inputs":[{"name":"owner","type":"address","internalType":"address"}]},{"type":"error","name":"ERC721InvalidReceiver","inputs":[{"name":"receiver","type":"address","internalType":"address"}]},{"type":"error","name":"ERC721InvalidSender","inputs":[{"name":"sender","type":"address","internalType":"address"}]},{"type":"error","name":"ERC721NonexistentToken","inputs":[{"name":"tokenId","type":"uint256","internalType":"uint256"}]},{"type":"error","name":"IncorrectFee","inputs":[]},{"type":"error","name":"IncorrectMsgValue","inputs":[]},{"type":"error","name":"InvalidInterface","inputs":[]},{"type":"error","name":"Locked","inputs":[]},{"type":"error","name":"MustBeControlledClaim","inputs":[]},{"type":"error","name":"NotApproved","inputs":[]},{"type":"error","name":"NotController","inputs":[{"name":"sender","type":"address","internalType":"address"}]},{"type":"error","name":"NotCreditor","inputs":[]},{"type":"error","name":"NotCreditorOrDebtor","inputs":[]},{"type":"error","name":"NotMinted","inputs":[]},{"type":"error","name":"NotOwner","inputs":[]},{"type":"error","name":"NotSupported","inputs":[]},{"type":"error","name":"OverPaying","inputs":[{"name":"paymentAmount","type":"uint256","internalType":"uint256"}]},{"type":"error","name":"OwnableInvalidOwner","inputs":[{"name":"owner","type":"address","internalType":"address"}]},{"type":"error","name":"OwnableUnauthorizedAccount","inputs":[{"name":"account","type":"address","internalType":"address"}]},{"type":"error","name":"PastApprovalDeadline","inputs":[]},{"type":"error","name":"PayingZero","inputs":[]},{"type":"error","name":"PaymentUnderApproved","inputs":[]},{"type":"error","name":"WithdrawalFailed","inputs":[]}],"bytecode":{"object":"0x608060405234801561000f575f5ffd5b50604051614f58380380614f5883398101604081905261002e9161019f565b336040518060400160405280600c81526020016b213ab63630a1b630b4b6ab1960a11b81525060405180604001604052806005815260200164434c41494d60d81b815250815f90816100809190610287565b50600161008d8282610287565b5050506001600160a01b0381166100bd57604051631e4fbdf760e01b81525f600482015260240160405180910390fd5b6100c681610133565b50600b80546001600160a01b0319166001600160a01b0386161790556009805484919060ff1916600183600281111561010157610101610341565b0217905550600d91909155600e80546001600160a01b0319166001600160a01b03909216919091179055506103559050565b600680546001600160a01b038381166001600160a01b0319831681179093556040519116919082907f8be0079c531659141344cd1fd0a4f28419497f9722a3daafe3b4186f6b6457e0905f90a35050565b80516001600160a01b038116811461019a575f5ffd5b919050565b5f5f5f5f608085870312156101b2575f5ffd5b6101bb85610184565b93506020850151600381106101ce575f5ffd5b604086015190935091506101e460608601610184565b905092959194509250565b634e487b7160e01b5f52604160045260245ffd5b600181811c9082168061021757607f821691505b60208210810361023557634e487b7160e01b5f52602260045260245ffd5b50919050565b601f82111561028257805f5260205f20601f840160051c810160208510156102605750805b601f840160051c820191505b8181101561027f575f815560010161026c565b50505b505050565b81516001600160401b038111156102a0576102a06101ef565b6102b4816102ae8454610203565b8461023b565b6020601f8211600181146102e6575f83156102cf5750848201515b5f19600385901b1c1916600184901b17845561027f565b5f84815260208120601f198516915b8281101561031557878501518255602094850194600190920191016102f5565b508482101561033257868401515f19600387901b60f8161c191681555b50505050600190811b01905550565b634e487b7160e01b5f52602160045260245ffd5b614bf6806103625f395ff3fe608060405260043610610343575f3560e01c8063708cf832116101b2578063b8f34269116100f2578063d3e3975011610092578063e9c1d0c01161006d578063e9c1d0c014610a5e578063ea73e11f14610a7d578063f2fde38b14610ab6578063fcf391e014610ad5575f5ffd5b8063d3e397501461091a578063d6700bef14610939578063e985e9c514610a17575f5ffd5b8063c1e04045116100cd578063c1e04045146108b6578063c87b56dd146108c9578063c99c4448146108e8578063cbe5a9af146108fb575f5ffd5b8063b8f3426914610865578063ba9a809414610884578063c07cae8814610897575f5ffd5b80638da5cb5b1161015d578063a94c68df11610138578063a94c68df146107f4578063af236af414610813578063af9fe4de14610827578063b88d4fde14610846575f5ffd5b80638da5cb5b146107ad57806395d89b41146107c1578063a22cb465146107d5575f5ffd5b806372806c5a1161018d57806372806c5a1461071b5780637649d6de146107305780638204c62714610798575f5ffd5b8063708cf832146106c957806370a08231146106e8578063715018a614610707575f5ffd5b806328f60a7c1161028857806352ec8529116102285780636352211e116102035780636352211e1461063f5780636418bde91461065e57806364af66921461067d5780636d9283751461069c575f5ffd5b806352ec8529146105d55780635aef2447146105f45780635edc84eb14610620575f5ffd5b80633cc92b99116102635780633cc92b991461055257806342842e0e1461057157806343d073bb1461059057806346be9c48146105af575f5ffd5b806328f60a7c146104f55780632a982aeb146105145780633081ed8a14610533575f5ffd5b8063083c8182116102f3578063185a34f2116102ce578063185a34f2146104855780631cecb2541461049857806320d436d3146104b757806323b872dd146104d6575f5ffd5b8063083c818214610432578063095ea7b3146104535780631461f12614610472575f5ffd5b806301ffc9a71161032357806301ffc9a7146103d357806306fdde03146103f2578063081812fc14610413575f5ffd5b80624b3829146103475780628c10751461036d57806301a2cae81461039c575b5f5ffd5b61035a610355366004613b1a565b610af4565b6040519081526020015b60405180910390f35b348015610378575f5ffd5b5061038c610387366004613b8e565b610b96565b6040519015158152602001610364565b3480156103a7575f5ffd5b50600e546103bb906001600160a01b031681565b6040516001600160a01b039091168152602001610364565b3480156103de575f5ffd5b5061038c6103ed366004613beb565b610c4c565b3480156103fd575f5ffd5b50610406610c5c565b6040516103649190613c52565b34801561041e575f5ffd5b506103bb61042d366004613c64565b610ceb565b34801561043d575f5ffd5b5061045161044c366004613c7b565b610d12565b005b34801561045e575f5ffd5b5061045161046d366004613c94565b610d54565b61035a610480366004613cbc565b610d63565b61035a610493366004613d07565b610e03565b3480156104a3575f5ffd5b506104516104b2366004613c64565b610e0e565b3480156104c2575f5ffd5b506104516104d1366004613c64565b610e1b565b3480156104e1575f5ffd5b506104516104f0366004613d39565b610e28565b348015610500575f5ffd5b5061045161050f366004613c64565b610e39565b34801561051f575f5ffd5b5061045161052e366004613c94565b610e43565b34801561053e575f5ffd5b5061045161054d366004613c94565b610e9c565b34801561055d575f5ffd5b5061045161056c366004613d73565b610ef5565b34801561057c575f5ffd5b5061045161058b366004613d39565b610f93565b34801561059b575f5ffd5b506104516105aa366004613dbf565b610fad565b3480156105ba575f5ffd5b506009546105c89060ff1681565b6040516103649190613e17565b3480156105e0575f5ffd5b506104516105ef366004613d39565b610ffa565b3480156105ff575f5ffd5b5061061361060e366004613c64565b61105d565b6040516103649190613f1b565b34801561062b575f5ffd5b5061045161063a366004613f2a565b611352565b34801561064a575f5ffd5b506103bb610659366004613c64565b61135d565b348015610669575f5ffd5b50610451610678366004613f4d565b611379565b348015610688575f5ffd5b50600b546103bb906001600160a01b031681565b3480156106a7575f5ffd5b506106bb6106b6366004613c64565b6113d3565b604051610364929190613f8a565b3480156106d4575f5ffd5b506104516106e3366004613ff3565b6114fa565b3480156106f3575f5ffd5b5061035a610702366004613c7b565b611555565b348015610712575f5ffd5b506104516115b3565b348015610726575f5ffd5b5061035a600a5481565b34801561073b575f5ffd5b5061038c61074a366004613d73565b6001600160a01b0382165f908152600f602090815260408083207fffffffff000000000000000000000000000000000000000000000000000000008516845290915290205460ff1692915050565b3480156107a3575f5ffd5b5061035a600d5481565b3480156107b8575f5ffd5b506103bb6115c6565b3480156107cc575f5ffd5b506104066115de565b3480156107e0575f5ffd5b506104516107ef366004614056565b6115ed565b3480156107ff575f5ffd5b5061045161080e366004614080565b61161f565b34801561081e575f5ffd5b5061045161162b565b348015610832575f5ffd5b506104516108413660046140b2565b611718565b348015610851575f5ffd5b5061045161086036600461420d565b61177d565b348015610870575f5ffd5b50600c546103bb906001600160a01b031681565b610451610892366004613b8e565b61178a565b3480156108a2575f5ffd5b506104516108b1366004614271565b6117e8565b61035a6108c43660046142b9565b6117f4565b3480156108d4575f5ffd5b506104066108e3366004613c64565b611800565b6104516108f6366004614314565b611982565b348015610906575f5ffd5b50610451610915366004613d73565b61199a565b348015610925575f5ffd5b50610451610934366004613c7b565b611a75565b348015610944575f5ffd5b506109d1610953366004613c64565b604080518082019091525f8082526020820152505f908152601060209081526040918290208251808401909352546001600160a01b038116835274010000000000000000000000000000000000000000900460e01b7fffffffff00000000000000000000000000000000000000000000000000000000169082015290565b6040805182516001600160a01b031681526020928301517fffffffff00000000000000000000000000000000000000000000000000000000169281019290925201610364565b348015610a22575f5ffd5b5061038c610a31366004614334565b6001600160a01b039182165f90815260056020908152604080832093909416825291909152205460ff1690565b348015610a69575f5ffd5b50610451610a78366004614365565b611ab7565b348015610a88575f5ffd5b5061038c610a97366004613d73565b600f60209081525f928352604080842090915290825290205460ff1681565b348015610ac1575f5ffd5b50610451610ad0366004613c7b565b611b5e565b348015610ae0575f5ffd5b50610451610aef3660046143b1565b611bb1565b600b545f906001600160a01b031663e5a39c928533610b166020880188613c7b565b610b266040890160208a01613c7b565b610b3660c08a0160a08b01613dbf565b6040518663ffffffff1660e01b8152600401610b56959493929190614425565b5f604051808303815f87803b158015610b6d575f5ffd5b505af1158015610b7f573d5f5f3e3d5ffd5b50505050610b8e848484611c18565b949350505050565b5f5f610ba18461105d565b6101008101519091506001600160a01b0316610be9576040517f0e92b2c600000000000000000000000000000000000000000000000000000000815260040160405180910390fd5b6101008101516001600160a01b03163314610c37576040517f66719b7a0000000000000000000000000000000000000000000000000000000081523360048201526024015b60405180910390fd5b610c4385858386611c9c565b95945050505050565b5f610c5682611e19565b92915050565b60605f8054610c6a90614466565b80601f0160208091040260200160405190810160405280929190818152602001828054610c9690614466565b8015610ce15780601f10610cb857610100808354040283529160200191610ce1565b820191905f5260205f20905b815481529060010190602001808311610cc457829003601f168201915b5050505050905090565b5f610cf582611efb565b505f828152600460205260409020546001600160a01b0316610c56565b610d1a611f4c565b600e80547fffffffffffffffffffffffff0000000000000000000000000000000000000000166001600160a01b0392909216919091179055565b610d5f338383611f97565b5050565b600b545f906001600160a01b031663e5a39c928433610d856020870187613c7b565b610d956040880160208901613c7b565b610da560c0890160a08a01613dbf565b6040518663ffffffff1660e01b8152600401610dc5959493929190614425565b5f604051808303815f87803b158015610ddc575f5ffd5b505af1158015610dee573d5f5f3e3d5ffd5b50505050610dfc838361201c565b9392505050565b5f610c56338361201c565b610e1833826124d6565b50565b610e23611f4c565b600d55565b610e34338484846126e2565b505050565b610e183382612811565b5f610e4d8261105d565b61010001516001600160a01b031603610e92576040517f0e92b2c600000000000000000000000000000000000000000000000000000000815260040160405180910390fd5b610d5f82826124d6565b5f610ea68261105d565b61010001516001600160a01b031603610eeb576040517f0e92b2c600000000000000000000000000000000000000000000000000000000815260040160405180910390fd5b610d5f8282612811565b610efd611f4c565b6001600160a01b0382165f818152600f602090815260408083207fffffffff000000000000000000000000000000000000000000000000000000008616808552925280832080547fffffffffffffffffffffffffffffffffffffffffffffffffffffffffffffff00169055519092917f36112db5f88f36037ce600104320a87f5636f34183686bbc76a66ec5588fccc991a35050565b610e3483838360405180602001604052805f81525061177d565b610fb5611f4c565b600980548291907fffffffffffffffffffffffffffffffffffffffffffffffffffffffffffffff00166001836002811115610ff257610ff2613dda565b021790555050565b5f6110048261105d565b6101008101519091506001600160a01b031661104c576040517f0e92b2c600000000000000000000000000000000000000000000000000000000815260040160405180910390fd5b611057848484611f97565b50505050565b6110b960408051610160810182525f80825260208201819052918101829052606081018290526080810182905260a0810182905260c0810182905260e0810182905261010081018290529061012082019081526020015f905290565b600a5482106110f4576040517f4d5e5fb300000000000000000000000000000000000000000000000000000000815260040160405180910390fd5b5f82815260076020908152604080832081516101408101835281546fffffffffffffffffffffffffffffffff8082168352700100000000000000000000000000000000909104169381019390935260018101546001600160a01b0390811692840192909252600281015482166060840152600381015482166080840152600481015491821660a08401529060c083019074010000000000000000000000000000000000000000900460ff1660058111156111b0576111b0613dda565b60058111156111c1576111c1613dda565b81526020016004820160159054906101000a900460ff1660028111156111e9576111e9613dda565b60028111156111fa576111fa613dda565b81526004919091015464ffffffffff760100000000000000000000000000000000000000000000820481166020808501919091527b01000000000000000000000000000000000000000000000000000000909204811660409384015282516101608101845284516fffffffffffffffffffffffffffffffff908116825285840151169281019290925261010084015181168284015261012084015116606080830191909152918301516001600160a01b0390811660808301529183015190911660a082015290915060c081016112e4855f908152600260205260409020546001600160a01b031690565b6001600160a01b0316815260200182608001516001600160a01b031681526020018260a001516001600160a01b031681526020018260c00151600581111561132e5761132e613dda565b81526020018260e00151600281111561134957611349613dda565b90529392505050565b610d5f3383836129a0565b5f818152600260205260408120546001600160a01b0316610c56565b5f6113838361105d565b61010001516001600160a01b0316036113c8576040517f0e92b2c600000000000000000000000000000000000000000000000000000000815260040160405180910390fd5b610e348383836129a0565b60086020525f90815260409020805481906113ed90614466565b80601f016020809104026020016040519081016040528092919081815260200182805461141990614466565b80156114645780601f1061143b57610100808354040283529160200191611464565b820191905f5260205f20905b81548152906001019060200180831161144757829003601f168201915b50505050509080600101805461147990614466565b80601f01602080910402602001604051908101604052809291908181526020018280546114a590614466565b80156114f05780601f106114c7576101008083540402835291602001916114f0565b820191905f5260205f20905b8154815290600101906020018083116114d357829003601f168201915b5050505050905082565b5f6115048461105d565b61010001516001600160a01b031603611549576040517f0e92b2c600000000000000000000000000000000000000000000000000000000815260040160405180910390fd5b61105784848484612b68565b5f6001600160a01b038216611598576040517f89c62b640000000000000000000000000000000000000000000000000000000081525f6004820152602401610c2e565b506001600160a01b03165f9081526003602052604090205490565b6115bb611f4c565b6115c45f612dd4565b565b5f6115d96006546001600160a01b031690565b905090565b606060018054610c6a90614466565b6040517fa038794000000000000000000000000000000000000000000000000000000000815260040160405180910390fd5b610e3433848484612e3d565b611633611f4c565b478015610e18575f6116436115c6565b6001600160a01b0316826040515f6040518083038185875af1925050503d805f811461168a576040519150601f19603f3d011682016040523d82523d5f602084013e61168f565b606091505b50509050806116ca576040517f27fcd9d100000000000000000000000000000000000000000000000000000000815260040160405180910390fd5b6116d26115c6565b6001600160a01b03167f78473f3f373f7673597f4f0fa5873cb4d375fea6d4339ad6b56dbd411513cb3f8360405161170c91815260200190565b60405180910390a25050565b5f6117228261105d565b6101008101519091506001600160a01b031661176a576040517f0e92b2c600000000000000000000000000000000000000000000000000000000815260040160405180910390fd5b611776858585856126e2565b5050505050565b6110573385858585613030565b5f6117948361105d565b6101008101519091506001600160a01b03166117dc576040517f0e92b2c600000000000000000000000000000000000000000000000000000000815260040160405180910390fd5b61105784848385613049565b610e3433848484612b68565b5f610dfc338484611c18565b5f8181526008602052604081208054606092919061181d90614466565b80601f016020809104026020016040519081016040528092919081815260200182805461184990614466565b80156118945780601f1061186b57610100808354040283529160200191611894565b820191905f5260205f20905b81548152906001019060200180831161187757829003601f168201915b505050505090505f815111156118aa5792915050565b5f6118b48461105d565b5f85815260026020526040812054919250906001600160a01b0316600c546040517fd993031e0000000000000000000000000000000000000000000000000000000081529192506001600160a01b03169063d993031e9061191d908590899086906004016144b1565b5f60405180830381865afa158015611937573d5f5f3e3d5ffd5b505050506040513d5f823e601f3d9081017fffffffffffffffffffffffffffffffffffffffffffffffffffffffffffffffe0168201604052610c4391908101906144df565b50919050565b5f61198c8361105d565b9050610e3433848385613049565b6119a2611f4c565b6001600160a01b03821615806119d857507fffffffff000000000000000000000000000000000000000000000000000000008116155b610d5f576001600160a01b0382165f818152600f602090815260408083207fffffffff000000000000000000000000000000000000000000000000000000008616808552925280832080547fffffffffffffffffffffffffffffffffffffffffffffffffffffffffffffff00166001179055519092917f177c467a5dec0610cb3afa435a1f7efa9cd39bf81ff2273f06ae7668a00e310b91a35050565b611a7d611f4c565b600c80547fffffffffffffffffffffffff0000000000000000000000000000000000000000166001600160a01b0392909216919091179055565b5f611ac18461105d565b6101008101519091506001600160a01b0316611b09576040517f0e92b2c600000000000000000000000000000000000000000000000000000000815260040160405180910390fd5b6101008101516001600160a01b03163314611b52576040517f66719b7a000000000000000000000000000000000000000000000000000000008152336004820152602401610c2e565b61177685858585612e3d565b611b66611f4c565b6001600160a01b038116611ba8576040517f1e4fbdf70000000000000000000000000000000000000000000000000000000081525f6004820152602401610c2e565b610e1881612dd4565b5f611bbb8361105d565b6101008101519091506001600160a01b0316611c03576040517f0e92b2c600000000000000000000000000000000000000000000000000000000815260040160405180910390fd5b611c108686868686613030565b505050505050565b5f5f611c24858561201c565b5f8181526008602052604090209091508390611c40828261470f565b508190507f0762a30b2ec82141bc9ec23425f643036567b2e3a0971ed4850a968e10e5e804611c6f8580614554565b611c7c6020880188614554565b604051611c8c949392919061488f565b60405180910390a2949350505050565b5f611ca56131f2565b5f5f73__$05a947d0c9e5506efad2f4be513ad6e054$__63cc11e50b8887876040518463ffffffff1660e01b8152600401611ce2939291906148c0565b6040805180830381865af4158015611cfc573d5f5f3e3d5ffd5b505050506040513d601f19601f82011682018060405250810190611d2091906148ed565b5f88815260076020526040902080546fffffffffffffffffffffffffffffffff80851670010000000000000000000000000000000002911617815590945090925083915081611d70576001611d73565b60025b6004820180547fffffffffffffffffffffff00ffffffffffffffffffffffffffffffffffffffff1674010000000000000000000000000000000000000000836005811115611dc357611dc3613dda565b021790555060408051868152602081018590526001600160a01b038a169189917feb324fb7fa5e3c4895f81135dee55dabe780ab78ada3c673cd8d79969a509ac5910160405180910390a3505050949350505050565b5f7fffffffff0000000000000000000000000000000000000000000000000000000082167f80ac58cd000000000000000000000000000000000000000000000000000000001480611eab57507fffffffff0000000000000000000000000000000000000000000000000000000082167f5b5e139f00000000000000000000000000000000000000000000000000000000145b80610c5657507f01ffc9a7000000000000000000000000000000000000000000000000000000007fffffffff00000000000000000000000000000000000000000000000000000000831614610c56565b5f818152600260205260408120546001600160a01b031680610c56576040517f7e27328900000000000000000000000000000000000000000000000000000000815260048101849052602401610c2e565b33611f556115c6565b6001600160a01b0316146115c4576040517f118cdaa7000000000000000000000000000000000000000000000000000000008152336004820152602401610c2e565b5f611fa18261105d565b6101008101519091506001600160a01b031615801590611fd857508061010001516001600160a01b0316336001600160a01b031614155b15612011576040517f66719b7a000000000000000000000000000000000000000000000000000000008152336004820152602401610c2e565b611057838386613242565b5f8060095460ff16600281111561203557612035613dda565b1461206c576040517f0f2e5b6c00000000000000000000000000000000000000000000000000000000815260040160405180910390fd5b600e54600d546040517f6bc7636f00000000000000000000000000000000000000000000000000000000815273__$05a947d0c9e5506efad2f4be513ad6e054$__92636bc7636f926120d292889288926001600160a01b03909116913490600401614970565b5f6040518083038186803b1580156120e8575f5ffd5b505af41580156120fa573d5f5f3e3d5ffd5b505050505f5f846001600160a01b0316336001600160a01b03161461211f5733612121565b5f5b600a8054600181019091555f81815260076020526040908190209194509192509061214e9086013561324f565b81547fffffffffffffffffffffffffffffffff00000000000000000000000000000000166fffffffffffffffffffffffffffffffff9190911617815561219a6040860160208701613c7b565b6002820180547fffffffffffffffffffffffff0000000000000000000000000000000000000000166001600160a01b03929092169190911790556121e16020860186613c7b565b6001820180547fffffffffffffffffffffffff0000000000000000000000000000000000000000166001600160a01b03929092169190911790555f61222c60a0870160808801613c7b565b6001600160a01b0316146122855761224a60a0860160808701613c7b565b6003820180547fffffffffffffffffffffffff0000000000000000000000000000000000000000166001600160a01b03929092169190911790555b6001600160a01b038216156122ca576004810180547fffffffffffffffffffffffff0000000000000000000000000000000000000000166001600160a01b0384161790555b5f6122db60c0870160a08801613dbf565b60028111156122ec576122ec613dda565b146123585761230160c0860160a08701613dbf565b6004820180547fffffffffffffffffffff00ffffffffffffffffffffffffffffffffffffffffff16750100000000000000000000000000000000000000000083600281111561235257612352613dda565b02179055505b60c0850135156123b3576004810180547fffffffffff0000000000ffffffffffffffffffffffffffffffffffffffffffff1676010000000000000000000000000000000000000000000060c088013564ffffffffff16021790555b60e08501351561240e576004810180547affffffffffffffffffffffffffffffffffffffffffffffffffffff167b0100000000000000000000000000000000000000000000000000000060e088013564ffffffffff16021790555b5061241f6040850160208601613c7b565b6001600160a01b03166124356020860186613c7b565b6001600160a01b0316837f4a3269cbd2349d90096f8883573394f1da2aee3f8c0e5c4b29fbcab5c87efb4388604089013560c08a013561247860608c018c614554565b61248860a08e0160808f01613c7b565b8a8e60a001602081019061249c9190613dbf565b6040516124b0989796959493929190614a55565b60405180910390a46124ce6124c86020860186613c7b565b83613270565b509392505050565b6124de6131f2565b5f6124e88261105d565b5f838152600260205260409020546101008201519192506001600160a01b0390811691161580159061253157508161010001516001600160a01b0316336001600160a01b031614155b1561256a576040517f66719b7a000000000000000000000000000000000000000000000000000000008152336004820152602401610c2e565b6040517f3b5d591600000000000000000000000000000000000000000000000000000000815273__$05a947d0c9e5506efad2f4be513ad6e054$__90633b5d5916906125be90879086908690600401614abf565b5f6040518083038186803b1580156125d4575f5ffd5b505af41580156125e6573d5f5f3e3d5ffd5b5050505f8481526007602052604080822060040180547fffffffffffffffffffffff00ffffffffffffffffffffffffffffffffffffffff1674020000000000000000000000000000000000000000179055518592507f9aef63ece5ceaa834c5017ecc62c1f130ae015e898d014a9e508cdf8d84848049190a25f838152601060209081526040918290208251808401909352546001600160a01b0381168084527401000000000000000000000000000000000000000090910460e01b7fffffffff0000000000000000000000000000000000000000000000000000000016918301919091521561177657611776815f0151826020015186613303565b5f6126ec8261105d565b6101008101519091506001600160a01b03161580159061272357508061010001516001600160a01b0316336001600160a01b031614155b1561275c576040517f66719b7a000000000000000000000000000000000000000000000000000000008152336004820152602401610c2e565b6001600160a01b03831661279e576040517f64a0ae920000000000000000000000000000000000000000000000000000000081525f6004820152602401610c2e565b5f6127aa84848861340d565b9050846001600160a01b0316816001600160a01b031614611c10576040517f64283d7b0000000000000000000000000000000000000000000000000000000081526001600160a01b0380871660048301526024820185905282166044820152606401610c2e565b6128196131f2565b5f6128238261105d565b5f838152600260205260409020546101008201519192506001600160a01b0390811691161580159061286c57508161010001516001600160a01b0316336001600160a01b031614155b156128a5576040517f66719b7a000000000000000000000000000000000000000000000000000000008152336004820152602401610c2e565b6040517f490080a600000000000000000000000000000000000000000000000000000000815273__$05a947d0c9e5506efad2f4be513ad6e054$__9063490080a6906128f990879086908690600401614abf565b5f6040518083038186803b15801561290f575f5ffd5b505af4158015612921573d5f5f3e3d5ffd5b5050505f8481526007602052604080822060040180547fffffffffffffffffffffff00ffffffffffffffffffffffffffffffffffffffff1674050000000000000000000000000000000000000000179055518592507fbeff20e87296f95eda2707b98ff344c0c9c1dc3900f20dde29098241703286149190a250505050565b6129a86131f2565b5f6129b28361105d565b5f848152600260205260409020546101008201519192506001600160a01b039081169116158015906129fb57508161010001516001600160a01b0316336001600160a01b031614155b15612a34576040517f66719b7a000000000000000000000000000000000000000000000000000000008152336004820152602401610c2e565b6040517f81f0780e00000000000000000000000000000000000000000000000000000000815273__$05a947d0c9e5506efad2f4be513ad6e054$__906381f0780e90612a8a908890869086908990600401614af5565b5f6040518083038186803b158015612aa0575f5ffd5b505af4158015612ab2573d5f5f3e3d5ffd5b5050505f85815260076020526040902060040180548592507fffffffffffffffffffff00ffffffffffffffffffffffffffffffffffffffffff167501000000000000000000000000000000000000000000836002811115612b1557612b15613dda565b0217905550826002811115612b2c57612b2c613dda565b6040516001600160a01b0387169086907f3b17ddcb4df9a7a621005f492ba347528e1021e3ff0eb4d2b3040ad0354609c9905f90a45050505050565b612b706131f2565b5f612b7a8461105d565b5f858152600260205260409020546101008201519192506001600160a01b03908116911615801590612bc357508161010001516001600160a01b0316336001600160a01b031614155b15612bfc576040517f66719b7a000000000000000000000000000000000000000000000000000000008152336004820152602401610c2e565b6040517f20727a0d00000000000000000000000000000000000000000000000000000000815273__$05a947d0c9e5506efad2f4be513ad6e054$__906320727a0d90612c5090899086908690600401614abf565b5f6040518083038186803b158015612c66575f5ffd5b505af4158015612c78573d5f5f3e3d5ffd5b505050508160a001516001600160a01b0316866001600160a01b031603612d36575f8581526007602052604090206004018054600391907fffffffffffffffffffffff00ffffffffffffffffffffffffffffffffffffffff1674010000000000000000000000000000000000000000830217905550856001600160a01b0316857f4682ef87b3db3f66192d1dc1efd5d2a314cdd9c61e14219f671c03e6f507823a8686604051612d29929190614b3c565b60405180910390a3611c10565b5f858152600760205260409020600490810180547fffffffffffffffffffffff00ffffffffffffffffffffffffffffffffffffffff1674010000000000000000000000000000000000000000830217905550856001600160a01b0316857f84993de43f7886c435a01bf9d72095e6a0a03bad77d5ed2478d043e566e2c77c8686604051612dc4929190614b3c565b60405180910390a3505050505050565b600680546001600160a01b038381167fffffffffffffffffffffffff0000000000000000000000000000000000000000831681179093556040519116919082907f8be0079c531659141344cd1fd0a4f28419497f9722a3daafe3b4186f6b6457e0905f90a35050565b600a548310612e78576040517f4d5e5fb300000000000000000000000000000000000000000000000000000000815260040160405180910390fd5b5f838152600260205260409020546001600160a01b039081169085168114612ecc576040517fe16e54be00000000000000000000000000000000000000000000000000000000815260040160405180910390fd5b6001600160a01b03831615612f59576001600160a01b0383165f908152600f602090815260408083207fffffffff000000000000000000000000000000000000000000000000000000008616845290915290205460ff16612f59576040517f8e792a0500000000000000000000000000000000000000000000000000000000815260040160405180910390fd5b6040805180820182526001600160a01b038581168083527fffffffff00000000000000000000000000000000000000000000000000000000861660208085018281525f8b81526010835287902095518654915160e01c74010000000000000000000000000000000000000000027fffffffffffffffff00000000000000000000000000000000000000000000000090921695169490941793909317909355925191825286917f68ec99f8f4655bc1315c275c4d9ee0a7477311d84607b6ad984ea1246ec38754910160405180910390a35050505050565b61303c858585856126e2565b6117768585858585613466565b6101008201516001600160a01b03161580159061307d57508161010001516001600160a01b0316336001600160a01b031614155b156130b6576040517f66719b7a000000000000000000000000000000000000000000000000000000008152336004820152602401610c2e565b60e08201516001600160a01b031661310157803414613101576040517f26ea953d00000000000000000000000000000000000000000000000000000000815260040160405180910390fd5b5f61310e85858585611c9c565b60e08401519091506001600160a01b0316156131515761314c858460c00151848660e001516001600160a01b031661361f909392919063ffffffff16565b613169565b60c0830151613169906001600160a01b0316836136da565b8015611776575f848152601060209081526040918290208251808401909352546001600160a01b0381168084527401000000000000000000000000000000000000000090910460e01b7fffffffff00000000000000000000000000000000000000000000000000000000169183019190915215611c1057611c10815f0151826020015187613303565b600260095460ff16600281111561320b5761320b613dda565b036115c4576040517f0f2e5b6c00000000000000000000000000000000000000000000000000000000815260040160405180910390fd5b610e34838383600161374c565b5f700100000000000000000000000000000000821061326c575f5ffd5b5090565b6001600160a01b0382166132b2576040517f64a0ae920000000000000000000000000000000000000000000000000000000081525f6004820152602401610c2e565b5f6132be83835f61340d565b90506001600160a01b03811615610e34576040517f73c6ac6e0000000000000000000000000000000000000000000000000000000081525f6004820152602401610c2e565b5f828260405160240161331891815260200190565b604051602081830303815290604052907bffffffffffffffffffffffffffffffffffffffffffffffffffffffff19166020820180517bffffffffffffffffffffffffffffffffffffffffffffffffffffffff838183161783525050505090505f5f856001600160a01b0316836040516133919190614b4f565b5f604051808303815f865af19150503d805f81146133ca576040519150601f19603f3d011682016040523d82523d5f602084013e6133cf565b606091505b509150915081611c1057806040517f30b9b6dd000000000000000000000000000000000000000000000000000000008152600401610c2e9190613c52565b5f5f61341a85858561389f565b90506001600160a01b03811615610b8e575f84815260106020526040902080547fffffffffffffffff000000000000000000000000000000000000000000000000169055949350505050565b6001600160a01b0383163b15611776576040517f150b7a020000000000000000000000000000000000000000000000000000000081526001600160a01b0384169063150b7a02906134c1908890889087908790600401614b65565b6020604051808303815f875af1925050508015613519575060408051601f3d9081017fffffffffffffffffffffffffffffffffffffffffffffffffffffffffffffffe016820190925261351691810190614ba5565b60015b613599573d808015613546576040519150601f19603f3d011682016040523d82523d5f602084013e61354b565b606091505b5080515f03613591576040517f64a0ae920000000000000000000000000000000000000000000000000000000081526001600160a01b0385166004820152602401610c2e565b805181602001fd5b7fffffffff0000000000000000000000000000000000000000000000000000000081167f150b7a020000000000000000000000000000000000000000000000000000000014611c10576040517f64a0ae920000000000000000000000000000000000000000000000000000000081526001600160a01b0385166004820152602401610c2e565b5f6040517f23b872dd00000000000000000000000000000000000000000000000000000000815284600482015283602482015282604482015260205f6064835f8a5af13d15601f3d1160015f511416171691505080611776576040517f08c379a000000000000000000000000000000000000000000000000000000000815260206004820152601460248201527f5452414e534645525f46524f4d5f4641494c45440000000000000000000000006044820152606401610c2e565b5f5f5f5f5f85875af1905080610e34576040517f08c379a000000000000000000000000000000000000000000000000000000000815260206004820152601360248201527f4554485f5452414e534645525f4641494c4544000000000000000000000000006044820152606401610c2e565b808061376057506001600160a01b03821615155b15613858575f61376f84611efb565b90506001600160a01b0383161580159061379b5750826001600160a01b0316816001600160a01b031614155b80156137cc57506001600160a01b038082165f9081526005602090815260408083209387168352929052205460ff16155b1561380e576040517fa9fbf51f0000000000000000000000000000000000000000000000000000000081526001600160a01b0384166004820152602401610c2e565b81156138565783856001600160a01b0316826001600160a01b03167f8c5be1e5ebec7d5bd14f71427d1e84f3dd0314c0f7b2291e5b200ac8c7c3b92560405160405180910390a45b505b50505f90815260046020526040902080547fffffffffffffffffffffffff0000000000000000000000000000000000000000166001600160a01b0392909216919091179055565b5f828152600260205260408120546001600160a01b03908116908316156138cb576138cb8184866139c8565b6001600160a01b03811615613924576138e65f855f5f61374c565b6001600160a01b0381165f90815260036020526040902080547fffffffffffffffffffffffffffffffffffffffffffffffffffffffffffffffff0190555b6001600160a01b03851615613952576001600160a01b0385165f908152600360205260409020805460010190555b5f8481526002602052604080822080547fffffffffffffffffffffffff0000000000000000000000000000000000000000166001600160a01b0389811691821790925591518793918516917fddf252ad1be2c89b69c2b068fc378daa952ba7f163c4a11628f55a4df523b3ef91a4949350505050565b6139d3838383613a5e565b610e34576001600160a01b038316613a1a576040517f7e27328900000000000000000000000000000000000000000000000000000000815260048101829052602401610c2e565b6040517f177e802f0000000000000000000000000000000000000000000000000000000081526001600160a01b038316600482015260248101829052604401610c2e565b5f6001600160a01b03831615801590610b8e5750826001600160a01b0316846001600160a01b03161480613ab657506001600160a01b038085165f9081526005602090815260408083209387168352929052205460ff165b80610b8e5750505f908152600460205260409020546001600160a01b03908116911614919050565b80356001600160a01b0381168114613af4575f5ffd5b919050565b5f610100828403121561197c575f5ffd5b5f6040828403121561197c575f5ffd5b5f5f5f60608486031215613b2c575f5ffd5b613b3584613ade565b9250602084013567ffffffffffffffff811115613b50575f5ffd5b613b5c86828701613af9565b925050604084013567ffffffffffffffff811115613b78575f5ffd5b613b8486828701613b0a565b9150509250925092565b5f5f5f60608486031215613ba0575f5ffd5b613ba984613ade565b95602085013595506040909401359392505050565b7fffffffff0000000000000000000000000000000000000000000000000000000081168114610e18575f5ffd5b5f60208284031215613bfb575f5ffd5b8135610dfc81613bbe565b5f81518084528060208401602086015e5f6020828601015260207fffffffffffffffffffffffffffffffffffffffffffffffffffffffffffffffe0601f83011685010191505092915050565b602081525f610dfc6020830184613c06565b5f60208284031215613c74575f5ffd5b5035919050565b5f60208284031215613c8b575f5ffd5b610dfc82613ade565b5f5f60408385031215613ca5575f5ffd5b613cae83613ade565b946020939093013593505050565b5f5f60408385031215613ccd575f5ffd5b613cd683613ade565b9150602083013567ffffffffffffffff811115613cf1575f5ffd5b613cfd85828601613af9565b9150509250929050565b5f60208284031215613d17575f5ffd5b813567ffffffffffffffff811115613d2d575f5ffd5b610b8e84828501613af9565b5f5f5f60608486031215613d4b575f5ffd5b613d5484613ade565b9250613d6260208501613ade565b929592945050506040919091013590565b5f5f60408385031215613d84575f5ffd5b613d8d83613ade565b91506020830135613d9d81613bbe565b809150509250929050565b60038110610e18575f5ffd5b8035613af481613da8565b5f60208284031215613dcf575f5ffd5b8135610dfc81613da8565b7f4e487b71000000000000000000000000000000000000000000000000000000005f52602160045260245ffd5b60038110610e1857610e18613dda565b60208101613e2483613e07565b91905290565b60068110613e3a57613e3a613dda565b9052565b613e3a81613e07565b805182526020810151602083015260408101516040830152606081015160608301526080810151613e8360808401826001600160a01b03169052565b5060a0810151613e9e60a08401826001600160a01b03169052565b5060c0810151613eb960c08401826001600160a01b03169052565b5060e0810151613ed460e08401826001600160a01b03169052565b50610100810151613ef16101008401826001600160a01b03169052565b50610120810151613f06610120840182613e2a565b50610140810151610e34610140840182613e3e565b6101608101610c568284613e47565b5f5f60408385031215613f3b575f5ffd5b823591506020830135613d9d81613da8565b5f5f5f60608486031215613f5f575f5ffd5b613f6884613ade565b9250602084013591506040840135613f7f81613da8565b809150509250925092565b604081525f613f9c6040830185613c06565b8281036020840152610c438185613c06565b5f5f83601f840112613fbe575f5ffd5b50813567ffffffffffffffff811115613fd5575f5ffd5b602083019150836020828501011115613fec575f5ffd5b9250929050565b5f5f5f5f60608587031215614006575f5ffd5b61400f85613ade565b935060208501359250604085013567ffffffffffffffff811115614031575f5ffd5b61403d87828801613fae565b95989497509550505050565b8015158114610e18575f5ffd5b5f5f60408385031215614067575f5ffd5b61407083613ade565b91506020830135613d9d81614049565b5f5f5f60608486031215614092575f5ffd5b833592506140a260208501613ade565b91506040840135613f7f81613bbe565b5f5f5f5f608085870312156140c5575f5ffd5b6140ce85613ade565b93506140dc60208601613ade565b92506140ea60408601613ade565b9396929550929360600135925050565b7f4e487b71000000000000000000000000000000000000000000000000000000005f52604160045260245ffd5b604051601f82017fffffffffffffffffffffffffffffffffffffffffffffffffffffffffffffffe016810167ffffffffffffffff8111828210171561416e5761416e6140fa565b604052919050565b5f67ffffffffffffffff82111561418f5761418f6140fa565b50601f017fffffffffffffffffffffffffffffffffffffffffffffffffffffffffffffffe01660200190565b5f82601f8301126141ca575f5ffd5b81356141dd6141d882614176565b614127565b8181528460208386010111156141f1575f5ffd5b816020850160208301375f918101602001919091529392505050565b5f5f5f5f60808587031215614220575f5ffd5b61422985613ade565b935061423760208601613ade565b925060408501359150606085013567ffffffffffffffff811115614259575f5ffd5b614265878288016141bb565b91505092959194509250565b5f5f5f60408486031215614283575f5ffd5b83359250602084013567ffffffffffffffff8111156142a0575f5ffd5b6142ac86828701613fae565b9497909650939450505050565b5f5f604083850312156142ca575f5ffd5b823567ffffffffffffffff8111156142e0575f5ffd5b6142ec85828601613af9565b925050602083013567ffffffffffffffff811115614308575f5ffd5b613cfd85828601613b0a565b5f5f60408385031215614325575f5ffd5b50508035926020909101359150565b5f5f60408385031215614345575f5ffd5b61434e83613ade565b915061435c60208401613ade565b90509250929050565b5f5f5f5f60808587031215614378575f5ffd5b61438185613ade565b93506020850135925061439660408601613ade565b915060608501356143a681613bbe565b939692955090935050565b5f5f5f5f5f60a086880312156143c5575f5ffd5b6143ce86613ade565b94506143dc60208701613ade565b93506143ea60408701613ade565b925060608601359150608086013567ffffffffffffffff81111561440c575f5ffd5b614418888289016141bb565b9150509295509295909350565b6001600160a01b038681168252858116602083015284811660408301528316606082015260a0810161445683613e07565b8260808301529695505050505050565b600181811c9082168061447a57607f821691505b60208210810361197c577f4e487b71000000000000000000000000000000000000000000000000000000005f52602260045260245ffd5b6101a081016144c08286613e47565b836101608301526001600160a01b038316610180830152949350505050565b5f602082840312156144ef575f5ffd5b815167ffffffffffffffff811115614505575f5ffd5b8201601f81018413614515575f5ffd5b80516145236141d882614176565b818152856020838501011115614537575f5ffd5b8160208401602083015e5f91810160200191909152949350505050565b5f5f83357fffffffffffffffffffffffffffffffffffffffffffffffffffffffffffffffe1843603018112614587575f5ffd5b83018035915067ffffffffffffffff8211156145a1575f5ffd5b602001915036819003821315613fec575f5ffd5b601f821115610e3457805f5260205f20601f840160051c810160208510156145da5750805b601f840160051c820191505b81811015611776575f81556001016145e6565b67ffffffffffffffff831115614611576146116140fa565b6146258361461f8354614466565b836145b5565b5f601f841160018114614675575f851561463f5750838201355b7fffffffffffffffffffffffffffffffffffffffffffffffffffffffffffffffff600387901b1c1916600186901b178355611776565b5f838152602081207fffffffffffffffffffffffffffffffffffffffffffffffffffffffffffffffe08716915b828110156146c257868501358255602094850194600190920191016146a2565b50868210156146fd577fffffffffffffffffffffffffffffffffffffffffffffffffffffffffffffffff60f88860031b161c19848701351681555b505060018560011b0183555050505050565b6147198283614554565b67ffffffffffffffff811115614731576147316140fa565b6147458161473f8554614466565b856145b5565b5f601f821160018114614795575f831561475f5750838201355b7fffffffffffffffffffffffffffffffffffffffffffffffffffffffffffffffff600385901b1c1916600184901b178555614829565b5f858152602081207fffffffffffffffffffffffffffffffffffffffffffffffffffffffffffffffe08516915b828110156147e257868501358255602094850194600190920191016147c2565b508482101561481d577fffffffffffffffffffffffffffffffffffffffffffffffffffffffffffffffff60f88660031b161c19848701351681555b505060018360011b0185555b5050505061483a6020830183614554565b6110578183600186016145f9565b81835281816020850137505f602082840101525f60207fffffffffffffffffffffffffffffffffffffffffffffffffffffffffffffffe0601f840116840101905092915050565b604081525f6148a2604083018688614848565b82810360208401526148b5818587614848565b979650505050505050565b6001600160a01b03841681526101a081016148de6020830185613e47565b82610180830152949350505050565b5f5f604083850312156148fe575f5ffd5b825191506020830151613d9d81614049565b5f5f83357fffffffffffffffffffffffffffffffffffffffffffffffffffffffffffffffe1843603018112614943575f5ffd5b830160208101925035905067ffffffffffffffff811115614962575f5ffd5b803603821315613fec575f5ffd5b6001600160a01b038616815260a060208201526001600160a01b0361499486613ade565b1660a08201526001600160a01b036149ae60208701613ade565b1660c0820152604085013560e08201525f6149cc6060870187614910565b610100808501526149e26101a085018284614848565b9150506149f160808801613ade565b6001600160a01b0316610120840152614a0c60a08801613db4565b614a1a610140850182613e3e565b5060c087013561016084015260e08701356101808401526001600160a01b038616604084015290506060820193909352608001529392505050565b6001600160a01b038916815287602082015286604082015260e060608201525f614a8360e083018789614848565b90506001600160a01b03851660808301526001600160a01b03841660a0830152614aac83613e07565b8260c08301529998505050505050505050565b6001600160a01b03841681526101a08101614add6020830185613e47565b6001600160a01b038316610180830152949350505050565b6001600160a01b03851681526101c08101614b136020830186613e47565b6001600160a01b038416610180830152614b2c83613e07565b826101a083015295945050505050565b602081525f610b8e602083018486614848565b5f82518060208501845e5f920191825250919050565b6001600160a01b03851681526001600160a01b0384166020820152826040820152608060608201525f614b9b6080830184613c06565b9695505050505050565b5f60208284031215614bb5575f5ffd5b8151610dfc81613bbe56fea26469706673582212201d18d88cb83c25b12507018bfd15e1f6c8b15c87a6b0ed467a06b6f05ca539d464736f6c634300081e0033","linkReferences":{"src/libraries/BullaClaimValidationLib.sol":{"BullaClaimValidationLib":[{"start":8203,"length":20},{"start":9212,"length":20},{"start":10484,"length":20},{"start":11311,"length":20},{"start":11710,"length":20},{"start":12166,"length":20}]}}},"methodIdentifiers":{"CORE_PROTOCOL_FEE()":"8204c627","addToPaidCallbackWhitelist(address,bytes4)":"cbe5a9af","approvalRegistry()":"64af6692","approve(address,uint256)":"095ea7b3","approveFrom(address,address,uint256)":"52ec8529","balanceOf(address)":"70a08231","cancelClaim(uint256,string)":"c07cae88","cancelClaimFrom(address,uint256,string)":"708cf832","claimMetadata(uint256)":"6d928375","claimMetadataGenerator()":"b8f34269","createClaim((address,address,uint256,string,address,uint8,uint256,uint256))":"185a34f2","createClaimFrom(address,(address,address,uint256,string,address,uint8,uint256,uint256))":"1461f126","createClaimWithMetadata((address,address,uint256,string,address,uint8,uint256,uint256),(string,string))":"c1e04045","createClaimWithMetadataFrom(address,(address,address,uint256,string,address,uint8,uint256,uint256),(string,string))":"004b3829","currentClaimId()":"72806c5a","feeExemptions()":"01a2cae8","getApproved(uint256)":"081812fc","getClaim(uint256)":"5aef2447","getPaidClaimCallback(uint256)":"d6700bef","impairClaim(uint256)":"28f60a7c","impairClaimFrom(address,uint256)":"3081ed8a","isApprovedForAll(address,address)":"e985e9c5","isPaidCallbackWhitelisted(address,bytes4)":"7649d6de","lockState()":"46be9c48","markClaimAsPaid(uint256)":"1cecb254","markClaimAsPaidFrom(address,uint256)":"2a982aeb","name()":"06fdde03","owner()":"8da5cb5b","ownerOf(uint256)":"6352211e","paidCallbackWhitelist(address,bytes4)":"ea73e11f","payClaim(uint256,uint256)":"c99c4448","payClaimFrom(address,uint256,uint256)":"ba9a8094","payClaimFromControllerWithoutTransfer(address,uint256,uint256)":"008c1075","removeFromPaidCallbackWhitelist(address,bytes4)":"3cc92b99","renounceOwnership()":"715018a6","safeTransferFrom(address,address,uint256)":"42842e0e","safeTransferFrom(address,address,uint256,bytes)":"b88d4fde","safeTransferFromFrom(address,address,address,uint256,bytes)":"fcf391e0","setApprovalForAll(address,bool)":"a22cb465","setClaimMetadataGenerator(address)":"d3e39750","setCoreProtocolFee(uint256)":"20d436d3","setFeeExemptions(address)":"083c8182","setLockState(uint8)":"43d073bb","setPaidClaimCallback(uint256,address,bytes4)":"a94c68df","setPaidClaimCallbackFrom(address,uint256,address,bytes4)":"e9c1d0c0","supportsInterface(bytes4)":"01ffc9a7","symbol()":"95d89b41","tokenURI(uint256)":"c87b56dd","transferFrom(address,address,uint256)":"23b872dd","transferFromFrom(address,address,address,uint256)":"af9fe4de","transferOwnership(address)":"f2fde38b","updateBinding(uint256,uint8)":"5edc84eb","updateBindingFrom(address,uint256,uint8)":"6418bde9","withdrawAllFees()":"af236af4"},"id":90}