{"abi":[{"type":"function","name":"getPermitCreateClaimDigest","inputs":[{"name":"controllerRegistry","type":"IBullaControllerRegistry","internalType":"contract IBullaControllerRegistry"},{"name":"user","type":"address","internalType":"address"},{"name":"controller","type":"address","internalType":"address"},{"name":"approvalType","type":"CreateClaimApprovalType","internalType":"enum CreateClaimApprovalType"},{"name":"approvalCount","type":"uint64","internalType":"uint64"},{"name":"isBindingAllowed","type":"bool","internalType":"bool"},{"name":"nonce","type":"uint64","internalType":"uint64"}],"outputs":[{"name":"","type":"bytes32","internalType":"bytes32"}],"stateMutability":"view"},{"type":"function","name":"getPermitCreateClaimMessage","inputs":[{"name":"controllerRegistry","type":"IBullaControllerRegistry","internalType":"contract IBullaControllerRegistry"},{"name":"controller","type":"address","internalType":"address"},{"name":"approvalType","type":"CreateClaimApprovalType","internalType":"enum CreateClaimApprovalType"},{"name":"approvalCount","type":"uint64","internalType":"uint64"},{"name":"isBindingAllowed","type":"bool","internalType":"bool"}],"outputs":[{"name":"","type":"string","internalType":"string"}],"stateMutability":"view"},{"type":"event","name":"CreateClaimApproved","inputs":[{"name":"user","type":"address","indexed":true,"internalType":"address"},{"name":"controller","type":"address","indexed":true,"internalType":"address"},{"name":"approvalType","type":"uint8","indexed":true,"internalType":"enum CreateClaimApprovalType"},{"name":"approvalCount","type":"uint256","indexed":false,"internalType":"uint256"},{"name":"isBindingAllowed","type":"bool","indexed":false,"internalType":"bool"},{"name":"nonce","type":"uint256","indexed":false,"internalType":"uint256"}],"anonymous":false},{"type":"error","name":"InvalidApproval","inputs":[]},{"type":"error","name":"InvalidSignature","inputs":[]},{"type":"error","name":"StringsInsufficientHexLength","inputs":[{"name":"value","type":"uint256","internalType":"uint256"},{"name":"length","type":"uint256","internalType":"uint256"}]}],"bytecode":{"object":"0x6118dc610034600b8282823980515f1a607314602857634e487b7160e01b5f525f60045260245ffd5b305f52607381538281f3fe7300000000000000000000000000000000000000003014608060405260043610610055575f3560e01c80634bec051c14610059578063656cba8814610082578063b0a531a9146100a3578063b2f4bc39146100c4575b5f5ffd5b61006c610067366004610fc6565b6100e3565b6040516100799190611077565b60405180910390f35b81801561008d575f5ffd5b506100a161009c366004611089565b61041e565b005b6100b66100b13660046110f6565b6106e0565b604051908152602001610079565b8180156100cf575f5ffd5b506100a16100de36600461117d565b610753565b60605f8367ffffffffffffffff16116101e8576040517fda84f08100000000000000000000000000000000000000000000000000000000815273ffffffffffffffffffffffffffffffffffffffff868116600483015287169063da84f081906024015f60405180830381865afa15801561015f573d5f5f3e3d5ffd5b505050506040513d5f823e601f3d9081017fffffffffffffffffffffffffffffffffffffffffffffffffffffffffffffffe01682016040526101a4919081019061129b565b6101c38673ffffffffffffffffffffffffffffffffffffffff16610861565b6040516020016101d49291906113a2565b604051602081830303815290604052610414565b6040517fda84f08100000000000000000000000000000000000000000000000000000000815273ffffffffffffffffffffffffffffffffffffffff868116600483015287169063da84f081906024015f60405180830381865afa158015610251573d5f5f3e3d5ffd5b505050506040513d5f823e601f3d9081017fffffffffffffffffffffffffffffffffffffffffffffffffffffffffffffffe0168201604052610296919081019061129b565b6102b58673ffffffffffffffffffffffffffffffffffffffff16610861565b7fffffffffffffffffffffffffffffffffffffffffffffffff000000000000000167ffffffffffffffff8616016102fa5760405180602001604052805f81525061032d565b61030d8567ffffffffffffffff1661088a565b60405160200161031d919061147e565b6040516020818303038152906040525b6001876003811115610341576103416114b6565b0361035a5760405180602001604052805f8152506103f1565b8461039a576040518060400160405280600181526020017f2e000000000000000000000000000000000000000000000000000000000000008152506103d1565b6040518060400160405280601681526020017f207468617420492063616e6e6f742072656a6563742e000000000000000000008152505b6040516020016103e191906114e3565b6040516020818303038152906040525b604051602001610404949392919061153a565b6040516020818303038152906040525b9695505050505050565b5f836003811115610431576104316114b6565b036104f7575f8267ffffffffffffffff16118061044b5750805b15610482576040517f1f3e0de800000000000000000000000000000000000000000000000000000000815260040160405180910390fd5b85546a0100000000000000000000900467ffffffffffffffff1686600a6104a883611683565b825467ffffffffffffffff9182166101009390930a92830291909202199091161790555085547fffffffffffffffffffffffffffffffffffffffffffff0000000000000000000016865561064c565b8167ffffffffffffffff165f0361053a576040517f1f3e0de800000000000000000000000000000000000000000000000000000000815260040160405180910390fd5b85546a0100000000000000000000900467ffffffffffffffff1686600a61056083611683565b825467ffffffffffffffff91821661010093840a908102920219161790915587548315157fffffffffffffffffffffffffffffffffffffffffffffffffffffffffffffff00821681178a5586935089927fffffffffffffffffffffffffffffffffffffffffffffffffffffffffffff00ff9091167fffffffffffffffffffffffffffffffffffffffffffffffffffffffffffff0000909216919091179083600381111561060f5761060f6114b6565b021790555085547fffffffffffffffffffffffffffffffffffffffffffff0000000000000000ffff166201000067ffffffffffffffff8416021786555b82600381111561065e5761065e6114b6565b86546040805167ffffffffffffffff868116825285151560208301526a0100000000000000000000909304909216828201525173ffffffffffffffffffffffffffffffffffffffff87811692908916917f41133cb9ff74fcb4b207e90c7d8629aa505d6145e4c491b7806f45731fd2a2ce9181900360600190a4505050505050565b5f6040518060c001604052806098815260200161180f609891398051906020012087876107108b8a8a8a8a6100e3565b8051602091820120604051610730959493928b918b918b918b91016116af565b604051602081830303815290604052805190602001209050979650505050505050565b89546a0100000000000000000000900467ffffffffffffffff165f8961077e8c8b8b8b8b8b896106e0565b6040517f190100000000000000000000000000000000000000000000000000000000000060208201526022810192909252604282015260620160405160208183030381529060405280519060200120905061080f898286868080601f0160208091040260200160405190810160405280939291908181526020018383808284375f9201919091525061094692505050565b610845576040517f8baa579f00000000000000000000000000000000000000000000000000000000815260040160405180910390fd5b6108538c8a8a8a8a8a61041e565b505050505050505050505050565b606061088473ffffffffffffffffffffffffffffffffffffffff831660146109e0565b92915050565b60605f61089683610c04565b60010190505f8167ffffffffffffffff8111156108b5576108b561126e565b6040519080825280601f01601f1916602001820160405280156108df576020820181803683370190505b5090508181016020015b7fffffffffffffffffffffffffffffffffffffffffffffffffffffffffffffffff017f3031323334353637383961626364656600000000000000000000000000000000600a86061a8153600a85049450846108e957509392505050565b5f8373ffffffffffffffffffffffffffffffffffffffff163b5f036109cb575f5f6109718585610ce5565b5090925090505f81600381111561098a5761098a6114b6565b1480156109c257508573ffffffffffffffffffffffffffffffffffffffff168273ffffffffffffffffffffffffffffffffffffffff16145b925050506109d9565b6109d6848484610d2e565b90505b9392505050565b6060825f6109ef846002611749565b6109fa906002611760565b67ffffffffffffffff811115610a1257610a1261126e565b6040519080825280601f01601f191660200182016040528015610a3c576020820181803683370190505b5090507f3000000000000000000000000000000000000000000000000000000000000000815f81518110610a7257610a72611773565b60200101907effffffffffffffffffffffffffffffffffffffffffffffffffffffffffffff191690815f1a9053507f780000000000000000000000000000000000000000000000000000000000000081600181518110610ad457610ad4611773565b60200101907effffffffffffffffffffffffffffffffffffffffffffffffffffffffffffff191690815f1a9053505f610b0e856002611749565b610b19906001611760565b90505b6001811115610bb5577f303132333435363738396162636465660000000000000000000000000000000083600f1660108110610b5a57610b5a611773565b1a60f81b828281518110610b7057610b70611773565b60200101907effffffffffffffffffffffffffffffffffffffffffffffffffffffffffffff191690815f1a90535060049290921c91610bae816117a0565b9050610b1c565b508115610bfc576040517fe22e27eb000000000000000000000000000000000000000000000000000000008152600481018690526024810185905260440160405180910390fd5b949350505050565b5f807a184f03e93ff9f4daa797ed6e38ed64bf6a1f0100000000000000008310610c4c577a184f03e93ff9f4daa797ed6e38ed64bf6a1f010000000000000000830492506040015b6d04ee2d6d415b85acef81000000008310610c78576d04ee2d6d415b85acef8100000000830492506020015b662386f26fc100008310610c9657662386f26fc10000830492506010015b6305f5e1008310610cae576305f5e100830492506008015b6127108310610cc257612710830492506004015b60648310610cd4576064830492506002015b600a83106108845760010192915050565b5f5f5f8351604103610d1c576020840151604085015160608601515f1a610d0e88828585610e76565b955095509550505050610d27565b505081515f91506002905b9250925092565b5f5f5f8573ffffffffffffffffffffffffffffffffffffffff168585604051602401610d5b9291906117d4565b604080517fffffffffffffffffffffffffffffffffffffffffffffffffffffffffffffffe08184030181529181526020820180517bffffffffffffffffffffffffffffffffffffffffffffffffffffffff167f1626ba7e0000000000000000000000000000000000000000000000000000000017905251610ddc91906117ec565b5f60405180830381855afa9150503d805f8114610e14576040519150601f19603f3d011682016040523d82523d5f602084013e610e19565b606091505b5091509150818015610e2d57506020815110155b8015610414575080517f1626ba7e0000000000000000000000000000000000000000000000000000000090610e6b90830160209081019084016117f7565b149695505050505050565b5f80807f7fffffffffffffffffffffffffffffff5d576e7357a4501ddfe92f46681b20a0841115610eaf57505f91506003905082610f5f565b604080515f808252602082018084528a905260ff891692820192909252606081018790526080810186905260019060a0016020604051602081039080840390855afa158015610f00573d5f5f3e3d5ffd5b50506040517fffffffffffffffffffffffffffffffffffffffffffffffffffffffffffffffe0015191505073ffffffffffffffffffffffffffffffffffffffff8116610f5657505f925060019150829050610f5f565b92505f91508190505b9450945094915050565b73ffffffffffffffffffffffffffffffffffffffff81168114610f8a575f5ffd5b50565b803560048110610f9b575f5ffd5b919050565b803567ffffffffffffffff81168114610f9b575f5ffd5b80358015158114610f9b575f5ffd5b5f5f5f5f5f60a08688031215610fda575f5ffd5b8535610fe581610f69565b94506020860135610ff581610f69565b935061100360408701610f8d565b925061101160608701610fa0565b915061101f60808701610fb7565b90509295509295909350565b5f81518084528060208401602086015e5f6020828601015260207fffffffffffffffffffffffffffffffffffffffffffffffffffffffffffffffe0601f83011685010191505092915050565b602081525f6109d9602083018461102b565b5f5f5f5f5f5f60c0878903121561109e575f5ffd5b8635955060208701356110b081610f69565b945060408701356110c081610f69565b93506110ce60608801610f8d565b92506110dc60808801610fa0565b91506110ea60a08801610fb7565b90509295509295509295565b5f5f5f5f5f5f5f60e0888a03121561110c575f5ffd5b873561111781610f69565b9650602088013561112781610f69565b9550604088013561113781610f69565b945061114560608901610f8d565b935061115360808901610fa0565b925061116160a08901610fb7565b915061116f60c08901610fa0565b905092959891949750929550565b5f5f5f5f5f5f5f5f5f5f6101208b8d031215611197575f5ffd5b8a35995060208b01356111a981610f69565b985060408b0135975060608b01356111c081610f69565b965060808b01356111d081610f69565b95506111de60a08c01610f8d565b94506111ec60c08c01610fa0565b93506111fa60e08c01610fb7565b92506101008b013567ffffffffffffffff811115611216575f5ffd5b8b015f80601f83018f13611228575f5ffd5b50813567ffffffffffffffff81111561123f575f5ffd5b6020830191508e6020828501011115611256575f5ffd5b8194508093505050509295989b9194979a5092959850565b7f4e487b71000000000000000000000000000000000000000000000000000000005f52604160045260245ffd5b5f602082840312156112ab575f5ffd5b815167ffffffffffffffff8111156112c1575f5ffd5b8201601f810184136112d1575f5ffd5b805167ffffffffffffffff8111156112eb576112eb61126e565b6040517fffffffffffffffffffffffffffffffffffffffffffffffffffffffffffffffe0603f7fffffffffffffffffffffffffffffffffffffffffffffffffffffffffffffffe0601f8501160116810181811067ffffffffffffffff821117156113575761135761126e565b60405281815282820160200186101561136e575f5ffd5b8160208401602083015e5f91810160200191909152949350505050565b5f81518060208401855e5f93019283525090919050565b7f49207265766f6b6520617070726f76616c20666f722074686520666f6c6c6f7781527f696e6720636f6e74726163743a2000000000000000000000000000000000000060208201525f6113f9602e83018561138b565b7f20280000000000000000000000000000000000000000000000000000000000008152611429600282018561138b565b7f292000000000000000000000000000000000000000000000000000000000000081527f746f2063726561746520636c61696d73206f6e206d7920626568616c662e0000600282015260200195945050505050565b5f611489828461138b565b7f200000000000000000000000000000000000000000000000000000000000000081526001019392505050565b7f4e487b71000000000000000000000000000000000000000000000000000000005f52602160045260245ffd5b7f20492061636b6e6f776c656467652074686174207468697320636f6e7472616381527f74206d617920696e64656274206d65206f6e20636c61696d730000000000000060208201525f6109d9603983018461138b565b7f4920617070726f76652074686520666f6c6c6f77696e6720636f6e747261637481527f3a2000000000000000000000000000000000000000000000000000000000000060208201525f611591602283018761138b565b7f202800000000000000000000000000000000000000000000000000000000000081526115c1600282018761138b565b90507f292000000000000000000000000000000000000000000000000000000000000081527f746f2063726561746520000000000000000000000000000000000000000000006002820152611619600c82018661138b565b90507f636c61696d73206f6e206d7920626568616c662e000000000000000000000000815261164b601482018561138b565b979650505050505050565b7f4e487b71000000000000000000000000000000000000000000000000000000005f52601160045260245ffd5b5f67ffffffffffffffff821667ffffffffffffffff81036116a6576116a6611656565b60010192915050565b88815273ffffffffffffffffffffffffffffffffffffffff88811660208301528716604082015260608101869052610100810160048610611717577f4e487b71000000000000000000000000000000000000000000000000000000005f52602160045260245ffd5b608082019590955267ffffffffffffffff93841660a082015291151560c083015290911660e090910152949350505050565b808202811582820484141761088457610884611656565b8082018082111561088457610884611656565b7f4e487b71000000000000000000000000000000000000000000000000000000005f52603260045260245ffd5b5f816117ae576117ae611656565b507fffffffffffffffffffffffffffffffffffffffffffffffffffffffffffffffff0190565b828152604060208201525f610bfc604083018461102b565b5f6109d9828461138b565b5f60208284031215611807575f5ffd5b505191905056fe417070726f7665437265617465436c61696d457874656e73696f6e286164647265737320757365722c6164647265737320636f6e74726f6c6c65722c737472696e67206d6573736167652c75696e743820617070726f76616c547970652c75696e7432353620617070726f76616c436f756e742c626f6f6c20697342696e64696e67416c6c6f7765642c75696e74323536206e6f6e636529a2646970667358221220e506a490799988ea1703d030f7c6a3c4526d7e2aef448025ef0629c49c582bb064736f6c634300081e0033","linkReferences":{}},"methodIdentifiers":{"approveCreateClaim(Approvals storage,address,address,CreateClaimApprovalType,uint64,bool)":"656cba88","getPermitCreateClaimDigest(IBullaControllerRegistry,address,address,CreateClaimApprovalType,uint64,bool,uint64)":"b0a531a9","getPermitCreateClaimMessage(IBullaControllerRegistry,address,CreateClaimApprovalType,uint64,bool)":"4bec051c","permitCreateClaim(Approvals storage,IBullaControllerRegistry,bytes32,address,address,CreateClaimApprovalType,uint64,bool,bytes)":"b2f4bc39"},"id":108}