{"abi":[{"type":"constructor","inputs":[{"name":"bullaClaim","type":"address","internalType":"address"},{"name":"_owner","type":"address","internalType":"address"},{"name":"_protocolFeeBPS","type":"uint16","internalType":"uint16"},{"name":"_processingFeeBPS","type":"uint16","internalType":"uint16"}],"stateMutability":"nonpayable"},{"type":"function","name":"DOMAIN_SEPARATOR","inputs":[],"outputs":[{"name":"","type":"bytes32","internalType":"bytes32"}],"stateMutability":"view"},{"type":"function","name":"_bullaClaim","inputs":[],"outputs":[{"name":"","type":"address","internalType":"contract IBullaClaimV2"}],"stateMutability":"view"},{"type":"function","name":"acceptLoan","inputs":[{"name":"offerId","type":"uint256","internalType":"uint256"}],"outputs":[{"name":"","type":"uint256","internalType":"uint256"}],"stateMutability":"payable"},{"type":"function","name":"acceptLoanWithReceiver","inputs":[{"name":"offerId","type":"uint256","internalType":"uint256"},{"name":"receiver","type":"address","internalType":"address"}],"outputs":[{"name":"","type":"uint256","internalType":"uint256"}],"stateMutability":"payable"},{"type":"function","name":"addToCallbackWhitelist","inputs":[{"name":"callbackContract","type":"address","internalType":"address"},{"name":"selector","type":"bytes4","internalType":"bytes4"}],"outputs":[],"stateMutability":"nonpayable"},{"type":"function","name":"addToFeeTokenWhitelist","inputs":[{"name":"token","type":"address","internalType":"address"}],"outputs":[],"stateMutability":"nonpayable"},{"type":"function","name":"admin","inputs":[],"outputs":[{"name":"","type":"address","internalType":"address"}],"stateMutability":"view"},{"type":"function","name":"approve","inputs":[{"name":"to","type":"address","internalType":"address"},{"name":"tokenId","type":"uint256","internalType":"uint256"}],"outputs":[],"stateMutability":"nonpayable"},{"type":"function","name":"balanceOf","inputs":[{"name":"owner","type":"address","internalType":"address"}],"outputs":[{"name":"","type":"uint256","internalType":"uint256"}],"stateMutability":"view"},{"type":"function","name":"callbackWhitelist","inputs":[{"name":"","type":"address","internalType":"address"},{"name":"","type":"bytes4","internalType":"bytes4"}],"outputs":[{"name":"","type":"bool","internalType":"bool"}],"stateMutability":"view"},{"type":"function","name":"getApproved","inputs":[{"name":"tokenId","type":"uint256","internalType":"uint256"}],"outputs":[{"name":"","type":"address","internalType":"address"}],"stateMutability":"view"},{"type":"function","name":"getLoan","inputs":[{"name":"claimId","type":"uint256","internalType":"uint256"}],"outputs":[{"name":"","type":"tuple","internalType":"struct Loan","components":[{"name":"claimAmount","type":"uint256","internalType":"uint256"},{"name":"paidAmount","type":"uint256","internalType":"uint256"},{"name":"status","type":"uint8","internalType":"enum Status"},{"name":"binding","type":"uint8","internalType":"enum ClaimBinding"},{"name":"debtor","type":"address","internalType":"address"},{"name":"creditor","type":"address","internalType":"address"},{"name":"token","type":"address","internalType":"address"},{"name":"controller","type":"address","internalType":"address"},{"name":"dueBy","type":"uint256","internalType":"uint256"},{"name":"acceptedAt","type":"uint256","internalType":"uint256"},{"name":"interestConfig","type":"tuple","internalType":"struct InterestConfig","components":[{"name":"interestRateBps","type":"uint16","internalType":"uint16"},{"name":"numberOfPeriodsPerYear","type":"uint16","internalType":"uint16"}]},{"name":"interestComputationState","type":"tuple","internalType":"struct InterestComputationState","components":[{"name":"accruedInterest","type":"uint256","internalType":"uint256"},{"name":"latestPeriodNumber","type":"uint256","internalType":"uint256"},{"name":"protocolFeeBps","type":"uint16","internalType":"uint16"},{"name":"totalGrossInterestPaid","type":"uint256","internalType":"uint256"}]}]}],"stateMutability":"view"},{"type":"function","name":"getLoanOffer","inputs":[{"name":"offerId","type":"uint256","internalType":"uint256"}],"outputs":[{"name":"","type":"tuple","internalType":"struct LoanOffer","components":[{"name":"params","type":"tuple","internalType":"struct LoanRequestParams","components":[{"name":"termLength","type":"uint256","internalType":"uint256"},{"name":"interestConfig","type":"tuple","internalType":"struct InterestConfig","components":[{"name":"interestRateBps","type":"uint16","internalType":"uint16"},{"name":"numberOfPeriodsPerYear","type":"uint16","internalType":"uint16"}]},{"name":"loanAmount","type":"uint256","internalType":"uint256"},{"name":"creditor","type":"address","internalType":"address"},{"name":"debtor","type":"address","internalType":"address"},{"name":"description","type":"string","internalType":"string"},{"name":"token","type":"address","internalType":"address"},{"name":"impairmentGracePeriod","type":"uint256","internalType":"uint256"},{"name":"expiresAt","type":"uint256","internalType":"uint256"},{"name":"callbackContract","type":"address","internalType":"address"},{"name":"callbackSelector","type":"bytes4","internalType":"bytes4"}]},{"name":"requestedByCreditor","type":"bool","internalType":"bool"}]}],"stateMutability":"view"},{"type":"function","name":"getLoanOfferMetadata","inputs":[{"name":"offerId","type":"uint256","internalType":"uint256"}],"outputs":[{"name":"","type":"tuple","internalType":"struct ClaimMetadata","components":[{"name":"tokenURI","type":"string","internalType":"string"},{"name":"attachmentURI","type":"string","internalType":"string"}]}],"stateMutability":"view"},{"type":"function","name":"getTotalAmountDue","inputs":[{"name":"claimId","type":"uint256","internalType":"uint256"}],"outputs":[{"name":"remainingPrincipal","type":"uint256","internalType":"uint256"},{"name":"grossInterest","type":"uint256","internalType":"uint256"}],"stateMutability":"view"},{"type":"function","name":"impairLoan","inputs":[{"name":"claimId","type":"uint256","internalType":"uint256"}],"outputs":[],"stateMutability":"nonpayable"},{"type":"function","name":"isApprovedForAll","inputs":[{"name":"owner","type":"address","internalType":"address"},{"name":"operator","type":"address","internalType":"address"}],"outputs":[{"name":"","type":"bool","internalType":"bool"}],"stateMutability":"view"},{"type":"function","name":"isCallbackWhitelisted","inputs":[{"name":"callbackContract","type":"address","internalType":"address"},{"name":"selector","type":"bytes4","internalType":"bytes4"}],"outputs":[{"name":"","type":"bool","internalType":"bool"}],"stateMutability":"view"},{"type":"function","name":"loanOfferNonces","inputs":[{"name":"","type":"address","internalType":"address"}],"outputs":[{"name":"","type":"uint256","internalType":"uint256"}],"stateMutability":"view"},{"type":"function","name":"markLoanAsPaid","inputs":[{"name":"claimId","type":"uint256","internalType":"uint256"}],"outputs":[],"stateMutability":"nonpayable"},{"type":"function","name":"offerLoan","inputs":[{"name":"offer","type":"tuple","internalType":"struct LoanRequestParams","components":[{"name":"termLength","type":"uint256","internalType":"uint256"},{"name":"interestConfig","type":"tuple","internalType":"struct InterestConfig","components":[{"name":"interestRateBps","type":"uint16","internalType":"uint16"},{"name":"numberOfPeriodsPerYear","type":"uint16","internalType":"uint16"}]},{"name":"loanAmount","type":"uint256","internalType":"uint256"},{"name":"creditor","type":"address","internalType":"address"},{"name":"debtor","type":"address","internalType":"address"},{"name":"description","type":"string","internalType":"string"},{"name":"token","type":"address","internalType":"address"},{"name":"impairmentGracePeriod","type":"uint256","internalType":"uint256"},{"name":"expiresAt","type":"uint256","internalType":"uint256"},{"name":"callbackContract","type":"address","internalType":"address"},{"name":"callbackSelector","type":"bytes4","internalType":"bytes4"}]}],"outputs":[{"name":"","type":"uint256","internalType":"uint256"}],"stateMutability":"nonpayable"},{"type":"function","name":"offerLoanWithMetadata","inputs":[{"name":"offer","type":"tuple","internalType":"struct LoanRequestParams","components":[{"name":"termLength","type":"uint256","internalType":"uint256"},{"name":"interestConfig","type":"tuple","internalType":"struct InterestConfig","components":[{"name":"interestRateBps","type":"uint16","internalType":"uint16"},{"name":"numberOfPeriodsPerYear","type":"uint16","internalType":"uint16"}]},{"name":"loanAmount","type":"uint256","internalType":"uint256"},{"name":"creditor","type":"address","internalType":"address"},{"name":"debtor","type":"address","internalType":"address"},{"name":"description","type":"string","internalType":"string"},{"name":"token","type":"address","internalType":"address"},{"name":"impairmentGracePeriod","type":"uint256","internalType":"uint256"},{"name":"expiresAt","type":"uint256","internalType":"uint256"},{"name":"callbackContract","type":"address","internalType":"address"},{"name":"callbackSelector","type":"bytes4","internalType":"bytes4"}]},{"name":"metadata","type":"tuple","internalType":"struct ClaimMetadata","components":[{"name":"tokenURI","type":"string","internalType":"string"},{"name":"attachmentURI","type":"string","internalType":"string"}]}],"outputs":[{"name":"","type":"uint256","internalType":"uint256"}],"stateMutability":"nonpayable"},{"type":"function","name":"owner","inputs":[],"outputs":[{"name":"","type":"address","internalType":"address"}],"stateMutability":"view"},{"type":"function","name":"ownerOf","inputs":[{"name":"tokenId","type":"uint256","internalType":"uint256"}],"outputs":[{"name":"","type":"address","internalType":"address"}],"stateMutability":"view"},{"type":"function","name":"payLoan","inputs":[{"name":"claimId","type":"uint256","internalType":"uint256"},{"name":"paymentAmount","type":"uint256","internalType":"uint256"}],"outputs":[],"stateMutability":"nonpayable"},{"type":"function","name":"processingFeeBPS","inputs":[],"outputs":[{"name":"","type":"uint16","internalType":"uint16"}],"stateMutability":"view"},{"type":"function","name":"protocolFeeBPS","inputs":[],"outputs":[{"name":"","type":"uint16","internalType":"uint16"}],"stateMutability":"view"},{"type":"function","name":"protocolFeeTokenWhitelist","inputs":[{"name":"","type":"address","internalType":"address"}],"outputs":[{"name":"","type":"bool","internalType":"bool"}],"stateMutability":"view"},{"type":"function","name":"protocolFeesByToken","inputs":[{"name":"","type":"address","internalType":"address"}],"outputs":[{"name":"","type":"uint256","internalType":"uint256"}],"stateMutability":"view"},{"type":"function","name":"rejectLoanOffer","inputs":[{"name":"offerId","type":"uint256","internalType":"uint256"}],"outputs":[],"stateMutability":"nonpayable"},{"type":"function","name":"removeFromCallbackWhitelist","inputs":[{"name":"callbackContract","type":"address","internalType":"address"},{"name":"selector","type":"bytes4","internalType":"bytes4"}],"outputs":[],"stateMutability":"nonpayable"},{"type":"function","name":"removeFromFeeTokenWhitelist","inputs":[{"name":"token","type":"address","internalType":"address"}],"outputs":[],"stateMutability":"nonpayable"},{"type":"function","name":"renounceOwnership","inputs":[],"outputs":[],"stateMutability":"nonpayable"},{"type":"function","name":"safeTransferFrom","inputs":[{"name":"from","type":"address","internalType":"address"},{"name":"to","type":"address","internalType":"address"},{"name":"tokenId","type":"uint256","internalType":"uint256"}],"outputs":[],"stateMutability":"nonpayable"},{"type":"function","name":"safeTransferFrom","inputs":[{"name":"from","type":"address","internalType":"address"},{"name":"to","type":"address","internalType":"address"},{"name":"tokenId","type":"uint256","internalType":"uint256"},{"name":"data","type":"bytes","internalType":"bytes"}],"outputs":[],"stateMutability":"nonpayable"},{"type":"function","name":"setApprovalForAll","inputs":[{"name":"operator","type":"address","internalType":"address"},{"name":"approved","type":"bool","internalType":"bool"}],"outputs":[],"stateMutability":"nonpayable"},{"type":"function","name":"setPaidLoanCallback","inputs":[{"name":"loanId","type":"uint256","internalType":"uint256"},{"name":"callbackContract","type":"address","internalType":"address"},{"name":"callbackSelector","type":"bytes4","internalType":"bytes4"}],"outputs":[],"stateMutability":"nonpayable"},{"type":"function","name":"setProcessingFee","inputs":[{"name":"_processingFeeBPS","type":"uint16","internalType":"uint16"}],"outputs":[],"stateMutability":"nonpayable"},{"type":"function","name":"setProtocolFee","inputs":[{"name":"_protocolFeeBPS","type":"uint16","internalType":"uint16"}],"outputs":[],"stateMutability":"nonpayable"},{"type":"function","name":"supportsInterface","inputs":[{"name":"interfaceId","type":"bytes4","internalType":"bytes4"}],"outputs":[{"name":"","type":"bool","internalType":"bool"}],"stateMutability":"view"},{"type":"function","name":"transferFrom","inputs":[{"name":"from","type":"address","internalType":"address"},{"name":"to","type":"address","internalType":"address"},{"name":"tokenId","type":"uint256","internalType":"uint256"}],"outputs":[],"stateMutability":"nonpayable"},{"type":"function","name":"transferOwnership","inputs":[{"name":"newOwner","type":"address","internalType":"address"}],"outputs":[],"stateMutability":"nonpayable"},{"type":"function","name":"whitelistedProtocolFeeTokens","inputs":[{"name":"","type":"uint256","internalType":"uint256"}],"outputs":[{"name":"","type":"address","internalType":"address"}],"stateMutability":"view"},{"type":"function","name":"withdrawAllFees","inputs":[],"outputs":[],"stateMutability":"nonpayable"},{"type":"event","name":"Approval","inputs":[{"name":"owner","type":"address","indexed":true,"internalType":"address"},{"name":"approved","type":"address","indexed":true,"internalType":"address"},{"name":"tokenId","type":"uint256","indexed":true,"internalType":"uint256"}],"anonymous":false},{"type":"event","name":"ApprovalForAll","inputs":[{"name":"owner","type":"address","indexed":true,"internalType":"address"},{"name":"operator","type":"address","indexed":true,"internalType":"address"},{"name":"approved","type":"bool","indexed":false,"internalType":"bool"}],"anonymous":false},{"type":"event","name":"CallbackRemovedFromWhitelist","inputs":[{"name":"callbackContract","type":"address","indexed":true,"internalType":"address"},{"name":"selector","type":"bytes4","indexed":true,"internalType":"bytes4"}],"anonymous":false},{"type":"event","name":"CallbackWhitelisted","inputs":[{"name":"callbackContract","type":"address","indexed":true,"internalType":"address"},{"name":"selector","type":"bytes4","indexed":true,"internalType":"bytes4"}],"anonymous":false},{"type":"event","name":"FeeWithdrawn","inputs":[{"name":"admin","type":"address","indexed":true,"internalType":"address"},{"name":"token","type":"address","indexed":true,"internalType":"address"},{"name":"amount","type":"uint256","indexed":false,"internalType":"uint256"}],"anonymous":false},{"type":"event","name":"LoanOfferAccepted","inputs":[{"name":"offerId","type":"uint256","indexed":true,"internalType":"uint256"},{"name":"claimId","type":"uint256","indexed":true,"internalType":"uint256"},{"name":"receiver","type":"address","indexed":true,"internalType":"address"},{"name":"fee","type":"uint256","indexed":false,"internalType":"uint256"},{"name":"processingFee","type":"uint256","indexed":false,"internalType":"uint256"},{"name":"metadata","type":"tuple","indexed":false,"internalType":"struct ClaimMetadata","components":[{"name":"tokenURI","type":"string","internalType":"string"},{"name":"attachmentURI","type":"string","internalType":"string"}]}],"anonymous":false},{"type":"event","name":"LoanOfferRejected","inputs":[{"name":"offerId","type":"uint256","indexed":true,"internalType":"uint256"},{"name":"rejectedBy","type":"address","indexed":true,"internalType":"address"}],"anonymous":false},{"type":"event","name":"LoanOffered","inputs":[{"name":"offerId","type":"uint256","indexed":true,"internalType":"uint256"},{"name":"offeredBy","type":"address","indexed":true,"internalType":"address"},{"name":"loanOffer","type":"tuple","indexed":false,"internalType":"struct LoanRequestParams","components":[{"name":"termLength","type":"uint256","internalType":"uint256"},{"name":"interestConfig","type":"tuple","internalType":"struct InterestConfig","components":[{"name":"interestRateBps","type":"uint16","internalType":"uint16"},{"name":"numberOfPeriodsPerYear","type":"uint16","internalType":"uint16"}]},{"name":"loanAmount","type":"uint256","internalType":"uint256"},{"name":"creditor","type":"address","internalType":"address"},{"name":"debtor","type":"address","internalType":"address"},{"name":"description","type":"string","internalType":"string"},{"name":"token","type":"address","internalType":"address"},{"name":"impairmentGracePeriod","type":"uint256","internalType":"uint256"},{"name":"expiresAt","type":"uint256","internalType":"uint256"},{"name":"callbackContract","type":"address","internalType":"address"},{"name":"callbackSelector","type":"bytes4","internalType":"bytes4"}]},{"name":"metadata","type":"tuple","indexed":false,"internalType":"struct ClaimMetadata","components":[{"name":"tokenURI","type":"string","internalType":"string"},{"name":"attachmentURI","type":"string","internalType":"string"}]}],"anonymous":false},{"type":"event","name":"LoanPayment","inputs":[{"name":"claimId","type":"uint256","indexed":true,"internalType":"uint256"},{"name":"grossInterestPaid","type":"uint256","indexed":false,"internalType":"uint256"},{"name":"principalPaid","type":"uint256","indexed":false,"internalType":"uint256"},{"name":"protocolFee","type":"uint256","indexed":false,"internalType":"uint256"}],"anonymous":false},{"type":"event","name":"OwnershipTransferred","inputs":[{"name":"previousOwner","type":"address","indexed":true,"internalType":"address"},{"name":"newOwner","type":"address","indexed":true,"internalType":"address"}],"anonymous":false},{"type":"event","name":"ProcessingFeeUpdated","inputs":[{"name":"oldFee","type":"uint16","indexed":false,"internalType":"uint16"},{"name":"newFee","type":"uint16","indexed":false,"internalType":"uint16"}],"anonymous":false},{"type":"event","name":"ProtocolFeeUpdated","inputs":[{"name":"oldFee","type":"uint16","indexed":false,"internalType":"uint16"},{"name":"newFee","type":"uint16","indexed":false,"internalType":"uint16"}],"anonymous":false},{"type":"event","name":"TokenAddedToFeesWhitelist","inputs":[{"name":"token","type":"address","indexed":true,"internalType":"address"}],"anonymous":false},{"type":"event","name":"TokenRemovedFromFeesWhitelist","inputs":[{"name":"token","type":"address","indexed":true,"internalType":"address"}],"anonymous":false},{"type":"event","name":"Transfer","inputs":[{"name":"from","type":"address","indexed":true,"internalType":"address"},{"name":"to","type":"address","indexed":true,"internalType":"address"},{"name":"tokenId","type":"uint256","indexed":true,"internalType":"uint256"}],"anonymous":false},{"type":"error","name":"CallbackFailed","inputs":[{"name":"data","type":"bytes","internalType":"bytes"}]},{"type":"error","name":"CallbackNotWhitelisted","inputs":[]},{"type":"error","name":"IncorrectFee","inputs":[]},{"type":"error","name":"InvalidGracePeriod","inputs":[]},{"type":"error","name":"InvalidProtocolFee","inputs":[]},{"type":"error","name":"InvalidTermLength","inputs":[]},{"type":"error","name":"LoanOfferExpired","inputs":[]},{"type":"error","name":"LoanOfferNotFound","inputs":[]},{"type":"error","name":"NativeTokenNotSupported","inputs":[]},{"type":"error","name":"NotController","inputs":[{"name":"sender","type":"address","internalType":"address"}]},{"type":"error","name":"NotCreditor","inputs":[]},{"type":"error","name":"NotCreditorOrDebtor","inputs":[]},{"type":"error","name":"NotDebtor","inputs":[]},{"type":"error","name":"OwnableInvalidOwner","inputs":[{"name":"owner","type":"address","internalType":"address"}]},{"type":"error","name":"OwnableUnauthorizedAccount","inputs":[{"name":"account","type":"address","internalType":"address"}]}],"bytecode":{"object":"0x60c060405234801561000f575f5ffd5b5060405161612b38038061612b83398101604081905261002e9161029a565b6001600160a01b038085166080528390811661006357604051631e4fbdf760e01b81525f600482015260240160405180910390fd5b61006c8161021f565b5061271061ffff8316111561009457604051631752ff0760e31b815260040160405180910390fd5b61271061ffff821611156100bb57604051631752ff0760e31b815260040160405180910390fd5b5f805461ffff838116600160b01b0261ffff60b01b19918616600160a01b029190911663ffffffff60a01b19909216919091171781556040805160608101825280820183815281528151602081810190935292835290810191909152805160099081906101289082610383565b506020820151600182019061013d9082610383565b5050604080518082018252601081526f213ab63630a33932b7322632b7322b1960811b6020918201528151808301835260018152603160f81b9082015281517f8b73c3c69bb8fe3d512ecc4cf759cc79239f7b179b0ffacaa9a75d522b39400f818301527f8dc1acfbbe3f9636b9847c9983a9c66cd5f42e49e0e480593e2f9a905028047c818401527fc89efdaa54c0f20c7adf612882df0950f5a951637e0307cdcb4c672f298b8bc660608201524660808201523060a08083019190915283518083038201815260c0909201909352805191012090525061043d9350505050565b5f80546001600160a01b038381166001600160a01b0319831681178455604051919092169283917f8be0079c531659141344cd1fd0a4f28419497f9722a3daafe3b4186f6b6457e09190a35050565b80516001600160a01b0381168114610284575f5ffd5b919050565b805161ffff81168114610284575f5ffd5b5f5f5f5f608085870312156102ad575f5ffd5b6102b68561026e565b93506102c46020860161026e565b92506102d260408601610289565b91506102e060608601610289565b905092959194509250565b634e487b7160e01b5f52604160045260245ffd5b600181811c9082168061031357607f821691505b60208210810361033157634e487b7160e01b5f52602260045260245ffd5b50919050565b601f82111561037e57805f5260205f20601f840160051c8101602085101561035c5750805b601f840160051c820191505b8181101561037b575f8155600101610368565b50505b505050565b81516001600160401b0381111561039c5761039c6102eb565b6103b0816103aa84546102ff565b84610337565b6020601f8211600181146103e2575f83156103cb5750848201515b5f19600385901b1c1916600184901b17845561037b565b5f84815260208120601f198516915b8281101561041157878501518255602094850194600190920191016103f1565b508482101561042e57868401515f19600387901b60f8161c191681555b50505050600190811b01905550565b60805160a051615c176105145f395f81816104ae0152612ce201525f818161043d01528181610a5801528181610afb01528181610bc201528181610c7101528181610d4001528181610f100152818161175c0152818161181301528181611aa001528181611b1101528181611d8801528181611e3f0152818161202601528181612197015281816123b10152818161252b015281816125dd01528181612a0301528181612a9f01528181612b8e015281816134ce015281816135db015281816136ea01528181613c6d0152613d230152615c175ff3fe6080604052600436106102d7575f3560e01c8063715018a61161017b578063af236af4116100d1578063e4467f3511610087578063f2fde38b11610062578063f2fde38b146108f1578063f851a440146106bc578063fce5f60814610910575f5ffd5b8063e4467f3514610894578063e985e9c5146108b3578063ea7d616b146108d2575f5ffd5b8063b9108c03116100b7578063b9108c0314610836578063d4251f9e14610849578063db4e089914610868575f5ffd5b8063af236af414610803578063b88d4fde14610817575f5ffd5b806396daa32211610131578063a5cc6a7f1161010c578063a5cc6a7f1461075a578063a64d6beb14610788578063adfbe22f146107f0575f5ffd5b806396daa322146106d8578063a15c24f31461071c578063a22cb4651461073b575f5ffd5b80638804614611610161578063880461461461067e57806389306e611461069d5780638da5cb5b146106bc575f5ffd5b8063715018a61461064b578063824599951461065f575f5ffd5b806339737e071161023057806352331cf8116101e6578063631f1a3c116101c1578063631f1a3c146105e15780636352211e1461060d57806370a082311461062c575f5ffd5b806352331cf8146105845780636208d89c146105a3578063623fb7ce146105c2575f5ffd5b80634be18e94116102165780634be18e941461051a578063504006ca14610539578063520eb07614610565575f5ffd5b806339737e07146104d057806342842e0e146104fb575f5ffd5b80631bc7cd3d116102905780632d1982ff1161026b5780632d1982ff1461045f578063307a80881461047e5780633644e5151461049d575f5ffd5b80631bc7cd3d146103d957806323b872dd1461040d5780632b538af51461042c575f5ffd5b8063081812fc116102c0578063081812fc14610348578063095ea7b31461037f5780630ca6c652146103a0575f5ffd5b806301ffc9a7146102db57806304dbf9131461030f575b5f5ffd5b3480156102e6575f5ffd5b506102fa6102f5366004614a0c565b610943565b60405190151581526020015b60405180910390f35b34801561031a575f5ffd5b506102fa610329366004614a46565b600460209081525f928352604080842090915290825290205460ff1681565b348015610353575f5ffd5b50610367610362366004614a7d565b610a27565b6040516001600160a01b039091168152602001610306565b34801561038a575f5ffd5b5061039e610399366004614a94565b610aca565b005b3480156103ab575f5ffd5b506103cb6103ba366004614abe565b60056020525f908152604090205481565b604051908152602001610306565b3480156103e4575f5ffd5b506103f86103f3366004614a7d565b610c1f565b60408051928352602083019190915201610306565b348015610418575f5ffd5b5061039e610427366004614ad9565b610c40565b348015610437575f5ffd5b506103677f000000000000000000000000000000000000000000000000000000000000000081565b34801561046a575f5ffd5b506103cb610479366004614b2e565b610d9f565b348015610489575f5ffd5b5061039e610498366004614a46565b610db9565b3480156104a8575f5ffd5b506103cb7f000000000000000000000000000000000000000000000000000000000000000081565b3480156104db575f5ffd5b506103cb6104ea366004614abe565b60026020525f908152604090205481565b348015610506575f5ffd5b5061039e610515366004614ad9565b610e95565b348015610525575f5ffd5b50610367610534366004614a7d565b610eaf565b348015610544575f5ffd5b50610558610553366004614a7d565b610ed7565b6040516103069190614bdf565b348015610570575f5ffd5b5061039e61057f366004614a46565b6111f0565b34801561058f575f5ffd5b5061039e61059e366004614d0c565b61128e565b3480156105ae575f5ffd5b5061039e6105bd366004614a7d565b611368565b3480156105cd575f5ffd5b5061039e6105dc366004614a7d565b61172b565b3480156105ec575f5ffd5b506106006105fb366004614a7d565b611877565b6040516103069190614d73565b348015610618575f5ffd5b50610367610627366004614a7d565b611a6f565b348015610637575f5ffd5b506103cb610646366004614abe565b611ad7565b348015610656575f5ffd5b5061039e611b7c565b34801561066a575f5ffd5b5061039e610679366004614abe565b611b8f565b348015610689575f5ffd5b5061039e610698366004614a7d565b611d57565b3480156106a8575f5ffd5b5061039e6106b7366004614e82565b611e76565b3480156106c7575f5ffd5b505f546001600160a01b0316610367565b3480156106e3575f5ffd5b505f546107099074010000000000000000000000000000000000000000900461ffff1681565b60405161ffff9091168152602001610306565b348015610727575f5ffd5b506103cb610736366004614ea2565b61223b565b348015610746575f5ffd5b5061039e610755366004614ee1565b612371565b348015610765575f5ffd5b506102fa610774366004614abe565b60036020525f908152604090205460ff1681565b348015610793575f5ffd5b506102fa6107a2366004614a46565b6001600160a01b0382165f9081526004602090815260408083207fffffffff000000000000000000000000000000000000000000000000000000008516845290915290205460ff1692915050565b6103cb6107fe366004614a7d565b6123f2565b34801561080e575f5ffd5b5061039e6123fe565b348015610822575f5ffd5b5061039e61083136600461501c565b6124fa565b6103cb610844366004615097565b61264f565b348015610854575f5ffd5b5061039e610863366004614abe565b61265b565b348015610873575f5ffd5b50610887610882366004614a7d565b612750565b60405161030691906150f0565b34801561089f575f5ffd5b5061039e6108ae366004614d0c565b6128f1565b3480156108be575f5ffd5b506102fa6108cd366004615102565b6129c1565b3480156108dd575f5ffd5b5061039e6108ec36600461512e565b612a6e565b3480156108fc575f5ffd5b5061039e61090b366004614abe565b612bbd565b34801561091b575f5ffd5b505f5461070990760100000000000000000000000000000000000000000000900461ffff1681565b5f7fffffffff0000000000000000000000000000000000000000000000000000000082167facb28d740000000000000000000000000000000000000000000000000000000014806109d557507f80ac58cd000000000000000000000000000000000000000000000000000000007fffffffff000000000000000000000000000000000000000000000000000000008316145b80610a2157507f01ffc9a7000000000000000000000000000000000000000000000000000000007fffffffff000000000000000000000000000000000000000000000000000000008316145b92915050565b6040517f081812fc000000000000000000000000000000000000000000000000000000008152600481018290525f907f00000000000000000000000000000000000000000000000000000000000000006001600160a01b03169063081812fc906024015b602060405180830381865afa158015610aa6573d5f5f3e3d5ffd5b505050506040513d601f19601f82011682018060405250810190610a219190615178565b6040517f5aef2447000000000000000000000000000000000000000000000000000000008152600481018290525f907f00000000000000000000000000000000000000000000000000000000000000006001600160a01b031690635aef24479060240161016060405180830381865afa158015610b49573d5f5f3e3d5ffd5b505050506040513d601f19601f82011682018060405250810190610b6d91906151af565b9050610b7d816101000151612c15565b6040517f52ec85290000000000000000000000000000000000000000000000000000000081523360048201526001600160a01b038481166024830152604482018490527f000000000000000000000000000000000000000000000000000000000000000016906352ec8529906064015f604051808303815f87803b158015610c03575f5ffd5b505af1158015610c15573d5f5f3e3d5ffd5b505050505b505050565b5f5f5f610c2b84610ed7565b9050610c3681612c59565b9250925050915091565b6040517f5aef2447000000000000000000000000000000000000000000000000000000008152600481018290525f907f00000000000000000000000000000000000000000000000000000000000000006001600160a01b031690635aef24479060240161016060405180830381865afa158015610cbf573d5f5f3e3d5ffd5b505050506040513d601f19601f82011682018060405250810190610ce391906151af565b9050610cf3816101000151612c15565b6040517faf9fe4de0000000000000000000000000000000000000000000000000000000081523360048201526001600160a01b0385811660248301528481166044830152606482018490527f0000000000000000000000000000000000000000000000000000000000000000169063af9fe4de906084015b5f604051808303815f87803b158015610d82575f5ffd5b505af1158015610d94573d5f5f3e3d5ffd5b505050505b50505050565b5f610db283610dad8461528e565b612c7d565b9392505050565b610dc1612f83565b6001600160a01b0382161580610df757507fffffffff000000000000000000000000000000000000000000000000000000008116155b610e91576001600160a01b0382165f8181526004602090815260408083207fffffffff000000000000000000000000000000000000000000000000000000008616808552925280832080547fffffffffffffffffffffffffffffffffffffffffffffffffffffffffffffff00166001179055519092917f177c467a5dec0610cb3afa435a1f7efa9cd39bf81ff2273f06ae7668a00e310b91a35b5050565b610c1a83838360405180602001604052805f8152506124fa565b60018181548110610ebe575f80fd5b5f918252602090912001546001600160a01b0316905081565b610edf614812565b6040517f5aef2447000000000000000000000000000000000000000000000000000000008152600481018390525f907f00000000000000000000000000000000000000000000000000000000000000006001600160a01b031690635aef24479060240161016060405180830381865afa158015610f5e573d5f5f3e3d5ffd5b505050506040513d601f19601f82011682018060405250810190610f8291906151af565b9050610f92816101000151612c15565b5f8381526007602090815260408083208151608080820184528254825283518085018552600184015461ffff8082168352620100009091048116828801528387019190915284519182018552600284015482526003840154958201959095526004830154909416848401526005820154606080860191909152928101939093526006015460ff1615159082015290826101200151600581111561103757611037614b8e565b148061105957506001826101200151600581111561105757611057614b8e565b145b8061107a57506005826101200151600581111561107857611078614b8e565b145b1561111e5773__$4bbbaa6d90f42a60403c514cce5191a63a$__63ff7f44438360200151845f01516110ac9190615329565b835f0151846020015185604001516040518563ffffffff1660e01b81526004016110d9949392919061533c565b608060405180830381865af41580156110f4573d5f5f3e3d5ffd5b505050506040513d601f19601f820116820180604052508101906111189190615391565b60408201525b604051806101800160405280835f0151815260200183602001518152602001836101200151600581111561115457611154614b8e565b8152602001836101400151600281111561117057611170614b8e565b81526020018360a001516001600160a01b031681526020018360c001516001600160a01b031681526020018360e001516001600160a01b031681526020018361010001516001600160a01b0316815260200183604001518152602001825f0151815260200182602001518152602001826040015181525092505050919050565b6111f8612f83565b6001600160a01b0382165f8181526004602090815260408083207fffffffff000000000000000000000000000000000000000000000000000000008616808552925280832080547fffffffffffffffffffffffffffffffffffffffffffffffffffffffffffffff00169055519092917f36112db5f88f36037ce600104320a87f5636f34183686bbc76a66ec5588fccc991a35050565b611296612f83565b61271061ffff821611156112d6576040517fba97f83800000000000000000000000000000000000000000000000000000000815260040160405180910390fd5b5f805461ffff8381167601000000000000000000000000000000000000000000008181027fffffffffffffffff0000ffffffffffffffffffffffffffffffffffffffffffff85161790945560408051949093049091168084526020840191909152917f94d513c10ff5e8f0454d36f41da1d81583ca73420fcfff120599b4b73cdf1e6d91015b60405180910390a15050565b5f81815260066020908152604080832081516101a08101835281548184019081528351808501909452600183015461ffff808216865262010000909104169484019490945260608101929092526002810154608083015260038101546001600160a01b0390811660a084015260048201541660c083015260058101805492939192849291849160e0850191906113fd906153fd565b80601f0160208091040260200160405190810160405280929190818152602001828054611429906153fd565b80156114745780601f1061144b57610100808354040283529160200191611474565b820191905f5260205f20905b81548152906001019060200180831161145757829003601f168201915b505050918352505060068201546001600160a01b03908116602080840191909152600784015460408401526008840154606080850191909152600990940154808316608085015274010000000000000000000000000000000000000000900460e01b7fffffffff000000000000000000000000000000000000000000000000000000001660a090930192909252928452600a949094015460ff161515929093019190915282519091015191925016611558576040517f1d044d6100000000000000000000000000000000000000000000000000000000815260040160405180910390fd5b8051606001516001600160a01b0316331480159061158457508051608001516001600160a01b03163314155b156115bb576040517f5d6db4c200000000000000000000000000000000000000000000000000000000815260040160405180910390fd5b5f8281526006602052604081208181556001810180547fffffffffffffffffffffffffffffffffffffffffffffffffffffffff00000000169055600281018290556003810180547fffffffffffffffffffffffff0000000000000000000000000000000000000000908116909155600482018054909116905590818161164460058301826148e7565b506006810180547fffffffffffffffffffffffff00000000000000000000000000000000000000001690555f600782018190556008808301829055600990920180547fffffffffffffffff000000000000000000000000000000000000000000000000169055600a9390930180547fffffffffffffffffffffffffffffffffffffffffffffffffffffffffffffff001690558483526020525060408120906116ec82826148e7565b6116f9600183015f6148e7565b5050604051339083907f5c6eae33ff1cd222fb8964d3a9cb61f3c59d868bb587b0ad1f131fb6d99328ad905f90a35050565b6040517f5aef2447000000000000000000000000000000000000000000000000000000008152600481018290525f907f00000000000000000000000000000000000000000000000000000000000000006001600160a01b031690635aef24479060240161016060405180830381865afa1580156117aa573d5f5f3e3d5ffd5b505050506040513d601f19601f820116820180604052508101906117ce91906151af565b90506117de816101000151612c15565b6040517f3081ed8a000000000000000000000000000000000000000000000000000000008152336004820152602481018390527f00000000000000000000000000000000000000000000000000000000000000006001600160a01b031690633081ed8a906044015b5f604051808303815f87803b15801561185d575f5ffd5b505af115801561186f573d5f5f3e3d5ffd5b505050505050565b61187f61491e565b5f82815260066020908152604080832081516101a08101835281548184019081528351808501909452600183015461ffff808216865262010000909104169484019490945260608101929092526002810154608083015260038101546001600160a01b0390811660a084015260048201541660c083015260058101805492939192849291849160e085019190611914906153fd565b80601f0160208091040260200160405190810160405280929190818152602001828054611940906153fd565b801561198b5780601f106119625761010080835404028352916020019161198b565b820191905f5260205f20905b81548152906001019060200180831161196e57829003601f168201915b505050918352505060068201546001600160a01b03908116602080840191909152600784015460408401526008840154606080850191909152600990940154808316608085015274010000000000000000000000000000000000000000900460e01b7fffffffff000000000000000000000000000000000000000000000000000000001660a090930192909252928452600a949094015460ff161515929093019190915282519091015191925016610a21576040517f1d044d6100000000000000000000000000000000000000000000000000000000815260040160405180910390fd5b6040517f6352211e000000000000000000000000000000000000000000000000000000008152600481018290525f907f00000000000000000000000000000000000000000000000000000000000000006001600160a01b031690636352211e90602401610a8b565b6040517f70a082310000000000000000000000000000000000000000000000000000000081526001600160a01b0382811660048301525f917f0000000000000000000000000000000000000000000000000000000000000000909116906370a0823190602401602060405180830381865afa158015611b58573d5f5f3e3d5ffd5b505050506040513d601f19601f82011682018060405250810190610a219190615448565b611b84612f83565b611b8d5f612fc8565b565b611b97612f83565b6001600160a01b0381165f9081526003602052604090205460ff1615611d21576001600160a01b0381165f90815260036020526040812080547fffffffffffffffffffffffffffffffffffffffffffffffffffffffffffffff001690555b600154811015611d1f57816001600160a01b031660018281548110611c1c57611c1c61545f565b5f918252602090912001546001600160a01b031603611d175760018054611c44908290615329565b81548110611c5457611c5461545f565b5f91825260209091200154600180546001600160a01b039092169183908110611c7f57611c7f61545f565b905f5260205f20015f6101000a8154816001600160a01b0302191690836001600160a01b031602179055506001805480611cbb57611cbb61548c565b5f8281526020902081017fffffffffffffffffffffffffffffffffffffffffffffffffffffffffffffffff90810180547fffffffffffffffffffffffff0000000000000000000000000000000000000000169055019055611d1f565b600101611bf5565b505b6040516001600160a01b038216907fceeec53cbb10af8d416c74d15b37f2c8761d65af488132f6de71b01176ad2334905f90a250565b6040517f5aef2447000000000000000000000000000000000000000000000000000000008152600481018290525f907f00000000000000000000000000000000000000000000000000000000000000006001600160a01b031690635aef24479060240161016060405180830381865afa158015611dd6573d5f5f3e3d5ffd5b505050506040513d601f19601f82011682018060405250810190611dfa91906151af565b9050611e0a816101000151612c15565b6040517f2a982aeb000000000000000000000000000000000000000000000000000000008152336004820152602481018390527f00000000000000000000000000000000000000000000000000000000000000006001600160a01b031690632a982aeb90604401611846565b5f611e8083610ed7565b90505f5f611e8d83612c59565b915091505f611e9c858361302f565b90505f611eb2611eac8388615329565b8561302f565b90506040518060800160405280838761016001515f0151611ed39190615329565b81526020018661016001516020015181526020018661016001516040015161ffff1681526020018387610160015160600151611f0f91906154b9565b90525f8881526007602090815260409182902083516002820155908301516003820155908201516004820180547fffffffffffffffffffffffffffffffffffffffffffffffffffffffffffff00001661ffff909216919091179055606090910151600590910155611f8081836154b9565b5f888152600760205260408120600601549197509060ff1680611fa1575082155b611fc657611fc1838761014001515f01518861016001516040015161303e565b611fc8565b5f5b90505f611fd58285615329565b90505f611fe284836154b9565b90505f841561209a576040517e8c1075000000000000000000000000000000000000000000000000000000008152336004820152602481018c9052604481018690527f00000000000000000000000000000000000000000000000000000000000000006001600160a01b031690628c1075906064016020604051808303815f875af1158015612073573d5f5f3e3d5ffd5b505050506040513d601f19601f8201168201806040525081019061209791906154cc565b90505b891561211d5783156120d75760c08901516001600160a01b03165f90815260026020526040812080548692906120d19084906154b9565b90915550505b60c08901516120f1906001600160a01b031633308d613063565b811561211d5761211d8960a00151838b60c001516001600160a01b031661311e9092919063ffffffff16565b60408051878152602081018790529081018590528b907f06283ce23ea8ff00b2f5df7b85dc1a077d69a207b3b48ecdaf73bf2189dd2e0f9060600160405180910390a2801561222e576040517fd6700bef000000000000000000000000000000000000000000000000000000008152600481018c90525f907f00000000000000000000000000000000000000000000000000000000000000006001600160a01b03169063d6700bef906024016040805180830381865afa1580156121e3573d5f5f3e3d5ffd5b505050506040513d601f19601f8201168201806040525081019061220791906154e7565b80519091506001600160a01b03161561222c5761222c815f015182602001518e6131d3565b505b5050505050505050505050565b5f610a218260096040518060400160405290815f8201805461225c906153fd565b80601f0160208091040260200160405190810160405280929190818152602001828054612288906153fd565b80156122d35780601f106122aa576101008083540402835291602001916122d3565b820191905f5260205f20905b8154815290600101906020018083116122b657829003601f168201915b505050505081526020016001820180546122ec906153fd565b80601f0160208091040260200160405190810160405280929190818152602001828054612318906153fd565b80156123635780601f1061233a57610100808354040283529160200191612363565b820191905f5260205f20905b81548152906001019060200180831161234657829003601f168201915b505050505081525050612c7d565b6040517fa22cb4650000000000000000000000000000000000000000000000000000000081526001600160a01b03838116600483015282151560248301527f0000000000000000000000000000000000000000000000000000000000000000169063a22cb465906044015f604051808303815f87803b15801561185d575f5ffd5b5f610a2133835f6132dd565b612406612f83565b5f5b6001548110156124f7575f600182815481106124265761242661545f565b5f9182526020808320909101546001600160a01b0316808352600290915260409091205490915080156124ed576001600160a01b0382165f9081526002602052604081205561249061247f5f546001600160a01b031690565b6001600160a01b038416908361311e565b816001600160a01b03166124ab5f546001600160a01b031690565b6001600160a01b03167eed5939179dc194223f0edd1517ecee2210b22da7f82c8e4b1795e93b9f06aa836040516124e491815260200190565b60405180910390a35b5050600101612408565b50565b6040517f5aef2447000000000000000000000000000000000000000000000000000000008152600481018390525f907f00000000000000000000000000000000000000000000000000000000000000006001600160a01b031690635aef24479060240161016060405180830381865afa158015612579573d5f5f3e3d5ffd5b505050506040513d601f19601f8201168201806040525081019061259d91906151af565b90506125ad816101000151612c15565b6040517ffcf391e00000000000000000000000000000000000000000000000000000000081526001600160a01b037f0000000000000000000000000000000000000000000000000000000000000000169063fcf391e09061261a9033908990899089908990600401615528565b5f604051808303815f87803b158015612631575f5ffd5b505af1158015612643573d5f5f3e3d5ffd5b505050505b5050505050565b5f610db23384846132dd565b612663612f83565b6001600160a01b0381165f9081526003602052604090205460ff1661271a576001600160a01b0381165f81815260036020526040812080547fffffffffffffffffffffffffffffffffffffffffffffffffffffffffffffff001660019081179091558054808201825591527fb10e2d527612073b26eecdfd717e6a320cf44b4afac2b0732d9fcbe2b7fa0cf60180547fffffffffffffffffffffffff00000000000000000000000000000000000000001690911790555b6040516001600160a01b038216907f8ac7e85f445e8ee1c850abbfcd9da63ccb7b527c076290946108a7c280247096905f90a250565b60408051808201909152606080825260208201525f828152600660205260409020600301546001600160a01b03166127b4576040517f1d044d6100000000000000000000000000000000000000000000000000000000815260040160405180910390fd5b5f828152600860205260409081902081518083019092528054829082906127da906153fd565b80601f0160208091040260200160405190810160405280929190818152602001828054612806906153fd565b80156128515780601f1061282857610100808354040283529160200191612851565b820191905f5260205f20905b81548152906001019060200180831161283457829003601f168201915b5050505050815260200160018201805461286a906153fd565b80601f0160208091040260200160405190810160405280929190818152602001828054612896906153fd565b80156128e15780601f106128b8576101008083540402835291602001916128e1565b820191905f5260205f20905b8154815290600101906020018083116128c457829003601f168201915b5050505050815250509050919050565b6128f9612f83565b61271061ffff82161115612939576040517fba97f83800000000000000000000000000000000000000000000000000000000815260040160405180910390fd5b5f805461ffff838116740100000000000000000000000000000000000000008181027fffffffffffffffffffff0000ffffffffffffffffffffffffffffffffffffffff85161790945560408051949093049091168084526020840191909152917f26bc4a9b6ef30ec448ec7094c0f1002b0c6b8363d6a56be88ce399f1ac3d92f9910161135c565b6040517fe985e9c50000000000000000000000000000000000000000000000000000000081526001600160a01b03838116600483015282811660248301525f917f00000000000000000000000000000000000000000000000000000000000000009091169063e985e9c590604401602060405180830381865afa158015612a4a573d5f5f3e3d5ffd5b505050506040513d601f19601f82011682018060405250810190610db291906154cc565b6040517f5aef2447000000000000000000000000000000000000000000000000000000008152600481018490525f907f00000000000000000000000000000000000000000000000000000000000000006001600160a01b031690635aef24479060240161016060405180830381865afa158015612aed573d5f5f3e3d5ffd5b505050506040513d601f19601f82011682018060405250810190612b1191906151af565b9050612b21816101000151612c15565b6040517fe9c1d0c0000000000000000000000000000000000000000000000000000000008152336004820152602481018590526001600160a01b0384811660448301527fffffffff00000000000000000000000000000000000000000000000000000000841660648301527f0000000000000000000000000000000000000000000000000000000000000000169063e9c1d0c090608401610d6b565b612bc5612f83565b6001600160a01b038116612c0c576040517f1e4fbdf70000000000000000000000000000000000000000000000000000000081525f60048201526024015b60405180910390fd5b6124f781612fc8565b6001600160a01b03811630146124f7576040517f66719b7a000000000000000000000000000000000000000000000000000000008152336004820152602401612c03565b5f5f8260200151835f0151612c6e9190615329565b61016090930151519293915050565b5f80612c8f60a0850160808601614abe565b6001600160a01b0316336001600160a01b0316149050612caf8482614051565b335f90815260056020526040902054612cc98160016154b9565b335f90815260056020526040812091909155612d0686837f000000000000000000000000000000000000000000000000000000000000000061431f565b9050604051806040016040528087612d1d906155b8565b81528415156020918201525f83815260068252604090819020835180518255808401518051600184018054929096015161ffff90811662010000027fffffffffffffffffffffffffffffffffffffffffffffffffffffffff000000009093169116171790935590820151600282015560608201516003820180546001600160a01b039283167fffffffffffffffffffffffff000000000000000000000000000000000000000091821617909155608084015160048401805491909316911617905560a082015190919082906005820190612df790826156d5565b5060c08201516006820180546001600160a01b039283167fffffffffffffffffffffffff000000000000000000000000000000000000000090911617905560e08084015160078401556101008401516008840155610120840151600990930180546101409095015190911c74010000000000000000000000000000000000000000027fffffffffffffffff000000000000000000000000000000000000000000000000909416929091169190911791909117905560209190910151600a90910180549115157fffffffffffffffffffffffffffffffffffffffffffffffffffffffffffffff00909216919091179055845151151580612efa57505f856020015151115b15612f36575f81815260086020526040902085518691908190612f1d90826156d5565b5060208201516001820190612f3290826156d5565b5050505b336001600160a01b0316817fa94a87c6a478ee9e74c583560db13c9b623c84cf97e82551f872fcd1a4800ffc8888604051612f729291906158c8565b60405180910390a395945050505050565b5f546001600160a01b03163314611b8d576040517f118cdaa7000000000000000000000000000000000000000000000000000000008152336004820152602401612c03565b5f80546001600160a01b038381167fffffffffffffffffffffffff0000000000000000000000000000000000000000831681178455604051919092169283917f8be0079c531659141344cd1fd0a4f28419497f9722a3daafe3b4186f6b6457e09190a35050565b5f828218828410028218610db2565b5f61305b8461ffff841661305285876159e4565b61ffff16614610565b949350505050565b5f6040517f23b872dd00000000000000000000000000000000000000000000000000000000815284600482015283602482015282604482015260205f6064835f8a5af13d15601f3d1160015f511416171691505080612648576040517f08c379a000000000000000000000000000000000000000000000000000000000815260206004820152601460248201527f5452414e534645525f46524f4d5f4641494c45440000000000000000000000006044820152606401612c03565b5f6040517fa9059cbb00000000000000000000000000000000000000000000000000000000815283600482015282602482015260205f6044835f895af13d15601f3d1160015f511416171691505080610d99576040517f08c379a000000000000000000000000000000000000000000000000000000000815260206004820152600f60248201527f5452414e534645525f4641494c454400000000000000000000000000000000006044820152606401612c03565b5f82826040516024016131e891815260200190565b604051602081830303815290604052907bffffffffffffffffffffffffffffffffffffffffffffffffffffffff19166020820180517bffffffffffffffffffffffffffffffffffffffffffffffffffffffff838183161783525050505090505f5f856001600160a01b03168360405161326191906159fe565b5f604051808303815f865af19150503d805f811461329a576040519150601f19603f3d011682016040523d82523d5f602084013e61329f565b606091505b50915091508161186f57806040517f30b9b6dd000000000000000000000000000000000000000000000000000000008152600401612c039190615a14565b5f82815260066020908152604080832081516101a08101835281548184019081528351808501909452600183015461ffff808216865262010000909104169484019490945260608101929092526002810154608083015260038101546001600160a01b0390811660a084015260048201541660c0830152600581018054859484929091849160e0850191613370906153fd565b80601f016020809104026020016040519081016040528092919081815260200182805461339c906153fd565b80156133e75780601f106133be576101008083540402835291602001916133e7565b820191905f5260205f20905b8154815290600101906020018083116133ca57829003601f168201915b505050918352505060068201546001600160a01b03908116602080840191909152600784015460408401526008840154606080850191909152600990940154808316608085015274010000000000000000000000000000000000000000900460e01b7fffffffff000000000000000000000000000000000000000000000000000000001660a090930192909252928452600a949094015460ff1615159290930191909152825190910151919250166134cb576040517f1d044d6100000000000000000000000000000000000000000000000000000000815260040160405180910390fd5b5f7f00000000000000000000000000000000000000000000000000000000000000006001600160a01b03166301a2cae86040518163ffffffff1660e01b8152600401602060405180830381865afa158015613528573d5f5f3e3d5ffd5b505050506040513d601f19601f8201168201806040525081019061354c9190615178565b8251608001516040517fbabcc5390000000000000000000000000000000000000000000000000000000081526001600160a01b03918216600482015291169063babcc53990602401602060405180830381865afa1580156135af573d5f5f3e3d5ffd5b505050506040513d601f19601f820116820180604052508101906135d391906154cc565b806136e057507f00000000000000000000000000000000000000000000000000000000000000006001600160a01b03166301a2cae86040518163ffffffff1660e01b8152600401602060405180830381865afa158015613635573d5f5f3e3d5ffd5b505050506040513d601f19601f820116820180604052508101906136599190615178565b8251606001516040517fbabcc5390000000000000000000000000000000000000000000000000000000081526001600160a01b03918216600482015291169063babcc53990602401602060405180830381865afa1580156136bc573d5f5f3e3d5ffd5b505050506040513d601f19601f820116820180604052508101906136e091906154cc565b90505f8161376d577f00000000000000000000000000000000000000000000000000000000000000006001600160a01b0316638204c6276040518163ffffffff1660e01b8152600401602060405180830381865afa158015613744573d5f5f3e3d5ffd5b505050506040513d601f19601f820116820180604052508101906137689190615448565b61376f565b5f5b90508034146137aa576040517fcd3cb2bb00000000000000000000000000000000000000000000000000000000815260040160405180910390fd5b82516101000151158015906137c457508251610100015142115b156137fb576040517f076802fc00000000000000000000000000000000000000000000000000000000815260040160405180910390fd5b826020015115613854578251608001516001600160a01b0388811691161461384f576040517f2e15fb7c00000000000000000000000000000000000000000000000000000000815260040160405180910390fd5b6138df565b8251606001516001600160a01b0388811691161461389e576040517fe16e54be00000000000000000000000000000000000000000000000000000000815260040160405180910390fd5b6001600160a01b038516156138df576040517f2e15fb7c00000000000000000000000000000000000000000000000000000000815260040160405180910390fd5b5f6001600160a01b0386166138f9578351608001516138fb565b855b90505f60085f8981526020019081526020015f206040518060400160405290815f82018054613929906153fd565b80601f0160208091040260200160405190810160405280929190818152602001828054613955906153fd565b80156139a05780601f10613977576101008083540402835291602001916139a0565b820191905f5260205f20905b81548152906001019060200180831161398357829003601f168201915b505050505081526020016001820180546139b9906153fd565b80601f01602080910402602001604051908101604052809291908181526020018280546139e5906153fd565b8015613a305780601f10613a0757610100808354040283529160200191613a30565b820191905f5260205f20905b815481529060010190602001808311613a1357829003601f168201915b505050919092525050505f8981526006602052604081208181556001810180547fffffffffffffffffffffffffffffffffffffffffffffffffffffffff00000000169055600281018290556003810180547fffffffffffffffffffffffff000000000000000000000000000000000000000090811690915560048201805490911690559192508181613ac560058301826148e7565b506006810180547fffffffffffffffffffffffff00000000000000000000000000000000000000001690555f600782018190556008808301829055600990920180547fffffffffffffffff000000000000000000000000000000000000000000000000169055600a9390930180547fffffffffffffffffffffffffffffffffffffffffffffffffffffffffffffff001690558a8352602052506040812090613b6d82826148e7565b613b7a600183015f6148e7565b50505f604051806101000160405280875f0151606001516001600160a01b03168152602001875f0151608001516001600160a01b03168152602001875f0151604001518152602001875f015160a001518152602001875f015160c001516001600160a01b03168152602001600280811115613bf757613bf7614b8e565b8152875151602090910190613c0c90426154b9565b8152875160e001516020909101528251519091505f90151580613c3357505f836020015151115b15613ced578651608001516040517e4b38290000000000000000000000000000000000000000000000000000000081526001600160a01b037f00000000000000000000000000000000000000000000000000000000000000001691624b3829918891613ca59187908990600401615aba565b60206040518083038185885af1158015613cc1573d5f5f3e3d5ffd5b50505050506040513d601f19601f82011682018060405250810190613ce69190615448565b9050613d9e565b8651608001516040517f1461f1260000000000000000000000000000000000000000000000000000000081526001600160a01b037f00000000000000000000000000000000000000000000000000000000000000001691631461f126918891613d5a918790600401615af7565b60206040518083038185885af1158015613d76573d5f5f3e3d5ffd5b50505050506040513d601f19601f82011682018060405250810190613d9b9190615448565b90505b6040518060800160405280428152602001885f015160200151815260200160405180608001604052805f81526020015f815260200189613dfb575f5474010000000000000000000000000000000000000000900461ffff16613dfd565b5f5b61ffff90811682525f60209283018190529284528a15159382019390935284825260078152604080832085518155858301518051600183018054928601519188167fffffffffffffffffffffffffffffffffffffffffffffffffffffffff000000009093169290921762010000918816919091021790558582015180516002830155928301516003820155828201516004820180547fffffffffffffffffffffffffffffffffffffffffffffffffffffffffffff00001691871691909117905560609283015160058201559190940151600690910180547fffffffffffffffffffffffffffffffffffffffffffffffffffffffffffffff00169115159190911790558951909201518254613f2f9276010000000000000000000000000000000000000000000090910416612710614610565b90505f81895f015160400151613f459190615329565b90508115613f7f57885160c001516001600160a01b03165f9081526002602052604081208054849290613f799084906154b9565b90915550505b88516060810151604082015160c090920151613fa9926001600160a01b0390911691903090613063565b8015613fc957885160c00151613fc9906001600160a01b0316878361311e565b885161012001516001600160a01b031615613ff957885161012081015161014090910151613ff991908e866146c0565b856001600160a01b0316838d7f2a82588a72d442d0ca15bc61c1abab1812c42c9eab1d127cb645dd934fa9136e8a868a60405161403893929190615b18565b60405180910390a450909b9a5050505050505050505050565b80158015614080575061406a60c0830160a08401614abe565b6001600160a01b0316336001600160a01b031614155b156140b7576040517f5d6db4c200000000000000000000000000000000000000000000000000000000815260040160405180910390fd5b81355f036140f1576040517fd88194e100000000000000000000000000000000000000000000000000000000815260040160405180910390fd5b5f614103610100840160e08501614abe565b6001600160a01b031603614143576040517fb10b947e00000000000000000000000000000000000000000000000000000000815260040160405180910390fd5b64ffffffffff6101008301351115614187576040517fd7c43e0f00000000000000000000000000000000000000000000000000000000815260040160405180910390fd5b5f82610120013511801561419f575081610120013542115b156141d6576040517f076802fc00000000000000000000000000000000000000000000000000000000815260040160405180910390fd5b5f6141e961016084016101408501614abe565b6001600160a01b0316146142a45760045f61420c61016085016101408601614abe565b6001600160a01b0316815260208101919091526040015f9081209061423961018085016101608601614a0c565b7fffffffff0000000000000000000000000000000000000000000000000000000016815260208101919091526040015f205460ff166142a4576040517f8e792a0500000000000000000000000000000000000000000000000000000000815260040160405180910390fd5b6040517f9d6c6ae700000000000000000000000000000000000000000000000000000000815273__$4bbbaa6d90f42a60403c514cce5191a63a$__90639d6c6ae7906142f7906020860190600401615b36565b5f6040518083038186803b15801561430d575f5ffd5b505af415801561186f573d5f5f3e3d5ffd5b5f807ff13d60828feb728e1ee0d03b4efc0f3d3cbbd3dd36ad7cc45dafba23f9a967258535606087013561435960a0890160808a01614abe565b61436960c08a0160a08b01614abe565b61437a6101008b0160e08c01614abe565b60408051602081019790975286019490945260608501929092526001600160a01b03908116608085015290811660a08401521660c082015260e001604080517fffffffffffffffffffffffffffffffffffffffffffffffffffffffffffffffe0818403018152919052805160209091012090505f61010086013561012087013561440c61016089016101408a01614abe565b61441e6101808a016101608b01614a0c565b61442b60c08b018b615b44565b604051614439929190615ba5565b6040805191829003822060208301969096528101939093526001600160a01b0390911660608301527fffffffff0000000000000000000000000000000000000000000000000000000016608082015260a081019190915260c001604080517fffffffffffffffffffffffffffffffffffffffffffffffffffffffffffffffe0818403018152918152815160209283012092505f916144db918901908901614d0c565b6144eb6060890160408a01614d0c565b6040805161ffff9384166020820152929091169082015260608101879052608001604080517fffffffffffffffffffffffffffffffffffffffffffffffffffffffffffffffe081840301815282825280516020918201209083018690529082018490526060820181905291505f90608001604080517fffffffffffffffffffffffffffffffffffffffffffffffffffffffffffffffe08184030181529082905280516020918201207f19010000000000000000000000000000000000000000000000000000000000009183019190915260228201889052604282018190529150606201604080517fffffffffffffffffffffffffffffffffffffffffffffffffffffffffffffffe0818403018152919052805160209091012098975050505050505050565b5f5f5f61461d86866147c6565b91509150815f036146415783818161463757614637615bb4565b0492505050610db2565b818411614658576146586003851502601118614801565b5f848688095f868103871696879004966002600389028118808a02820302808a02820302808a02820302808a02820302808a02820302808a02909103029181900381900460010185841190960395909502919093039390930492909217029150509392505050565b6040805160248101849052604480820184905282518083039091018152606490910182526020810180517bffffffffffffffffffffffffffffffffffffffffffffffffffffffff167fffffffff00000000000000000000000000000000000000000000000000000000871617905290515f9081906001600160a01b0388169061474a9085906159fe565b5f604051808303815f865af19150503d805f8114614783576040519150601f19603f3d011682016040523d82523d5f602084013e614788565b606091505b509150915081610c1557806040517f30b9b6dd000000000000000000000000000000000000000000000000000000008152600401612c039190615a14565b5f807fffffffffffffffffffffffffffffffffffffffffffffffffffffffffffffffff83850993909202808410938190039390930393915050565b634e487b715f52806020526024601cfd5b6040518061018001604052805f81526020015f81526020015f600581111561483c5761483c614b8e565b81526020015f81526020015f6001600160a01b031681526020015f6001600160a01b031681526020015f6001600160a01b031681526020015f6001600160a01b031681526020015f81526020015f81526020016148b260405180604001604052805f61ffff1681526020015f61ffff1681525090565b81526020016148e260405180608001604052805f81526020015f81526020015f61ffff1681526020015f81525090565b905290565b5080546148f3906153fd565b5f825580601f10614902575050565b601f0160209004905f5260205f20908101906124f7919061493d565b6040518060400160405280614931614955565b81525f60209091015290565b5b80821115614951575f815560010161493e565b5090565b6040518061016001604052805f815260200161498a60405180604001604052805f61ffff1681526020015f61ffff1681525090565b81525f60208201819052604082018190526060808301829052608083015260a0820181905260c0820181905260e0820181905261010082018190526101209091015290565b7fffffffff00000000000000000000000000000000000000000000000000000000811681146124f7575f5ffd5b8035614a07816149cf565b919050565b5f60208284031215614a1c575f5ffd5b8135610db2816149cf565b6001600160a01b03811681146124f7575f5ffd5b8035614a0781614a27565b5f5f60408385031215614a57575f5ffd5b8235614a6281614a27565b91506020830135614a72816149cf565b809150509250929050565b5f60208284031215614a8d575f5ffd5b5035919050565b5f5f60408385031215614aa5575f5ffd5b8235614ab081614a27565b946020939093013593505050565b5f60208284031215614ace575f5ffd5b8135610db281614a27565b5f5f5f60608486031215614aeb575f5ffd5b8335614af681614a27565b92506020840135614b0681614a27565b929592945050506040919091013590565b5f6101808284031215614b28575f5ffd5b50919050565b5f5f60408385031215614b3f575f5ffd5b823567ffffffffffffffff811115614b55575f5ffd5b614b6185828601614b17565b925050602083013567ffffffffffffffff811115614b7d575f5ffd5b830160408186031215614a72575f5ffd5b7f4e487b71000000000000000000000000000000000000000000000000000000005f52602160045260245ffd5b60068110614bcb57614bcb614b8e565b9052565b60038110614bcb57614bcb614b8e565b5f6102008201905082518252602083015160208301526040830151614c076040840182614bbb565b506060830151614c1a6060840182614bcf565b506080830151614c3560808401826001600160a01b03169052565b5060a0830151614c5060a08401826001600160a01b03169052565b5060c0830151614c6b60c08401826001600160a01b03169052565b5060e0830151614c8660e08401826001600160a01b03169052565b50610100830151610100830152610120830151610120830152610140830151614cc4610140840182805161ffff908116835260209182015116910152565b506101609290920151805161018083015260208101516101a0830152604081015161ffff166101c0830152606001516101e09091015290565b61ffff811681146124f7575f5ffd5b5f60208284031215614d1c575f5ffd5b8135610db281614cfd565b5f81518084528060208401602086015e5f6020828601015260207fffffffffffffffffffffffffffffffffffffffffffffffffffffffffffffffe0601f83011685010191505092915050565b602081525f825160406020840152805160608401526020810151614dab6080850182805161ffff908116835260209182015116910152565b50604081015160c084015260608101516001600160a01b0390811660e085015260808201511661010084015260a0810151610180610120850152614df36101e0850182614d27565b905060c0820151614e106101408601826001600160a01b03169052565b5060e08201516101608501526101008201516101808501526101208201516001600160a01b03166101a0850152610140909101517fffffffff00000000000000000000000000000000000000000000000000000000166101c08401526020840151801515604085015290949350505050565b5f5f60408385031215614e93575f5ffd5b50508035926020909101359150565b5f60208284031215614eb2575f5ffd5b813567ffffffffffffffff811115614ec8575f5ffd5b61305b84828501614b17565b80151581146124f7575f5ffd5b5f5f60408385031215614ef2575f5ffd5b8235614efd81614a27565b91506020830135614a7281614ed4565b7f4e487b71000000000000000000000000000000000000000000000000000000005f52604160045260245ffd5b604051610160810167ffffffffffffffff81118282101715614f5e57614f5e614f0d565b60405290565b6040805190810167ffffffffffffffff81118282101715614f5e57614f5e614f0d565b5f5f67ffffffffffffffff841115614fa157614fa1614f0d565b506040517fffffffffffffffffffffffffffffffffffffffffffffffffffffffffffffffe0601f85018116603f0116810181811067ffffffffffffffff82111715614fee57614fee614f0d565b604052838152905080828401851015615005575f5ffd5b838360208301375f60208583010152509392505050565b5f5f5f5f6080858703121561502f575f5ffd5b843561503a81614a27565b9350602085013561504a81614a27565b925060408501359150606085013567ffffffffffffffff81111561506c575f5ffd5b8501601f8101871361507c575f5ffd5b61508b87823560208401614f87565b91505092959194509250565b5f5f604083850312156150a8575f5ffd5b823591506020830135614a7281614a27565b5f8151604084526150ce6040850182614d27565b9050602083015184820360208601526150e78282614d27565b95945050505050565b602081525f610db260208301846150ba565b5f5f60408385031215615113575f5ffd5b823561511e81614a27565b91506020830135614a7281614a27565b5f5f5f60608486031215615140575f5ffd5b83359250602084013561515281614a27565b91506040840135615162816149cf565b809150509250925092565b8051614a0781614a27565b5f60208284031215615188575f5ffd5b8151610db281614a27565b805160068110614a07575f5ffd5b805160038110614a07575f5ffd5b5f6101608284031280156151c1575f5ffd5b506151ca614f3a565b825181526020808401519082015260408084015190820152606080840151908201526151f86080840161516d565b608082015261520960a0840161516d565b60a082015261521a60c0840161516d565b60c082015261522b60e0840161516d565b60e082015261523d610100840161516d565b6101008201526152506101208401615193565b61012082015261526361014084016151a1565b6101408201529392505050565b5f82601f83011261527f575f5ffd5b610db283833560208501614f87565b5f6040823603121561529e575f5ffd5b6152a6614f64565b823567ffffffffffffffff8111156152bc575f5ffd5b6152c836828601615270565b825250602083013567ffffffffffffffff8111156152e4575f5ffd5b6152f036828601615270565b60208301525092915050565b7f4e487b71000000000000000000000000000000000000000000000000000000005f52601160045260245ffd5b81810381811115610a2157610a216152fc565b8481526020808201859052835161ffff908116604084015290840151166060820152610100810182516080830152602083015160a0830152604083015161ffff1660c0830152606083015160e08301526150e7565b5f60808284031280156153a2575f5ffd5b506040516080810167ffffffffffffffff811182821017156153c6576153c6614f0d565b604090815283518252602080850151908301528301516153e581614cfd565b60408201526060928301519281019290925250919050565b600181811c9082168061541157607f821691505b602082108103614b28577f4e487b71000000000000000000000000000000000000000000000000000000005f52602260045260245ffd5b5f60208284031215615458575f5ffd5b5051919050565b7f4e487b71000000000000000000000000000000000000000000000000000000005f52603260045260245ffd5b7f4e487b71000000000000000000000000000000000000000000000000000000005f52603160045260245ffd5b80820180821115610a2157610a216152fc565b5f602082840312156154dc575f5ffd5b8151610db281614ed4565b5f60408284031280156154f8575f5ffd5b50615501614f64565b825161550c81614a27565b8152602083015161551c816149cf565b60208201529392505050565b6001600160a01b03861681526001600160a01b03851660208201526001600160a01b038416604082015282606082015260a060808201525f61556d60a0830184614d27565b979650505050505050565b5f60408284031215615588575f5ffd5b615590614f64565b9050813561559d81614cfd565b815260208201356155ad81614cfd565b602082015292915050565b5f61018082360312156155c9575f5ffd5b6155d1614f3a565b823581526155e23660208501615578565b6020820152606083013560408201526155fd60808401614a3b565b606082015261560e60a08401614a3b565b608082015260c083013567ffffffffffffffff81111561562c575f5ffd5b61563836828601615270565b60a08301525061564a60e08401614a3b565b60c08201526101008381013560e0830152610120840135908201526156726101408401614a3b565b61012082015261568561016084016149fc565b61014082015292915050565b601f821115610c1a57805f5260205f20601f840160051c810160208510156156b65750805b601f840160051c820191505b81811015612648575f81556001016156c2565b815167ffffffffffffffff8111156156ef576156ef614f0d565b615703816156fd84546153fd565b84615691565b6020601f821160018114615754575f831561571e5750848201515b7fffffffffffffffffffffffffffffffffffffffffffffffffffffffffffffffff600385901b1c1916600184901b178455612648565b5f848152602081207fffffffffffffffffffffffffffffffffffffffffffffffffffffffffffffffe08516915b828110156157a15787850151825560209485019460019092019101615781565b50848210156157dd57868401517fffffffffffffffffffffffffffffffffffffffffffffffffffffffffffffffff600387901b60f8161c191681555b50505050600190811b01905550565b80356157f781614cfd565b61ffff168252602081013561580b81614cfd565b61ffff81166020840152505050565b5f5f83357fffffffffffffffffffffffffffffffffffffffffffffffffffffffffffffffe184360301811261584d575f5ffd5b830160208101925035905067ffffffffffffffff81111561586c575f5ffd5b80360382131561587a575f5ffd5b9250929050565b81835281816020850137505f602082840101525f60207fffffffffffffffffffffffffffffffffffffffffffffffffffffffffffffffe0601f840116840101905092915050565b60408082528335908201525f6158e460608301602086016157ec565b606084013560a08301526158fa60808501614a3b565b6001600160a01b031660c083015261591460a08501614a3b565b6001600160a01b031660e083015261592f60c085018561581a565b6101806101008501526159476101c085018284615881565b91505061595660e08601614a3b565b6001600160a01b038116610120850152506101008501356101408481019190915261012086013561016085015261598e908601614a3b565b6001600160a01b03166101808401526159aa61016086016149fc565b7fffffffff00000000000000000000000000000000000000000000000000000000166101a084015282810360208401526150e781856150ba565b61ffff8181168382160190811115610a2157610a216152fc565b5f82518060208501845e5f920191825250919050565b602081525f610db26020830184614d27565b6001600160a01b0381511682526001600160a01b036020820151166020830152604081015160408301525f60608201516101006060850152615a6c610100850182614d27565b90506080830151615a8860808601826001600160a01b03169052565b5060a0830151615a9b60a0860182614bcf565b5060c083015160c085015260e083015160e08501528091505092915050565b6001600160a01b0384168152606060208201525f615adb6060830185615a26565b8281036040840152615aed81856150ba565b9695505050505050565b6001600160a01b0383168152604060208201525f61305b6040830184615a26565b838152826020820152606060408201525f6150e760608301846150ba565b60408101610a2182846157ec565b5f5f83357fffffffffffffffffffffffffffffffffffffffffffffffffffffffffffffffe1843603018112615b77575f5ffd5b83018035915067ffffffffffffffff821115615b91575f5ffd5b60200191503681900382131561587a575f5ffd5b818382375f9101908152919050565b7f4e487b71000000000000000000000000000000000000000000000000000000005f52601260045260245ffdfea2646970667358221220fb2f5f5b26944e0dadb0b78f8551556a399a9600fc297251dc3d043981565ca064736f6c634300081e0033","linkReferences":{"src/libraries/CompoundInterestLib.sol":{"CompoundInterestLib":[{"start":5525,"length":20},{"start":18400,"length":20}]}}},"methodIdentifiers":{"DOMAIN_SEPARATOR()":"3644e515","_bullaClaim()":"2b538af5","acceptLoan(uint256)":"adfbe22f","acceptLoanWithReceiver(uint256,address)":"b9108c03","addToCallbackWhitelist(address,bytes4)":"307a8088","addToFeeTokenWhitelist(address)":"d4251f9e","admin()":"f851a440","approve(address,uint256)":"095ea7b3","balanceOf(address)":"70a08231","callbackWhitelist(address,bytes4)":"04dbf913","getApproved(uint256)":"081812fc","getLoan(uint256)":"504006ca","getLoanOffer(uint256)":"631f1a3c","getLoanOfferMetadata(uint256)":"db4e0899","getTotalAmountDue(uint256)":"1bc7cd3d","impairLoan(uint256)":"623fb7ce","isApprovedForAll(address,address)":"e985e9c5","isCallbackWhitelisted(address,bytes4)":"a64d6beb","loanOfferNonces(address)":"0ca6c652","markLoanAsPaid(uint256)":"88046146","offerLoan((uint256,(uint16,uint16),uint256,address,address,string,address,uint256,uint256,address,bytes4))":"a15c24f3","offerLoanWithMetadata((uint256,(uint16,uint16),uint256,address,address,string,address,uint256,uint256,address,bytes4),(string,string))":"2d1982ff","owner()":"8da5cb5b","ownerOf(uint256)":"6352211e","payLoan(uint256,uint256)":"89306e61","processingFeeBPS()":"fce5f608","protocolFeeBPS()":"96daa322","protocolFeeTokenWhitelist(address)":"a5cc6a7f","protocolFeesByToken(address)":"39737e07","rejectLoanOffer(uint256)":"6208d89c","removeFromCallbackWhitelist(address,bytes4)":"520eb076","removeFromFeeTokenWhitelist(address)":"82459995","renounceOwnership()":"715018a6","safeTransferFrom(address,address,uint256)":"42842e0e","safeTransferFrom(address,address,uint256,bytes)":"b88d4fde","setApprovalForAll(address,bool)":"a22cb465","setPaidLoanCallback(uint256,address,bytes4)":"ea7d616b","setProcessingFee(uint16)":"52331cf8","setProtocolFee(uint16)":"e4467f35","supportsInterface(bytes4)":"01ffc9a7","transferFrom(address,address,uint256)":"23b872dd","transferOwnership(address)":"f2fde38b","whitelistedProtocolFeeTokens(uint256)":"4be18e94","withdrawAllFees()":"af236af4"},"id":92}