{"abi":[{"type":"constructor","inputs":[{"name":"_controllerRegistry","type":"address","internalType":"address"}],"stateMutability":"nonpayable"},{"type":"function","name":"DOMAIN_SEPARATOR","inputs":[],"outputs":[{"name":"","type":"bytes32","internalType":"bytes32"}],"stateMutability":"view"},{"type":"function","name":"approvals","inputs":[{"name":"","type":"address","internalType":"address"},{"name":"","type":"address","internalType":"address"}],"outputs":[{"name":"createClaim","type":"tuple","internalType":"struct CreateClaimApproval","components":[{"name":"isBindingAllowed","type":"bool","internalType":"bool"},{"name":"approvalType","type":"uint8","internalType":"enum CreateClaimApprovalType"},{"name":"approvalCount","type":"uint64","internalType":"uint64"},{"name":"nonce","type":"uint64","internalType":"uint64"}]}],"stateMutability":"view"},{"type":"function","name":"approveCreateClaim","inputs":[{"name":"controller","type":"address","internalType":"address"},{"name":"approvalType","type":"uint8","internalType":"enum CreateClaimApprovalType"},{"name":"approvalCount","type":"uint64","internalType":"uint64"},{"name":"isBindingAllowed","type":"bool","internalType":"bool"}],"outputs":[],"stateMutability":"nonpayable"},{"type":"function","name":"authorizedContracts","inputs":[{"name":"","type":"address","internalType":"address"}],"outputs":[{"name":"","type":"bool","internalType":"bool"}],"stateMutability":"view"},{"type":"function","name":"controllerRegistry","inputs":[],"outputs":[{"name":"","type":"address","internalType":"contract IBullaControllerRegistry"}],"stateMutability":"view"},{"type":"function","name":"eip712Domain","inputs":[],"outputs":[{"name":"fields","type":"bytes1","internalType":"bytes1"},{"name":"name","type":"string","internalType":"string"},{"name":"version","type":"string","internalType":"string"},{"name":"chainId","type":"uint256","internalType":"uint256"},{"name":"verifyingContract","type":"address","internalType":"address"},{"name":"salt","type":"bytes32","internalType":"bytes32"},{"name":"extensions","type":"uint256[]","internalType":"uint256[]"}],"stateMutability":"view"},{"type":"function","name":"getApprovals","inputs":[{"name":"user","type":"address","internalType":"address"},{"name":"controller","type":"address","internalType":"address"}],"outputs":[{"name":"createClaim","type":"tuple","internalType":"struct CreateClaimApproval","components":[{"name":"isBindingAllowed","type":"bool","internalType":"bool"},{"name":"approvalType","type":"uint8","internalType":"enum CreateClaimApprovalType"},{"name":"approvalCount","type":"uint64","internalType":"uint64"},{"name":"nonce","type":"uint64","internalType":"uint64"}]}],"stateMutability":"view"},{"type":"function","name":"isAuthorizedContract","inputs":[{"name":"contractAddress","type":"address","internalType":"address"}],"outputs":[{"name":"","type":"bool","internalType":"bool"}],"stateMutability":"view"},{"type":"function","name":"owner","inputs":[],"outputs":[{"name":"","type":"address","internalType":"address"}],"stateMutability":"view"},{"type":"function","name":"permitCreateClaim","inputs":[{"name":"user","type":"address","internalType":"address"},{"name":"controller","type":"address","internalType":"address"},{"name":"approvalType","type":"uint8","internalType":"enum CreateClaimApprovalType"},{"name":"approvalCount","type":"uint64","internalType":"uint64"},{"name":"isBindingAllowed","type":"bool","internalType":"bool"},{"name":"signature","type":"bytes","internalType":"bytes"}],"outputs":[],"stateMutability":"nonpayable"},{"type":"function","name":"renounceOwnership","inputs":[],"outputs":[],"stateMutability":"nonpayable"},{"type":"function","name":"setAuthorizedContract","inputs":[{"name":"contractAddress","type":"address","internalType":"address"},{"name":"authorized","type":"bool","internalType":"bool"}],"outputs":[],"stateMutability":"nonpayable"},{"type":"function","name":"setControllerRegistry","inputs":[{"name":"_controllerRegistry","type":"address","internalType":"address"}],"outputs":[],"stateMutability":"nonpayable"},{"type":"function","name":"spendCreateClaimApproval","inputs":[{"name":"user","type":"address","internalType":"address"},{"name":"controller","type":"address","internalType":"address"},{"name":"creditor","type":"address","internalType":"address"},{"name":"debtor","type":"address","internalType":"address"},{"name":"binding","type":"uint8","internalType":"enum ClaimBinding"}],"outputs":[],"stateMutability":"nonpayable"},{"type":"function","name":"transferOwnership","inputs":[{"name":"newOwner","type":"address","internalType":"address"}],"outputs":[],"stateMutability":"nonpayable"},{"type":"event","name":"ContractAuthorized","inputs":[{"name":"contractAddress","type":"address","indexed":true,"internalType":"address"},{"name":"authorized","type":"bool","indexed":false,"internalType":"bool"}],"anonymous":false},{"type":"event","name":"CreateClaimApproved","inputs":[{"name":"user","type":"address","indexed":true,"internalType":"address"},{"name":"controller","type":"address","indexed":true,"internalType":"address"},{"name":"approvalType","type":"uint8","indexed":true,"internalType":"enum CreateClaimApprovalType"},{"name":"approvalCount","type":"uint256","indexed":false,"internalType":"uint256"},{"name":"isBindingAllowed","type":"bool","indexed":false,"internalType":"bool"},{"name":"nonce","type":"uint256","indexed":false,"internalType":"uint256"}],"anonymous":false},{"type":"event","name":"EIP712DomainChanged","inputs":[],"anonymous":false},{"type":"event","name":"OwnershipTransferred","inputs":[{"name":"previousOwner","type":"address","indexed":true,"internalType":"address"},{"name":"newOwner","type":"address","indexed":true,"internalType":"address"}],"anonymous":false},{"type":"error","name":"ApprovalExpired","inputs":[]},{"type":"error","name":"InvalidApproval","inputs":[]},{"type":"error","name":"InvalidShortString","inputs":[]},{"type":"error","name":"InvalidSignature","inputs":[]},{"type":"error","name":"NotAuthorized","inputs":[]},{"type":"error","name":"OwnableInvalidOwner","inputs":[{"name":"owner","type":"address","internalType":"address"}]},{"type":"error","name":"OwnableUnauthorizedAccount","inputs":[{"name":"account","type":"address","internalType":"address"}]},{"type":"error","name":"PastApprovalDeadline","inputs":[]},{"type":"error","name":"PaymentUnderApproved","inputs":[]},{"type":"error","name":"StringTooLong","inputs":[{"name":"str","type":"string","internalType":"string"}]}],"bytecode":{"object":"0x610160604052348015610010575f5ffd5b5060405161189738038061189783398101604081905261002f9161023e565b604080518082018252601581527f42756c6c61417070726f76616c52656769737472790000000000000000000000602080830191909152825180840190935260018352603160f81b908301529033806100a257604051631e4fbdf760e01b81525f60048201526024015b60405180910390fd5b6100ab81610180565b506100b78260016101cf565b610120526100c68160026101cf565b61014052815160208084019190912060e052815190820120610100524660a05261015260e05161010051604080517f8b73c3c69bb8fe3d512ecc4cf759cc79239f7b179b0ffacaa9a75d522b39400f60208201529081019290925260608201524660808201523060a08201525f9060c00160405160208183030381529060405280519060200120905090565b60805250503060c052600580546001600160a01b0319166001600160a01b0392909216919091179055610415565b5f80546001600160a01b038381166001600160a01b0319831681178455604051919092169283917f8be0079c531659141344cd1fd0a4f28419497f9722a3daafe3b4186f6b6457e09190a35050565b5f6020835110156101ea576101e383610201565b90506101fb565b816101f58482610303565b5060ff90505b92915050565b5f5f829050601f8151111561022b578260405163305a27a960e01b815260040161009991906103bd565b8051610236826103f2565b179392505050565b5f6020828403121561024e575f5ffd5b81516001600160a01b0381168114610264575f5ffd5b9392505050565b634e487b7160e01b5f52604160045260245ffd5b600181811c9082168061029357607f821691505b6020821081036102b157634e487b7160e01b5f52602260045260245ffd5b50919050565b601f8211156102fe57805f5260205f20601f840160051c810160208510156102dc5750805b601f840160051c820191505b818110156102fb575f81556001016102e8565b50505b505050565b81516001600160401b0381111561031c5761031c61026b565b6103308161032a845461027f565b846102b7565b6020601f821160018114610362575f831561034b5750848201515b5f19600385901b1c1916600184901b1784556102fb565b5f84815260208120601f198516915b828110156103915787850151825560209485019460019092019101610371565b50848210156103ae57868401515f19600387901b60f8161c191681555b50505050600190811b01905550565b602081525f82518060208401528060208501604085015e5f604082850101526040601f19601f83011684010191505092915050565b805160208083015191908110156102b1575f1960209190910360031b1b16919050565b60805160a05160c05160e0516101005161012051610140516114316104665f395f610bfc01525f610bcf01525f610ab201525f610a8a01525f6109e501525f610a0f01525f610a3901526114315ff3fe608060405234801561000f575f5ffd5b50600436106100f0575f3560e01c806385fd6cf311610093578063d5b9221b11610063578063d5b9221b1461024a578063e5a39c921461026c578063f2fa73921461027f578063f2fde38b14610292575f5ffd5b806385fd6cf3146101c65780638da5cb5b146101d9578063a32ce11e14610217578063bbc4541b1461022a575f5ffd5b80633e06ec8f116100ce5780633e06ec8f1461014857806366d0ead31461015b578063715018a6146101a357806384b0196e146101ab575f5ffd5b80630ee174ec146100f45780631ee447e61461011d5780633644e51514610132575b5f5ffd5b610107610102366004610d6c565b6102a5565b6040516101149190610e23565b60405180910390f35b61013061012b366004610e92565b610375565b005b61013a61042e565b604051908152602001610114565b610130610156366004610fd2565b61043c565b610193610169366004611023565b73ffffffffffffffffffffffffffffffffffffffff165f9081526004602052604090205460ff1690565b6040519015158152602001610114565b6101306104f7565b6101b361050a565b604051610114979695949392919061108f565b6101306101d4366004611023565b610568565b5f5473ffffffffffffffffffffffffffffffffffffffff165b60405173ffffffffffffffffffffffffffffffffffffffff9091168152602001610114565b610107610225366004610d6c565b6105b7565b6005546101f29073ffffffffffffffffffffffffffffffffffffffff1681565b610193610258366004611023565b60046020525f908152604090205460ff1681565b61013061027a36600461114e565b61064b565b61013061028d3660046111b6565b6108d3565b6101306102a0366004611023565b610964565b60408051608080820183525f80835260208084018290528385018290526060840182905273ffffffffffffffffffffffffffffffffffffffff878116835260038083528684209188168452908252918590208551938401909552845460ff80821615158552949594859392850192610100909204169081111561032a5761032a610d9d565b600381111561033b5761033b610d9d565b8152905467ffffffffffffffff620100008204811660208401526a0100000000000000000000909104166040909101529150505b92915050565b73ffffffffffffffffffffffffffffffffffffffff8087165f9081526003602090815260408083208985168452909152902060055473__$fcfe7e8b8f2c2f7f344b6d742dbb8593a1$__9263b2f4bc399291166103d06109cc565b8a8a8a8a8a8a6040518a63ffffffff1660e01b81526004016103fa999897969594939291906111de565b5f6040518083038186803b158015610410575f5ffd5b505af4158015610422573d5f5f3e3d5ffd5b50505050505050505050565b5f6104376109cc565b905090565b335f81815260036020908152604080832073ffffffffffffffffffffffffffffffffffffffff891684529091529081902090517f656cba8800000000000000000000000000000000000000000000000000000000815273__$fcfe7e8b8f2c2f7f344b6d742dbb8593a1$__9263656cba88926104c5929091908990899089908990600401611287565b5f6040518083038186803b1580156104db575f5ffd5b505af41580156104ed573d5f5f3e3d5ffd5b5050505050505050565b6104ff610b02565b6105085f610b54565b565b5f6060805f5f5f606061051b610bc8565b610523610bf5565b604080515f808252602082019092527f0f000000000000000000000000000000000000000000000000000000000000009b939a50919850469750309650945092509050565b610570610b02565b600580547fffffffffffffffffffffffff00000000000000000000000000000000000000001673ffffffffffffffffffffffffffffffffffffffff92909216919091179055565b600360208181525f9384526040808520825292845292829020825160808101909352805460ff8082161515855291948593908501926101009092049091169081111561060557610605610d9d565b600381111561061657610616610d9d565b8152905467ffffffffffffffff620100008204811660208401526a010000000000000000000090910416604090910152905081565b335f9081526004602052604090205460ff16610693576040517fea8e4eb500000000000000000000000000000000000000000000000000000000815260040160405180910390fd5b73ffffffffffffffffffffffffffffffffffffffff8086165f9081526003602081815260408084209489168452938152838320845160808101909552805460ff80821615158752949594919392850192610100909104909116908111156106fc576106fc610d9d565b600381111561070d5761070d610d9d565b8152905467ffffffffffffffff620100008204811660208401526a010000000000000000000090910416604091820152517fa7e4e16100000000000000000000000000000000000000000000000000000000815290915073__$05a947d0c9e5506efad2f4be513ad6e054$__9063a7e4e161906107969084908a908990899089906004016112e2565b5f6040518083038186803b1580156107ac575f5ffd5b505af41580156107be573d5f5f3e3d5ffd5b5050505067ffffffffffffffff8016816040015167ffffffffffffffff16146108cb57806040015167ffffffffffffffff1660010361084f5773ffffffffffffffffffffffffffffffffffffffff8681165f90815260036020908152604080832093891683529290522080547fffffffffffffffffffffffffffffffffffffffffffffffffffffffffffff00ff1690555b73ffffffffffffffffffffffffffffffffffffffff8681165f9081526003602090815260408083209389168352929052208054600191906002906108a490849062010000900467ffffffffffffffff16611365565b92506101000a81548167ffffffffffffffff021916908367ffffffffffffffff1602179055505b505050505050565b6108db610b02565b73ffffffffffffffffffffffffffffffffffffffff82165f8181526004602090815260409182902080547fffffffffffffffffffffffffffffffffffffffffffffffffffffffffffffff001685151590811790915591519182527f3213ab8ec2ed122402f038736b41878b69ae9f61f49a7edd0666bce891d29fc9910160405180910390a25050565b61096c610b02565b73ffffffffffffffffffffffffffffffffffffffff81166109c0576040517f1e4fbdf70000000000000000000000000000000000000000000000000000000081525f60048201526024015b60405180910390fd5b6109c981610b54565b50565b5f3073ffffffffffffffffffffffffffffffffffffffff7f000000000000000000000000000000000000000000000000000000000000000016148015610a3157507f000000000000000000000000000000000000000000000000000000000000000046145b15610a5b57507f000000000000000000000000000000000000000000000000000000000000000090565b610437604080517f8b73c3c69bb8fe3d512ecc4cf759cc79239f7b179b0ffacaa9a75d522b39400f60208201527f0000000000000000000000000000000000000000000000000000000000000000918101919091527f000000000000000000000000000000000000000000000000000000000000000060608201524660808201523060a08201525f9060c00160405160208183030381529060405280519060200120905090565b5f5473ffffffffffffffffffffffffffffffffffffffff163314610508576040517f118cdaa70000000000000000000000000000000000000000000000000000000081523360048201526024016109b7565b5f805473ffffffffffffffffffffffffffffffffffffffff8381167fffffffffffffffffffffffff0000000000000000000000000000000000000000831681178455604051919092169283917f8be0079c531659141344cd1fd0a4f28419497f9722a3daafe3b4186f6b6457e09190a35050565b60606104377f00000000000000000000000000000000000000000000000000000000000000006001610c1e565b60606104377f000000000000000000000000000000000000000000000000000000000000000060025b606060ff8314610c3857610c3183610cc7565b905061036f565b818054610c44906113aa565b80601f0160208091040260200160405190810160405280929190818152602001828054610c70906113aa565b8015610cbb5780601f10610c9257610100808354040283529160200191610cbb565b820191905f5260205f20905b815481529060010190602001808311610c9e57829003601f168201915b5050505050905061036f565b60605f610cd383610d04565b6040805160208082528183019092529192505f91906020820181803683375050509182525060208101929092525090565b5f60ff8216601f81111561036f576040517fb3512b0c00000000000000000000000000000000000000000000000000000000815260040160405180910390fd5b803573ffffffffffffffffffffffffffffffffffffffff81168114610d67575f5ffd5b919050565b5f5f60408385031215610d7d575f5ffd5b610d8683610d44565b9150610d9460208401610d44565b90509250929050565b7f4e487b71000000000000000000000000000000000000000000000000000000005f52602160045260245ffd5b60048110610dda57610dda610d9d565b9052565b8051151582526020810151610df66020840182610dca565b5067ffffffffffffffff604082015116604083015267ffffffffffffffff60608201511660608301525050565b6080810161036f8284610dde565b803560048110610d67575f5ffd5b803567ffffffffffffffff81168114610d67575f5ffd5b80358015158114610d67575f5ffd5b7f4e487b71000000000000000000000000000000000000000000000000000000005f52604160045260245ffd5b5f5f5f5f5f5f60c08789031215610ea7575f5ffd5b610eb087610d44565b9550610ebe60208801610d44565b9450610ecc60408801610e31565b9350610eda60608801610e3f565b9250610ee860808801610e56565b915060a087013567ffffffffffffffff811115610f03575f5ffd5b8701601f81018913610f13575f5ffd5b803567ffffffffffffffff811115610f2d57610f2d610e65565b6040517fffffffffffffffffffffffffffffffffffffffffffffffffffffffffffffffe0603f7fffffffffffffffffffffffffffffffffffffffffffffffffffffffffffffffe0601f8501160116810181811067ffffffffffffffff82111715610f9957610f99610e65565b6040528181528282016020018b1015610fb0575f5ffd5b816020840160208301375f602083830101528093505050509295509295509295565b5f5f5f5f60808587031215610fe5575f5ffd5b610fee85610d44565b9350610ffc60208601610e31565b925061100a60408601610e3f565b915061101860608601610e56565b905092959194509250565b5f60208284031215611033575f5ffd5b61103c82610d44565b9392505050565b5f81518084528060208401602086015e5f6020828601015260207fffffffffffffffffffffffffffffffffffffffffffffffffffffffffffffffe0601f83011685010191505092915050565b7fff000000000000000000000000000000000000000000000000000000000000008816815260e060208201525f6110c960e0830189611043565b82810360408401526110db8189611043565b6060840188905273ffffffffffffffffffffffffffffffffffffffff8716608085015260a0840186905283810360c0850152845180825260208087019350909101905f5b8181101561113d57835183526020938401939092019160010161111f565b50909b9a5050505050505050505050565b5f5f5f5f5f60a08688031215611162575f5ffd5b61116b86610d44565b945061117960208701610d44565b935061118760408701610d44565b925061119560608701610d44565b91506080860135600381106111a8575f5ffd5b809150509295509295909350565b5f5f604083850312156111c7575f5ffd5b6111d083610d44565b9150610d9460208401610e56565b89815273ffffffffffffffffffffffffffffffffffffffff8916602082015287604082015273ffffffffffffffffffffffffffffffffffffffff8716606082015273ffffffffffffffffffffffffffffffffffffffff8616608082015261124860a0820186610dca565b67ffffffffffffffff841660c082015282151560e08201526101206101008201525f611278610120830184611043565b9b9a5050505050505050505050565b86815273ffffffffffffffffffffffffffffffffffffffff86811660208301528516604082015260c081016112bf6060830186610dca565b67ffffffffffffffff8416608083015282151560a0830152979650505050505050565b61010081016112f18288610dde565b73ffffffffffffffffffffffffffffffffffffffff8616608083015273ffffffffffffffffffffffffffffffffffffffff851660a083015273ffffffffffffffffffffffffffffffffffffffff841660c08301526003831061135557611355610d9d565b8260e08301529695505050505050565b67ffffffffffffffff828116828216039081111561036f577f4e487b71000000000000000000000000000000000000000000000000000000005f52601160045260245ffd5b600181811c908216806113be57607f821691505b6020821081036113f5577f4e487b71000000000000000000000000000000000000000000000000000000005f52602260045260245ffd5b5091905056fea26469706673582212204a43191ae0663014b90e71194c0b9e349b362114887878fe4ead20694ec71cc164736f6c634300081e0033","linkReferences":{"src/libraries/BullaClaimPermitLib.sol":{"BullaClaimPermitLib":[{"start":2066,"length":20},{"start":2298,"length":20}]},"src/libraries/BullaClaimValidationLib.sol":{"BullaClaimValidationLib":[{"start":3020,"length":20}]}}},"methodIdentifiers":{"DOMAIN_SEPARATOR()":"3644e515","approvals(address,address)":"a32ce11e","approveCreateClaim(address,uint8,uint64,bool)":"3e06ec8f","authorizedContracts(address)":"d5b9221b","controllerRegistry()":"bbc4541b","eip712Domain()":"84b0196e","getApprovals(address,address)":"0ee174ec","isAuthorizedContract(address)":"66d0ead3","owner()":"8da5cb5b","permitCreateClaim(address,address,uint8,uint64,bool,bytes)":"1ee447e6","renounceOwnership()":"715018a6","setAuthorizedContract(address,bool)":"f2fa7392","setControllerRegistry(address)":"85fd6cf3","spendCreateClaimApproval(address,address,address,address,uint8)":"e5a39c92","transferOwnership(address)":"f2fde38b"},"id":88}