{"abi":[{"type":"constructor","inputs":[{"name":"bullaClaim","type":"address","internalType":"address"},{"name":"_owner","type":"address","internalType":"address"},{"name":"_protocolFeeBPS","type":"uint16","internalType":"uint16"}],"stateMutability":"nonpayable"},{"type":"function","name":"EMPTY_METADATA","inputs":[],"outputs":[{"name":"tokenURI","type":"string","internalType":"string"},{"name":"attachmentURI","type":"string","internalType":"string"}],"stateMutability":"view"},{"type":"function","name":"_bullaClaim","inputs":[],"outputs":[{"name":"","type":"address","internalType":"contract IBullaClaimV2"}],"stateMutability":"view"},{"type":"function","name":"acceptPurchaseOrder","inputs":[{"name":"claimId","type":"uint256","internalType":"uint256"},{"name":"depositAmount","type":"uint256","internalType":"uint256"}],"outputs":[],"stateMutability":"payable"},{"type":"function","name":"addToFeeTokenWhitelist","inputs":[{"name":"token","type":"address","internalType":"address"}],"outputs":[],"stateMutability":"nonpayable"},{"type":"function","name":"admin","inputs":[],"outputs":[{"name":"","type":"address","internalType":"address"}],"stateMutability":"view"},{"type":"function","name":"approve","inputs":[{"name":"to","type":"address","internalType":"address"},{"name":"tokenId","type":"uint256","internalType":"uint256"}],"outputs":[],"stateMutability":"nonpayable"},{"type":"function","name":"balanceOf","inputs":[{"name":"owner","type":"address","internalType":"address"}],"outputs":[{"name":"","type":"uint256","internalType":"uint256"}],"stateMutability":"view"},{"type":"function","name":"cancelInvoice","inputs":[{"name":"claimId","type":"uint256","internalType":"uint256"},{"name":"note","type":"string","internalType":"string"}],"outputs":[],"stateMutability":"nonpayable"},{"type":"function","name":"createInvoice","inputs":[{"name":"params","type":"tuple","internalType":"struct CreateInvoiceParams","components":[{"name":"debtor","type":"address","internalType":"address"},{"name":"creditor","type":"address","internalType":"address"},{"name":"claimAmount","type":"uint256","internalType":"uint256"},{"name":"dueBy","type":"uint256","internalType":"uint256"},{"name":"deliveryDate","type":"uint256","internalType":"uint256"},{"name":"description","type":"string","internalType":"string"},{"name":"token","type":"address","internalType":"address"},{"name":"binding","type":"uint8","internalType":"enum ClaimBinding"},{"name":"lateFeeConfig","type":"tuple","internalType":"struct InterestConfig","components":[{"name":"interestRateBps","type":"uint16","internalType":"uint16"},{"name":"numberOfPeriodsPerYear","type":"uint16","internalType":"uint16"}]},{"name":"impairmentGracePeriod","type":"uint256","internalType":"uint256"},{"name":"depositAmount","type":"uint256","internalType":"uint256"}]}],"outputs":[{"name":"","type":"uint256","internalType":"uint256"}],"stateMutability":"payable"},{"type":"function","name":"createInvoiceWithMetadata","inputs":[{"name":"params","type":"tuple","internalType":"struct CreateInvoiceParams","components":[{"name":"debtor","type":"address","internalType":"address"},{"name":"creditor","type":"address","internalType":"address"},{"name":"claimAmount","type":"uint256","internalType":"uint256"},{"name":"dueBy","type":"uint256","internalType":"uint256"},{"name":"deliveryDate","type":"uint256","internalType":"uint256"},{"name":"description","type":"string","internalType":"string"},{"name":"token","type":"address","internalType":"address"},{"name":"binding","type":"uint8","internalType":"enum ClaimBinding"},{"name":"lateFeeConfig","type":"tuple","internalType":"struct InterestConfig","components":[{"name":"interestRateBps","type":"uint16","internalType":"uint16"},{"name":"numberOfPeriodsPerYear","type":"uint16","internalType":"uint16"}]},{"name":"impairmentGracePeriod","type":"uint256","internalType":"uint256"},{"name":"depositAmount","type":"uint256","internalType":"uint256"}]},{"name":"metadata","type":"tuple","internalType":"struct ClaimMetadata","components":[{"name":"tokenURI","type":"string","internalType":"string"},{"name":"attachmentURI","type":"string","internalType":"string"}]}],"outputs":[{"name":"","type":"uint256","internalType":"uint256"}],"stateMutability":"payable"},{"type":"function","name":"deliverPurchaseOrder","inputs":[{"name":"claimId","type":"uint256","internalType":"uint256"}],"outputs":[],"stateMutability":"nonpayable"},{"type":"function","name":"getApproved","inputs":[{"name":"tokenId","type":"uint256","internalType":"uint256"}],"outputs":[{"name":"","type":"address","internalType":"address"}],"stateMutability":"view"},{"type":"function","name":"getInvoice","inputs":[{"name":"claimId","type":"uint256","internalType":"uint256"}],"outputs":[{"name":"","type":"tuple","internalType":"struct Invoice","components":[{"name":"claimAmount","type":"uint256","internalType":"uint256"},{"name":"paidAmount","type":"uint256","internalType":"uint256"},{"name":"dueBy","type":"uint256","internalType":"uint256"},{"name":"creditor","type":"address","internalType":"address"},{"name":"debtor","type":"address","internalType":"address"},{"name":"token","type":"address","internalType":"address"},{"name":"status","type":"uint8","internalType":"enum Status"},{"name":"binding","type":"uint8","internalType":"enum ClaimBinding"},{"name":"purchaseOrder","type":"tuple","internalType":"struct PurchaseOrderState","components":[{"name":"deliveryDate","type":"uint256","internalType":"uint256"},{"name":"depositAmount","type":"uint256","internalType":"uint256"},{"name":"isDelivered","type":"bool","internalType":"bool"}]},{"name":"lateFeeConfig","type":"tuple","internalType":"struct InterestConfig","components":[{"name":"interestRateBps","type":"uint16","internalType":"uint16"},{"name":"numberOfPeriodsPerYear","type":"uint16","internalType":"uint16"}]},{"name":"interestComputationState","type":"tuple","internalType":"struct InterestComputationState","components":[{"name":"accruedInterest","type":"uint256","internalType":"uint256"},{"name":"latestPeriodNumber","type":"uint256","internalType":"uint256"},{"name":"protocolFeeBps","type":"uint16","internalType":"uint16"},{"name":"totalGrossInterestPaid","type":"uint256","internalType":"uint256"}]}]}],"stateMutability":"view"},{"type":"function","name":"getTotalAmountNeededForPurchaseOrderDeposit","inputs":[{"name":"claimId","type":"uint256","internalType":"uint256"}],"outputs":[{"name":"","type":"uint256","internalType":"uint256"}],"stateMutability":"nonpayable"},{"type":"function","name":"impairInvoice","inputs":[{"name":"claimId","type":"uint256","internalType":"uint256"}],"outputs":[],"stateMutability":"nonpayable"},{"type":"function","name":"isApprovedForAll","inputs":[{"name":"owner","type":"address","internalType":"address"},{"name":"operator","type":"address","internalType":"address"}],"outputs":[{"name":"","type":"bool","internalType":"bool"}],"stateMutability":"view"},{"type":"function","name":"markInvoiceAsPaid","inputs":[{"name":"claimId","type":"uint256","internalType":"uint256"}],"outputs":[],"stateMutability":"nonpayable"},{"type":"function","name":"owner","inputs":[],"outputs":[{"name":"","type":"address","internalType":"address"}],"stateMutability":"view"},{"type":"function","name":"ownerOf","inputs":[{"name":"tokenId","type":"uint256","internalType":"uint256"}],"outputs":[{"name":"","type":"address","internalType":"address"}],"stateMutability":"view"},{"type":"function","name":"payInvoice","inputs":[{"name":"claimId","type":"uint256","internalType":"uint256"},{"name":"paymentAmount","type":"uint256","internalType":"uint256"}],"outputs":[],"stateMutability":"payable"},{"type":"function","name":"protocolFeeBPS","inputs":[],"outputs":[{"name":"","type":"uint16","internalType":"uint16"}],"stateMutability":"view"},{"type":"function","name":"protocolFeeTokenWhitelist","inputs":[{"name":"","type":"address","internalType":"address"}],"outputs":[{"name":"","type":"bool","internalType":"bool"}],"stateMutability":"view"},{"type":"function","name":"protocolFeesByToken","inputs":[{"name":"","type":"address","internalType":"address"}],"outputs":[{"name":"","type":"uint256","internalType":"uint256"}],"stateMutability":"view"},{"type":"function","name":"removeFromFeeTokenWhitelist","inputs":[{"name":"token","type":"address","internalType":"address"}],"outputs":[],"stateMutability":"nonpayable"},{"type":"function","name":"renounceOwnership","inputs":[],"outputs":[],"stateMutability":"nonpayable"},{"type":"function","name":"safeTransferFrom","inputs":[{"name":"from","type":"address","internalType":"address"},{"name":"to","type":"address","internalType":"address"},{"name":"tokenId","type":"uint256","internalType":"uint256"}],"outputs":[],"stateMutability":"nonpayable"},{"type":"function","name":"safeTransferFrom","inputs":[{"name":"from","type":"address","internalType":"address"},{"name":"to","type":"address","internalType":"address"},{"name":"tokenId","type":"uint256","internalType":"uint256"},{"name":"data","type":"bytes","internalType":"bytes"}],"outputs":[],"stateMutability":"nonpayable"},{"type":"function","name":"setApprovalForAll","inputs":[{"name":"operator","type":"address","internalType":"address"},{"name":"approved","type":"bool","internalType":"bool"}],"outputs":[],"stateMutability":"nonpayable"},{"type":"function","name":"setPaidInvoiceCallback","inputs":[{"name":"invoiceId","type":"uint256","internalType":"uint256"},{"name":"callbackContract","type":"address","internalType":"address"},{"name":"callbackSelector","type":"bytes4","internalType":"bytes4"}],"outputs":[],"stateMutability":"nonpayable"},{"type":"function","name":"setProtocolFee","inputs":[{"name":"_protocolFeeBPS","type":"uint16","internalType":"uint16"}],"outputs":[],"stateMutability":"nonpayable"},{"type":"function","name":"supportsInterface","inputs":[{"name":"interfaceId","type":"bytes4","internalType":"bytes4"}],"outputs":[{"name":"","type":"bool","internalType":"bool"}],"stateMutability":"view"},{"type":"function","name":"transferFrom","inputs":[{"name":"from","type":"address","internalType":"address"},{"name":"to","type":"address","internalType":"address"},{"name":"tokenId","type":"uint256","internalType":"uint256"}],"outputs":[],"stateMutability":"nonpayable"},{"type":"function","name":"transferOwnership","inputs":[{"name":"newOwner","type":"address","internalType":"address"}],"outputs":[],"stateMutability":"nonpayable"},{"type":"function","name":"updateBinding","inputs":[{"name":"claimId","type":"uint256","internalType":"uint256"},{"name":"binding","type":"uint8","internalType":"enum ClaimBinding"}],"outputs":[],"stateMutability":"nonpayable"},{"type":"function","name":"whitelistedProtocolFeeTokens","inputs":[{"name":"","type":"uint256","internalType":"uint256"}],"outputs":[{"name":"","type":"address","internalType":"address"}],"stateMutability":"view"},{"type":"function","name":"withdrawAllFees","inputs":[],"outputs":[],"stateMutability":"nonpayable"},{"type":"event","name":"Approval","inputs":[{"name":"owner","type":"address","indexed":true,"internalType":"address"},{"name":"approved","type":"address","indexed":true,"internalType":"address"},{"name":"tokenId","type":"uint256","indexed":true,"internalType":"uint256"}],"anonymous":false},{"type":"event","name":"ApprovalForAll","inputs":[{"name":"owner","type":"address","indexed":true,"internalType":"address"},{"name":"operator","type":"address","indexed":true,"internalType":"address"},{"name":"approved","type":"bool","indexed":false,"internalType":"bool"}],"anonymous":false},{"type":"event","name":"FeeWithdrawn","inputs":[{"name":"admin","type":"address","indexed":true,"internalType":"address"},{"name":"token","type":"address","indexed":true,"internalType":"address"},{"name":"amount","type":"uint256","indexed":false,"internalType":"uint256"}],"anonymous":false},{"type":"event","name":"InvoiceCreated","inputs":[{"name":"claimId","type":"uint256","indexed":true,"internalType":"uint256"},{"name":"invoiceDetails","type":"tuple","indexed":false,"internalType":"struct InvoiceDetails","components":[{"name":"requestedByCreditor","type":"bool","internalType":"bool"},{"name":"isProtocolFeeExempt","type":"bool","internalType":"bool"},{"name":"purchaseOrder","type":"tuple","internalType":"struct PurchaseOrderState","components":[{"name":"deliveryDate","type":"uint256","internalType":"uint256"},{"name":"depositAmount","type":"uint256","internalType":"uint256"},{"name":"isDelivered","type":"bool","internalType":"bool"}]},{"name":"lateFeeConfig","type":"tuple","internalType":"struct InterestConfig","components":[{"name":"interestRateBps","type":"uint16","internalType":"uint16"},{"name":"numberOfPeriodsPerYear","type":"uint16","internalType":"uint16"}]},{"name":"interestComputationState","type":"tuple","internalType":"struct InterestComputationState","components":[{"name":"accruedInterest","type":"uint256","internalType":"uint256"},{"name":"latestPeriodNumber","type":"uint256","internalType":"uint256"},{"name":"protocolFeeBps","type":"uint16","internalType":"uint16"},{"name":"totalGrossInterestPaid","type":"uint256","internalType":"uint256"}]}]},{"name":"fee","type":"uint256","indexed":false,"internalType":"uint256"},{"name":"metadata","type":"tuple","indexed":false,"internalType":"struct ClaimMetadata","components":[{"name":"tokenURI","type":"string","internalType":"string"},{"name":"attachmentURI","type":"string","internalType":"string"}]}],"anonymous":false},{"type":"event","name":"InvoicePaid","inputs":[{"name":"claimId","type":"uint256","indexed":true,"internalType":"uint256"},{"name":"grossInterestPaid","type":"uint256","indexed":false,"internalType":"uint256"},{"name":"principalPaid","type":"uint256","indexed":false,"internalType":"uint256"},{"name":"protocolFee","type":"uint256","indexed":false,"internalType":"uint256"}],"anonymous":false},{"type":"event","name":"OwnershipTransferred","inputs":[{"name":"previousOwner","type":"address","indexed":true,"internalType":"address"},{"name":"newOwner","type":"address","indexed":true,"internalType":"address"}],"anonymous":false},{"type":"event","name":"ProtocolFeeUpdated","inputs":[{"name":"oldFee","type":"uint16","indexed":false,"internalType":"uint16"},{"name":"newFee","type":"uint16","indexed":false,"internalType":"uint16"}],"anonymous":false},{"type":"event","name":"PurchaseOrderAccepted","inputs":[{"name":"claimId","type":"uint256","indexed":true,"internalType":"uint256"},{"name":"debtor","type":"address","indexed":true,"internalType":"address"},{"name":"depositAmount","type":"uint256","indexed":false,"internalType":"uint256"},{"name":"bound","type":"bool","indexed":false,"internalType":"bool"}],"anonymous":false},{"type":"event","name":"PurchaseOrderDelivered","inputs":[{"name":"claimId","type":"uint256","indexed":true,"internalType":"uint256"}],"anonymous":false},{"type":"event","name":"TokenAddedToFeesWhitelist","inputs":[{"name":"token","type":"address","indexed":true,"internalType":"address"}],"anonymous":false},{"type":"event","name":"TokenRemovedFromFeesWhitelist","inputs":[{"name":"token","type":"address","indexed":true,"internalType":"address"}],"anonymous":false},{"type":"event","name":"Transfer","inputs":[{"name":"from","type":"address","indexed":true,"internalType":"address"},{"name":"to","type":"address","indexed":true,"internalType":"address"},{"name":"tokenId","type":"uint256","indexed":true,"internalType":"uint256"}],"anonymous":false},{"type":"error","name":"CallbackFailed","inputs":[{"name":"data","type":"bytes","internalType":"bytes"}]},{"type":"error","name":"IncorrectFee","inputs":[]},{"type":"error","name":"IncorrectMsgValue","inputs":[]},{"type":"error","name":"InvalidDeliveryDate","inputs":[]},{"type":"error","name":"InvalidDepositAmount","inputs":[]},{"type":"error","name":"InvalidMsgValue","inputs":[]},{"type":"error","name":"InvalidProtocolFee","inputs":[]},{"type":"error","name":"InvoiceNotPending","inputs":[]},{"type":"error","name":"NotAuthorizedForBinding","inputs":[]},{"type":"error","name":"NotController","inputs":[{"name":"sender","type":"address","internalType":"address"}]},{"type":"error","name":"NotCreditorOrDebtor","inputs":[]},{"type":"error","name":"NotOriginalCreditor","inputs":[]},{"type":"error","name":"NotPurchaseOrder","inputs":[]},{"type":"error","name":"OwnableInvalidOwner","inputs":[{"name":"owner","type":"address","internalType":"address"}]},{"type":"error","name":"OwnableUnauthorizedAccount","inputs":[{"name":"account","type":"address","internalType":"address"}]},{"type":"error","name":"PayingZero","inputs":[]},{"type":"error","name":"PurchaseOrderAlreadyDelivered","inputs":[]}],"bytecode":{"object":"0x5f60e081815260a081815261012060405261010092835260c092909252600190819061002b90826101e1565b506020820151600182019061004090826101e1565b50505034801561004e575f5ffd5b50604051615a75380380615a7583398101604081905261006d916102b6565b6001600160a01b03808416608052829081166100a257604051631e4fbdf760e01b81525f600482015260240160405180910390fd5b6100ab816100fa565b5061271061ffff821611156100d357604051631752ff0760e31b815260040160405180910390fd5b5f805461ffff909216600160a01b0261ffff60a01b19909216919091179055506103009050565b5f80546001600160a01b038381166001600160a01b0319831681178455604051919092169283917f8be0079c531659141344cd1fd0a4f28419497f9722a3daafe3b4186f6b6457e09190a35050565b634e487b7160e01b5f52604160045260245ffd5b600181811c9082168061017157607f821691505b60208210810361018f57634e487b7160e01b5f52602260045260245ffd5b50919050565b601f8211156101dc57805f5260205f20601f840160051c810160208510156101ba5750805b601f840160051c820191505b818110156101d9575f81556001016101c6565b50505b505050565b81516001600160401b038111156101fa576101fa610149565b61020e81610208845461015d565b84610195565b6020601f821160018114610240575f83156102295750848201515b5f19600385901b1c1916600184901b1784556101d9565b5f84815260208120601f198516915b8281101561026f578785015182556020948501946001909201910161024f565b508482101561028c57868401515f19600387901b60f8161c191681555b50505050600190811b01905550565b80516001600160a01b03811681146102b1575f5ffd5b919050565b5f5f5f606084860312156102c8575f5ffd5b6102d18461029b565b92506102df6020850161029b565b9150604084015161ffff811681146102f5575f5ffd5b809150509250925092565b60805161565a61041b5f395f818161034e0152818161080b015281816108bb0152818161099c01528181610a2b01528181610aef01528181610b9101528181610c5501528181610cca01528181610db301528181610ede015281816112410152818161130d015281816114fc015281816115c801528181611632015281816116a7015281816119e301528181611cda01528181611fc20152818161223901528181612305015281816123a80152818161263c0152818161276301528181612a4701528181612d3601528181612dd201528181612edb01528181612f3b01528181613369015281816134fe015281816135fc0152818161388a015281816139ad01528181613ad501528181613c7a0152613d35015261565a5ff3fe608060405260043610610243575f3560e01c80638245999511610131578063cc368b1d116100ac578063ebd2214c1161007c578063f2fde38b11610062578063f2fde38b146106b5578063f851a44014610513578063fac6f215146106d4575f5ffd5b8063ebd2214c14610683578063f02f03fc146106a2575f5ffd5b8063cc368b1d14610613578063d4251f9e14610626578063e4467f3514610645578063e985e9c514610664575f5ffd5b8063a22cb46511610101578063a5cc6a7f116100e7578063a5cc6a7f146105b2578063af236af4146105e0578063b88d4fde146105f4575f5ffd5b8063a22cb46514610580578063a4a1d84e1461059f575f5ffd5b806382459995146104d557806389339744146104f45780638da5cb5b1461051357806396daa3221461053c575f5ffd5b80633f97833b116101c15780635edc84eb1161019157806367d1f0621161017757806367d1f0621461048357806370a08231146104a2578063715018a6146104c1575f5ffd5b80635edc84eb146104455780636352211e14610464575f5ffd5b80633f97833b146103d557806342842e0e146103f45780634be18e94146104135780634ef5494e14610432575f5ffd5b80631be4c4d4116102165780632b538af5116101fc5780632b538af51461033d57806339737e07146103705780633a23cc0a146103a9575f5ffd5b80631be4c4d4146102ff57806323b872dd1461031e575f5ffd5b806301ffc9a714610247578063081812fc1461027b578063095ea7b3146102bf5780630f2c513d146102e0575b5f5ffd5b348015610252575f5ffd5b50610266610261366004614770565b6106f6565b60405190151581526020015b60405180910390f35b348015610286575f5ffd5b5061029a61029536600461478b565b6107da565b60405173ffffffffffffffffffffffffffffffffffffffff9091168152602001610272565b3480156102ca575f5ffd5b506102de6102d93660046147d3565b61088a565b005b3480156102eb575f5ffd5b506102de6102fa36600461478b565b6109fa565b34801561030a575f5ffd5b506102de61031936600461478b565b610b60565b348015610329575f5ffd5b506102de6103383660046147fd565b610c99565b348015610348575f5ffd5b5061029a7f000000000000000000000000000000000000000000000000000000000000000081565b34801561037b575f5ffd5b5061039b61038a36600461483b565b60046020525f908152604090205481565b604051908152602001610272565b3480156103b4575f5ffd5b506103c86103c336600461478b565b610e12565b60405161027291906148a7565b3480156103e0575f5ffd5b506102de6103ef366004614b18565b611210565b3480156103ff575f5ffd5b506102de61040e3660046147fd565b611346565b34801561041e575f5ffd5b5061029a61042d36600461478b565b611360565b61039b610440366004614c98565b611395565b348015610450575f5ffd5b506102de61045f366004614cca565b6114cb565b34801561046f575f5ffd5b5061029a61047e36600461478b565b611601565b34801561048e575f5ffd5b506102de61049d36600461478b565b611676565b3480156104ad575f5ffd5b5061039b6104bc36600461483b565b61199c565b3480156104cc575f5ffd5b506102de611a4e565b3480156104e0575f5ffd5b506102de6104ef36600461483b565b611a61565b3480156104ff575f5ffd5b5061039b61050e36600461478b565b611c92565b34801561051e575f5ffd5b505f5473ffffffffffffffffffffffffffffffffffffffff1661029a565b348015610547575f5ffd5b505f5461056d9074010000000000000000000000000000000000000000900461ffff1681565b60405161ffff9091168152602001610272565b34801561058b575f5ffd5b506102de61059a366004614d05565b611f75565b61039b6105ad366004614d31565b611ff5565b3480156105bd575f5ffd5b506102666105cc36600461483b565b60056020525f908152604090205460ff1681565b3480156105eb575f5ffd5b506102de612007565b3480156105ff575f5ffd5b506102de61060e366004614df5565b612208565b6102de610621366004614e70565b612377565b348015610631575f5ffd5b506102de61064036600461483b565b612af1565b348015610650575f5ffd5b506102de61065f366004614e90565b612c10565b34801561066f575f5ffd5b5061026661067e366004614eab565b612ce7565b34801561068e575f5ffd5b506102de61069d366004614ed7565b612da1565b6102de6106b0366004614e70565b612f0a565b3480156106c0575f5ffd5b506102de6106cf36600461483b565b6136b1565b3480156106df575f5ffd5b506106e8613719565b604051610272929190614f62565b5f7fffffffff0000000000000000000000000000000000000000000000000000000082167fd620eb1700000000000000000000000000000000000000000000000000000000148061078857507f80ac58cd000000000000000000000000000000000000000000000000000000007fffffffff000000000000000000000000000000000000000000000000000000008316145b806107d457507f01ffc9a7000000000000000000000000000000000000000000000000000000007fffffffff000000000000000000000000000000000000000000000000000000008316145b92915050565b6040517f081812fc000000000000000000000000000000000000000000000000000000008152600481018290525f907f000000000000000000000000000000000000000000000000000000000000000073ffffffffffffffffffffffffffffffffffffffff169063081812fc906024015b602060405180830381865afa158015610866573d5f5f3e3d5ffd5b505050506040513d601f19601f820116820180604052508101906107d49190614f91565b6040517f5aef2447000000000000000000000000000000000000000000000000000000008152600481018290525f907f000000000000000000000000000000000000000000000000000000000000000073ffffffffffffffffffffffffffffffffffffffff1690635aef24479060240161016060405180830381865afa158015610916573d5f5f3e3d5ffd5b505050506040513d601f19601f8201168201806040525081019061093a9190614fc5565b905061094a816101000151613835565b6040517f52ec852900000000000000000000000000000000000000000000000000000000815233600482015273ffffffffffffffffffffffffffffffffffffffff8481166024830152604482018490527f000000000000000000000000000000000000000000000000000000000000000016906352ec8529906064015b5f604051808303815f87803b1580156109de575f5ffd5b505af11580156109f0573d5f5f3e3d5ffd5b505050505b505050565b6040517f5aef2447000000000000000000000000000000000000000000000000000000008152600481018290525f907f000000000000000000000000000000000000000000000000000000000000000073ffffffffffffffffffffffffffffffffffffffff1690635aef24479060240161016060405180830381865afa158015610a86573d5f5f3e3d5ffd5b505050506040513d601f19601f82011682018060405250810190610aaa9190614fc5565b9050610aba816101000151613835565b6040517f2a982aeb000000000000000000000000000000000000000000000000000000008152336004820152602481018390527f000000000000000000000000000000000000000000000000000000000000000073ffffffffffffffffffffffffffffffffffffffff1690632a982aeb906044015b5f604051808303815f87803b158015610b46575f5ffd5b505af1158015610b58573d5f5f3e3d5ffd5b505050505050565b6040517f5aef2447000000000000000000000000000000000000000000000000000000008152600481018290525f907f000000000000000000000000000000000000000000000000000000000000000073ffffffffffffffffffffffffffffffffffffffff1690635aef24479060240161016060405180830381865afa158015610bec573d5f5f3e3d5ffd5b505050506040513d601f19601f82011682018060405250810190610c109190614fc5565b9050610c20816101000151613835565b6040517f3081ed8a000000000000000000000000000000000000000000000000000000008152336004820152602481018390527f000000000000000000000000000000000000000000000000000000000000000073ffffffffffffffffffffffffffffffffffffffff1690633081ed8a90604401610b2f565b6040517f5aef2447000000000000000000000000000000000000000000000000000000008152600481018290525f907f000000000000000000000000000000000000000000000000000000000000000073ffffffffffffffffffffffffffffffffffffffff1690635aef24479060240161016060405180830381865afa158015610d25573d5f5f3e3d5ffd5b505050506040513d601f19601f82011682018060405250810190610d499190614fc5565b9050610d59816101000151613835565b6040517faf9fe4de00000000000000000000000000000000000000000000000000000000815233600482015273ffffffffffffffffffffffffffffffffffffffff85811660248301528481166044830152606482018490527f0000000000000000000000000000000000000000000000000000000000000000169063af9fe4de906084015b5f604051808303815f87803b158015610df5575f5ffd5b505af1158015610e07573d5f5f3e3d5ffd5b505050505b50505050565b610ead60408051610160810182525f80825260208083018290528284018290526060808401839052608080850184905260a0850184905260c0850184905260e08501849052855180830187528481528084018590528087018590526101008601528551808701875284815280840185905261012086015285519081018652838152918201839052938101829052928301529061014082015290565b6040517f5aef2447000000000000000000000000000000000000000000000000000000008152600481018390525f907f000000000000000000000000000000000000000000000000000000000000000073ffffffffffffffffffffffffffffffffffffffff1690635aef24479060240161016060405180830381865afa158015610f39573d5f5f3e3d5ffd5b505050506040513d601f19601f82011682018060405250810190610f5d9190614fc5565b9050610f6d816101000151613835565b5f838152600660208181526040808420815160a081018352815460ff8082161515835261010090910481161515828601528351606080820186526001850154825260028501548288015260038501549092161515818601528285015283518085018552600484015461ffff8082168352620100009091048116828801528284019190915284516080818101875260058601548252978501549681019690965260078401541693850193909352600890910154918301919091529182015290826101200151600581111561104257611042614856565b148061106457506001826101200151600581111561106257611062614856565b145b8061108557506005826101200151600581111561108357611083614856565b145b1561112a5773__$4bbbaa6d90f42a60403c514cce5191a63a$__63ff7f44438360200151845f01516110b791906150b3565b8460400151846060015185608001516040518563ffffffff1660e01b81526004016110e594939291906150c6565b608060405180830381865af4158015611100573d5f5f3e3d5ffd5b505050506040513d601f19601f82011682018060405250810190611124919061511b565b60808201525b604051806101600160405280835f0151815260200183602001518152602001836040015181526020018360c0015173ffffffffffffffffffffffffffffffffffffffff1681526020018360a0015173ffffffffffffffffffffffffffffffffffffffff1681526020018360e0015173ffffffffffffffffffffffffffffffffffffffff16815260200183610120015160058111156111ca576111ca614856565b815260200183610140015160028111156111e6576111e6614856565b81526020018260400151815260200182606001518152602001826080015181525092505050919050565b6040517f5aef2447000000000000000000000000000000000000000000000000000000008152600481018390525f907f000000000000000000000000000000000000000000000000000000000000000073ffffffffffffffffffffffffffffffffffffffff1690635aef24479060240161016060405180830381865afa15801561129c573d5f5f3e3d5ffd5b505050506040513d601f19601f820116820180604052508101906112c09190614fc5565b90506112d0816101000151613835565b6040517f708cf83200000000000000000000000000000000000000000000000000000000815273ffffffffffffffffffffffffffffffffffffffff7f0000000000000000000000000000000000000000000000000000000000000000169063708cf832906109c790339087908790600401615187565b6109f583838360405180602001604052805f815250612208565b6003818154811061136f575f80fd5b5f9182526020909120015473ffffffffffffffffffffffffffffffffffffffff16905081565b5f6107d48260016040518060400160405290815f820180546113b6906151bb565b80601f01602080910402602001604051908101604052809291908181526020018280546113e2906151bb565b801561142d5780601f106114045761010080835404028352916020019161142d565b820191905f5260205f20905b81548152906001019060200180831161141057829003601f168201915b50505050508152602001600182018054611446906151bb565b80601f0160208091040260200160405190810160405280929190818152602001828054611472906151bb565b80156114bd5780601f10611494576101008083540402835291602001916114bd565b820191905f5260205f20905b8154815290600101906020018083116114a057829003601f168201915b505050505081525050613886565b6040517f5aef2447000000000000000000000000000000000000000000000000000000008152600481018390525f907f000000000000000000000000000000000000000000000000000000000000000073ffffffffffffffffffffffffffffffffffffffff1690635aef24479060240161016060405180830381865afa158015611557573d5f5f3e3d5ffd5b505050506040513d601f19601f8201168201806040525081019061157b9190614fc5565b905061158b816101000151613835565b6040517f6418bde900000000000000000000000000000000000000000000000000000000815273ffffffffffffffffffffffffffffffffffffffff7f00000000000000000000000000000000000000000000000000000000000000001690636418bde9906109c79033908790879060040161520c565b6040517f6352211e000000000000000000000000000000000000000000000000000000008152600481018290525f907f000000000000000000000000000000000000000000000000000000000000000073ffffffffffffffffffffffffffffffffffffffff1690636352211e9060240161084b565b6040517f5aef2447000000000000000000000000000000000000000000000000000000008152600481018290525f907f000000000000000000000000000000000000000000000000000000000000000073ffffffffffffffffffffffffffffffffffffffff1690635aef24479060240161016060405180830381865afa158015611702573d5f5f3e3d5ffd5b505050506040513d601f19601f820116820180604052508101906117269190614fc5565b9050611736816101000151613835565b5f82815260066020818152604092839020835160a081018552815460ff8082161515835261010090910481161515828501528551606080820188526001850154825260028501548287015260038501549092161515818801528287015285518087018752600484015461ffff8082168352620100009091048116828701528284019190915286516080818101895260058601548252968501549581019590955260078401541695840195909552600890910154938201939093528183015282015173ffffffffffffffffffffffffffffffffffffffff163314611845576040517f0522212c00000000000000000000000000000000000000000000000000000000815260040160405180910390fd5b6040810151515f03611883576040517f23e70d2000000000000000000000000000000000000000000000000000000000815260040160405180910390fd5b806040015160400151156118c3576040517fb626b50000000000000000000000000000000000000000000000000000000000815260040160405180910390fd5b5f82610120015160058111156118db576118db614856565b141580156119005750600182610120015160058111156118fd576118fd614856565b14155b15611937576040517f75bc465a00000000000000000000000000000000000000000000000000000000815260040160405180910390fd5b5f8381526006602052604080822060030180547fffffffffffffffffffffffffffffffffffffffffffffffffffffffffffffff001660011790555184917f13840a69aa8d3b45706f548e51e80334bbba1a83284633b2af26778afa692d3591a2505050565b6040517f70a0823100000000000000000000000000000000000000000000000000000000815273ffffffffffffffffffffffffffffffffffffffff82811660048301525f917f0000000000000000000000000000000000000000000000000000000000000000909116906370a0823190602401602060405180830381865afa158015611a2a573d5f5f3e3d5ffd5b505050506040513d601f19601f820116820180604052508101906107d4919061523d565b611a56614010565b611a5f5f614062565b565b611a69614010565b73ffffffffffffffffffffffffffffffffffffffff81165f9081526005602052604090205460ff1615611c4f5773ffffffffffffffffffffffffffffffffffffffff81165f90815260056020526040812080547fffffffffffffffffffffffffffffffffffffffffffffffffffffffffffffff001690555b600354811015611c4d578173ffffffffffffffffffffffffffffffffffffffff1660038281548110611b1557611b15615254565b5f9182526020909120015473ffffffffffffffffffffffffffffffffffffffff1603611c455760038054611b4b906001906150b3565b81548110611b5b57611b5b615254565b5f918252602090912001546003805473ffffffffffffffffffffffffffffffffffffffff9092169183908110611b9357611b93615254565b905f5260205f20015f6101000a81548173ffffffffffffffffffffffffffffffffffffffff021916908373ffffffffffffffffffffffffffffffffffffffff1602179055506003805480611be957611be9615281565b5f8281526020902081017fffffffffffffffffffffffffffffffffffffffffffffffffffffffffffffffff90810180547fffffffffffffffffffffffff0000000000000000000000000000000000000000169055019055611c4d565b600101611ae1565b505b60405173ffffffffffffffffffffffffffffffffffffffff8216907fceeec53cbb10af8d416c74d15b37f2c8761d65af488132f6de71b01176ad2334905f90a250565b6040517f5aef2447000000000000000000000000000000000000000000000000000000008152600481018290525f90819073ffffffffffffffffffffffffffffffffffffffff7f00000000000000000000000000000000000000000000000000000000000000001690635aef24479060240161016060405180830381865afa158015611d20573d5f5f3e3d5ffd5b505050506040513d601f19601f82011682018060405250810190611d449190614fc5565b9050611d54816101000151613835565b5f83815260066020818152604092839020835160a081018552815460ff80821615158352610100909104811615158285015285516060808201885260018501548252600285015482870152600385015490921615158188015282870190815286518088018852600485015461ffff80821683526201000090910481168288015283850191909152875160808181018a5260058701548252978601549681019690965260078501541696850196909652600890920154918301919091529182015290515115801590611e2b5750806040015160400151155b15611f6c5781602001518160400151602001511115611f6c575f73__$4bbbaa6d90f42a60403c514cce5191a63a$__63ff7f44438460200151855f0151611e7291906150b3565b8560400151856060015186608001516040518563ffffffff1660e01b8152600401611ea094939291906150c6565b608060405180830381865af4158015611ebb573d5f5f3e3d5ffd5b505050506040513d601f19601f82011682018060405250810190611edf919061511b565b60608301515190915061ffff1615611f58575f85815260066020818152604092839020845160058201559084015191810191909155908201516007820180547fffffffffffffffffffffffffffffffffffffffffffffffffffffffffffff00001661ffff90921691909117905560608201516008909101555b611f638383836140d6565b95945050505050565b505f9392505050565b6040517fa22cb46500000000000000000000000000000000000000000000000000000000815273ffffffffffffffffffffffffffffffffffffffff838116600483015282151560248301527f0000000000000000000000000000000000000000000000000000000000000000169063a22cb46590604401610b2f565b5050565b5f6120008383613886565b9392505050565b61200f614010565b4780156120bc57612054816120385f5473ffffffffffffffffffffffffffffffffffffffff1690565b73ffffffffffffffffffffffffffffffffffffffff1690614134565b5f805473ffffffffffffffffffffffffffffffffffffffff1673ffffffffffffffffffffffffffffffffffffffff167eed5939179dc194223f0edd1517ecee2210b22da7f82c8e4b1795e93b9f06aa836040516120b391815260200190565b60405180910390a35b5f5b600354811015611ff1575f600382815481106120dc576120dc615254565b5f91825260208083209091015473ffffffffffffffffffffffffffffffffffffffff16808352600490915260409091205490915080156121fe5773ffffffffffffffffffffffffffffffffffffffff82165f9081526004602052604081205561217a61215c5f5473ffffffffffffffffffffffffffffffffffffffff1690565b73ffffffffffffffffffffffffffffffffffffffff841690836141a6565b8173ffffffffffffffffffffffffffffffffffffffff166121af5f5473ffffffffffffffffffffffffffffffffffffffff1690565b73ffffffffffffffffffffffffffffffffffffffff167eed5939179dc194223f0edd1517ecee2210b22da7f82c8e4b1795e93b9f06aa836040516121f591815260200190565b60405180910390a35b50506001016120be565b6040517f5aef2447000000000000000000000000000000000000000000000000000000008152600481018390525f907f000000000000000000000000000000000000000000000000000000000000000073ffffffffffffffffffffffffffffffffffffffff1690635aef24479060240161016060405180830381865afa158015612294573d5f5f3e3d5ffd5b505050506040513d601f19601f820116820180604052508101906122b89190614fc5565b90506122c8816101000151613835565b6040517ffcf391e000000000000000000000000000000000000000000000000000000000815273ffffffffffffffffffffffffffffffffffffffff7f0000000000000000000000000000000000000000000000000000000000000000169063fcf391e09061234290339089908990899089906004016152ae565b5f604051808303815f87803b158015612359575f5ffd5b505af115801561236b573d5f5f3e3d5ffd5b505050505b5050505050565b6040517f5aef2447000000000000000000000000000000000000000000000000000000008152600481018390525f907f000000000000000000000000000000000000000000000000000000000000000073ffffffffffffffffffffffffffffffffffffffff1690635aef24479060240161016060405180830381865afa158015612403573d5f5f3e3d5ffd5b505050506040513d601f19601f820116820180604052508101906124279190614fc5565b9050612437816101000151613835565b5f838152600660208181526040808420815160a081018352815460ff8082161515835261010090910481161515828601528351606080820186526001850154825260028501548288015260038501549092161515818601528285015283518085018552600484015461ffff808216835262010000909104811682880152828401919091528451608081810187526005860154825297850154818801526007850154909116948101949094526008909201549183019190915292830152830151835191929173__$4bbbaa6d90f42a60403c514cce5191a63a$__9163ff7f44439161252191906150b3565b8560400151856060015186608001516040518563ffffffff1660e01b815260040161254f94939291906150c6565b608060405180830381865af415801561256a573d5f5f3e3d5ffd5b505050506040513d601f19601f8201168201806040525081019061258e919061511b565b90505f61259e85835f015161425b565b90505f6125c46125ae83886150b3565b602087015187516125bf91906150b3565b61425b565b90506125d08282615325565b9550855f0361260b576040517f924614c700000000000000000000000000000000000000000000000000000000815260040160405180910390fd5b6040517f6352211e000000000000000000000000000000000000000000000000000000008152600481018890525f907f000000000000000000000000000000000000000000000000000000000000000073ffffffffffffffffffffffffffffffffffffffff1690636352211e90602401602060405180830381865afa158015612696573d5f5f3e3d5ffd5b505050506040513d601f19601f820116820180604052508101906126ba9190614f91565b90505f8560200151806126cb575083155b6126ee576126e98487606001515f015188608001516040015161426a565b6126f0565b5f5b90505f6126fd82866150b3565b90505f61270a8583615325565b90505f85156127cf576040517e8c1075000000000000000000000000000000000000000000000000000000008152336004820152602481018d90526044810187905273ffffffffffffffffffffffffffffffffffffffff7f00000000000000000000000000000000000000000000000000000000000000001690628c1075906064016020604051808303815f875af11580156127a8573d5f5f3e3d5ffd5b505050506040513d601f19601f820116820180604052508101906127cc9190615338565b90505b60608901515161ffff1615612897576040518060800160405280888a5f01516127f891906150b3565b8152602001896020015181526020018a608001516040015161ffff168152602001888b608001516060015161282d9190615325565b90525f8d815260066020818152604092839020845160058201559084015191810191909155908201516007820180547fffffffffffffffffffffffffffffffffffffffffffffffffffffffffffff00001661ffff9092169190911790556060909101516008909101555b8a156129fb5760e08a015173ffffffffffffffffffffffffffffffffffffffff16612920578a34146128f5576040517f26ea953d00000000000000000000000000000000000000000000000000000000815260040160405180910390fd5b811561291b5761291b73ffffffffffffffffffffffffffffffffffffffff861683614134565b6129b7565b83156129645760e08a015173ffffffffffffffffffffffffffffffffffffffff165f908152600460205260408120805486929061295e908490615325565b90915550505b60e08a015161298b9073ffffffffffffffffffffffffffffffffffffffff1633308e61428f565b81156129b75760e08a01516129b79073ffffffffffffffffffffffffffffffffffffffff1686846141a6565b60408051888152602081018890529081018590528c907fcb45df05119b18cc11d631cba00e4efd64b2cd9b92ab174d4a7b7678d416f9b29060600160405180910390a25b8015612ae3576040517fd6700bef000000000000000000000000000000000000000000000000000000008152600481018d90525f9073ffffffffffffffffffffffffffffffffffffffff7f0000000000000000000000000000000000000000000000000000000000000000169063d6700bef906024016040805180830381865afa158015612a8b573d5f5f3e3d5ffd5b505050506040513d601f19601f82011682018060405250810190612aaf9190615353565b805190915073ffffffffffffffffffffffffffffffffffffffff1615612ae157612ae1815f015182602001518f61434a565b505b505050505050505050505050565b612af9614010565b73ffffffffffffffffffffffffffffffffffffffff81165f9081526005602052604090205460ff16612bcd5773ffffffffffffffffffffffffffffffffffffffff81165f81815260056020526040812080547fffffffffffffffffffffffffffffffffffffffffffffffffffffffffffffff001660019081179091556003805491820181559091527fc2575a0e9e593c00f959f8c92f12db2869c3395a3b0502d05e2516446f71f85b0180547fffffffffffffffffffffffff00000000000000000000000000000000000000001690911790555b60405173ffffffffffffffffffffffffffffffffffffffff8216907f8ac7e85f445e8ee1c850abbfcd9da63ccb7b527c076290946108a7c280247096905f90a250565b612c18614010565b61271061ffff82161115612c58576040517fba97f83800000000000000000000000000000000000000000000000000000000815260040160405180910390fd5b5f805461ffff838116740100000000000000000000000000000000000000008181027fffffffffffffffffffff0000ffffffffffffffffffffffffffffffffffffffff85161790945560408051949093049091168084526020840191909152917f26bc4a9b6ef30ec448ec7094c0f1002b0c6b8363d6a56be88ce399f1ac3d92f9910160405180910390a15050565b6040517fe985e9c500000000000000000000000000000000000000000000000000000000815273ffffffffffffffffffffffffffffffffffffffff838116600483015282811660248301525f917f00000000000000000000000000000000000000000000000000000000000000009091169063e985e9c590604401602060405180830381865afa158015612d7d573d5f5f3e3d5ffd5b505050506040513d601f19601f820116820180604052508101906120009190615338565b6040517f5aef2447000000000000000000000000000000000000000000000000000000008152600481018490525f907f000000000000000000000000000000000000000000000000000000000000000073ffffffffffffffffffffffffffffffffffffffff1690635aef24479060240161016060405180830381865afa158015612e2d573d5f5f3e3d5ffd5b505050506040513d601f19601f82011682018060405250810190612e519190614fc5565b9050612e61816101000151613835565b6040517fe9c1d0c00000000000000000000000000000000000000000000000000000000081523360048201526024810185905273ffffffffffffffffffffffffffffffffffffffff84811660448301527fffffffff00000000000000000000000000000000000000000000000000000000841660648301527f0000000000000000000000000000000000000000000000000000000000000000169063e9c1d0c090608401610dde565b6040517f5aef2447000000000000000000000000000000000000000000000000000000008152600481018390525f907f000000000000000000000000000000000000000000000000000000000000000073ffffffffffffffffffffffffffffffffffffffff1690635aef24479060240161016060405180830381865afa158015612f96573d5f5f3e3d5ffd5b505050506040513d601f19601f82011682018060405250810190612fba9190614fc5565b9050612fca816101000151613835565b5f838152600660208181526040808420815160a081018352815460ff80821615158352610100909104811615158286015283516060808201865260018501548252600285015482880152600385015490921615158186015282850190815284518086018652600485015461ffff8082168352620100009091048116828901528385019190915285516080818101885260058701548252988601549781019790975260078501541694860194909452600890920154918401919091529283019190915251519091036130c7576040517f23e70d2000000000000000000000000000000000000000000000000000000000815260040160405180910390fd5b8160a0015173ffffffffffffffffffffffffffffffffffffffff163373ffffffffffffffffffffffffffffffffffffffff1614613130576040517fb7cb8b5b00000000000000000000000000000000000000000000000000000000815260040160405180910390fd5b602082015182515f91613142916150b3565b90508084111561317e576040517ffe9ba5cd00000000000000000000000000000000000000000000000000000000815260040160405180910390fd5b5f73__$4bbbaa6d90f42a60403c514cce5191a63a$__63ff7f44438560200151865f01516131ac91906150b3565b8660400151866060015187608001516040518563ffffffff1660e01b81526004016131da94939291906150c6565b608060405180830381865af41580156131f5573d5f5f3e3d5ffd5b505050506040513d601f19601f82011682018060405250810190613219919061511b565b60608401515190915061ffff1615613292575f86815260066020818152604092839020845160058201559084015191810191909155908201516007820180547fffffffffffffffffffffffffffffffffffffffffffffffffffffffffffff00001661ffff90921691909117905560608201516008909101555b5f85156135725760e085015173ffffffffffffffffffffffffffffffffffffffff166132f6578534146132f1576040517f1841b4e100000000000000000000000000000000000000000000000000000000815260040160405180910390fd5b61332e565b341561332e576040517f1841b4e100000000000000000000000000000000000000000000000000000000815260040160405180910390fd5b6133388787612377565b6040517f5aef2447000000000000000000000000000000000000000000000000000000008152600481018890525f907f000000000000000000000000000000000000000000000000000000000000000073ffffffffffffffffffffffffffffffffffffffff1690635aef24479060240161016060405180830381865afa1580156133c4573d5f5f3e3d5ffd5b505050506040513d601f19601f820116820180604052508101906133e89190614fc5565b5f898152600660208181526040808420815160a081018352815460ff8082161515835261010090910481161515828601528351606080820186526001850154825260028501548288015260038501549092161515818601528285015283518085018552600484015461ffff808216835262010000909104811682880152828401919091528451608081810187526005860154825297850154968101969096526007840154169385019390935260089091015491830191909152918201819052929350916134b890849084906140d6565b9050805f0361356a576040517f6418bde900000000000000000000000000000000000000000000000000000000815273ffffffffffffffffffffffffffffffffffffffff7f00000000000000000000000000000000000000000000000000000000000000001690636418bde9906135389033908e9060029060040161520c565b5f604051808303815f87803b15801561354f575f5ffd5b505af1158015613561573d5f5f3e3d5ffd5b50505050600193505b50505061366a565b34156135aa576040517f1841b4e100000000000000000000000000000000000000000000000000000000815260040160405180910390fd5b5f6135b68686856140d6565b9050805f03613668576040517f6418bde900000000000000000000000000000000000000000000000000000000815273ffffffffffffffffffffffffffffffffffffffff7f00000000000000000000000000000000000000000000000000000000000000001690636418bde9906136369033908c9060029060040161520c565b5f604051808303815f87803b15801561364d575f5ffd5b505af115801561365f573d5f5f3e3d5ffd5b50505050600191505b505b604080518781528215156020820152339189917f66a6a86a5c930b3a42f66989d8a24892cdb4a959c55279cdf81733205bb3d64f910160405180910390a350505050505050565b6136b9614010565b73ffffffffffffffffffffffffffffffffffffffff811661370d576040517f1e4fbdf70000000000000000000000000000000000000000000000000000000081525f60048201526024015b60405180910390fd5b61371681614062565b50565b600180548190613728906151bb565b80601f0160208091040260200160405190810160405280929190818152602001828054613754906151bb565b801561379f5780601f106137765761010080835404028352916020019161379f565b820191905f5260205f20905b81548152906001019060200180831161378257829003601f168201915b5050505050908060010180546137b4906151bb565b80601f01602080910402602001604051908101604052809291908181526020018280546137e0906151bb565b801561382b5780601f106138025761010080835404028352916020019161382b565b820191905f5260205f20905b81548152906001019060200180831161380e57829003601f168201915b5050505050905082565b73ffffffffffffffffffffffffffffffffffffffff81163014613716576040517f66719b7a000000000000000000000000000000000000000000000000000000008152336004820152602401613704565b5f5f7f000000000000000000000000000000000000000000000000000000000000000073ffffffffffffffffffffffffffffffffffffffff166301a2cae86040518163ffffffff1660e01b8152600401602060405180830381865afa1580156138f1573d5f5f3e3d5ffd5b505050506040513d601f19601f820116820180604052508101906139159190614f91565b84516040517fbabcc53900000000000000000000000000000000000000000000000000000000815273ffffffffffffffffffffffffffffffffffffffff918216600482015291169063babcc53990602401602060405180830381865afa158015613981573d5f5f3e3d5ffd5b505050506040513d601f19601f820116820180604052508101906139a59190615338565b80613acb57507f000000000000000000000000000000000000000000000000000000000000000073ffffffffffffffffffffffffffffffffffffffff166301a2cae86040518163ffffffff1660e01b8152600401602060405180830381865afa158015613a14573d5f5f3e3d5ffd5b505050506040513d601f19601f82011682018060405250810190613a389190614f91565b60208501516040517fbabcc53900000000000000000000000000000000000000000000000000000000815273ffffffffffffffffffffffffffffffffffffffff918216600482015291169063babcc53990602401602060405180830381865afa158015613aa7573d5f5f3e3d5ffd5b505050506040513d601f19601f82011682018060405250810190613acb9190615338565b90505f81613b65577f000000000000000000000000000000000000000000000000000000000000000073ffffffffffffffffffffffffffffffffffffffff16638204c6276040518163ffffffff1660e01b8152600401602060405180830381865afa158015613b3c573d5f5f3e3d5ffd5b505050506040513d601f19601f82011682018060405250810190613b60919061523d565b613b67565b5f5b9050613b738582614461565b5f604051806101000160405280876020015173ffffffffffffffffffffffffffffffffffffffff168152602001875f015173ffffffffffffffffffffffffffffffffffffffff168152602001876040015181526020018760a0015181526020018760c0015173ffffffffffffffffffffffffffffffffffffffff1681526020018760e001516002811115613c0957613c09614856565b81526020018760600151815260200187610120015181525090505f5f866020015151118015613c39575085515115155b613cf9576040517f1461f12600000000000000000000000000000000000000000000000000000000815273ffffffffffffffffffffffffffffffffffffffff7f00000000000000000000000000000000000000000000000000000000000000001690631461f126908590613cb3903390879060040161544f565b60206040518083038185885af1158015613ccf573d5f5f3e3d5ffd5b50505050506040513d601f19601f82011682018060405250810190613cf4919061523d565b613db0565b6040517e4b382900000000000000000000000000000000000000000000000000000000815273ffffffffffffffffffffffffffffffffffffffff7f00000000000000000000000000000000000000000000000000000000000000001690624b3829908590613d6f90339087908c906004016154aa565b60206040518083038185885af1158015613d8b573d5f5f3e3d5ffd5b50505050506040513d601f19601f82011682018060405250810190613db0919061523d565b90505f6040518060a00160405280896020015173ffffffffffffffffffffffffffffffffffffffff163373ffffffffffffffffffffffffffffffffffffffff161415158152602001861515815260200160405180606001604052808b6080015181526020018b610140015181526020015f15158152508152602001896101000151815260200160405180608001604052805f81526020015f815260200188613e75575f5474010000000000000000000000000000000000000000900461ffff16613e77565b5f5b61ffff90811682525f602092830181905292909352858252600680825260409283902085518154878501511515610100027fffffffffffffffffffffffffffffffffffffffffffffffffffffffffffff00ff921515929092167fffffffffffffffffffffffffffffffffffffffffffffffffffffffffffff00009182161791909117825584870151805160018401558085015160028401558501516003830180549115157fffffffffffffffffffffffffffffffffffffffffffffffffffffffffffffff00929092169190911790556060808801518051600485018054928801518a1662010000027fffffffffffffffffffffffffffffffffffffffffffffffffffffffff00000000909316918a16919091179190911790556080880151805160058501559485015193830193909355838501516007830180549190971691161790945501516008909201919091555190915082907fb6dfbc3da80493595ba218d832d250d3eb44a42999a31cbef77bd27ccd9038b590613ffd90849088908c906154f4565b60405180910390a2509695505050505050565b5f5473ffffffffffffffffffffffffffffffffffffffff163314611a5f576040517f118cdaa7000000000000000000000000000000000000000000000000000000008152336004820152602401613704565b5f805473ffffffffffffffffffffffffffffffffffffffff8381167fffffffffffffffffffffffff0000000000000000000000000000000000000000831681178455604051919092169283917f8be0079c531659141344cd1fd0a4f28419497f9722a3daafe3b4186f6b6457e09190a35050565b6040820151515f90158015906140f25750826040015160400151155b15611f6c5783602001518360400151602001511115611f6c575f846020015184604001516020015161412491906150b3565b8351909150611f63908290615325565b5f5f5f5f5f85875af19050806109f5576040517f08c379a000000000000000000000000000000000000000000000000000000000815260206004820152601360248201527f4554485f5452414e534645525f4641494c4544000000000000000000000000006044820152606401613704565b5f6040517fa9059cbb00000000000000000000000000000000000000000000000000000000815283600482015282602482015260205f6044835f895af13d15601f3d1160015f511416171691505080610e0c576040517f08c379a000000000000000000000000000000000000000000000000000000000815260206004820152600f60248201527f5452414e534645525f4641494c454400000000000000000000000000000000006044820152606401613704565b5f828218828410028218612000565b5f6142878461ffff841661427e8587615596565b61ffff16614647565b949350505050565b5f6040517f23b872dd00000000000000000000000000000000000000000000000000000000815284600482015283602482015282604482015260205f6064835f8a5af13d15601f3d1160015f511416171691505080612370576040517f08c379a000000000000000000000000000000000000000000000000000000000815260206004820152601460248201527f5452414e534645525f46524f4d5f4641494c45440000000000000000000000006044820152606401613704565b5f828260405160240161435f91815260200190565b604051602081830303815290604052907bffffffffffffffffffffffffffffffffffffffffffffffffffffffff19166020820180517bffffffffffffffffffffffffffffffffffffffffffffffffffffffff838183161783525050505090505f5f8573ffffffffffffffffffffffffffffffffffffffff16836040516143e591906155b0565b5f604051808303815f865af19150503d805f811461441e576040519150601f19603f3d011682016040523d82523d5f602084013e614423565b606091505b509150915081610b5857806040517f30b9b6dd00000000000000000000000000000000000000000000000000000000815260040161370491906155c6565b815173ffffffffffffffffffffffffffffffffffffffff1633148015906144b85750816020015173ffffffffffffffffffffffffffffffffffffffff163373ffffffffffffffffffffffffffffffffffffffff1614155b156144ef576040517f5d6db4c200000000000000000000000000000000000000000000000000000000815260040160405180910390fd5b608082015115801590614517575042826080015110806145175750608082015164ffffffffff105b1561454e576040517f415291e400000000000000000000000000000000000000000000000000000000815260040160405180910390fd5b81604001518261014001511115614591576040517ffe9ba5cd00000000000000000000000000000000000000000000000000000000815260040160405180910390fd5b8034146145ca576040517fcd3cb2bb00000000000000000000000000000000000000000000000000000000815260040160405180910390fd5b6101008201516040517f9d6c6ae700000000000000000000000000000000000000000000000000000000815273__$4bbbaa6d90f42a60403c514cce5191a63a$__91639d6c6ae79161461f91906004016155d8565b5f6040518083038186803b158015614635575f5ffd5b505af4158015610b58573d5f5f3e3d5ffd5b5f5f5f61465486866146f7565b91509150815f036146785783818161466e5761466e6155f7565b0492505050612000565b81841161468f5761468f6003851502601118614732565b5f848688095f868103871696879004966002600389028118808a02820302808a02820302808a02820302808a02820302808a02820302808a02909103029181900381900460010185841190960395909502919093039390930492909217029150509392505050565b5f807fffffffffffffffffffffffffffffffffffffffffffffffffffffffffffffffff83850993909202808410938190039390930393915050565b634e487b715f52806020526024601cfd5b7fffffffff0000000000000000000000000000000000000000000000000000000081168114613716575f5ffd5b5f60208284031215614780575f5ffd5b813561200081614743565b5f6020828403121561479b575f5ffd5b5035919050565b73ffffffffffffffffffffffffffffffffffffffff81168114613716575f5ffd5b80356147ce816147a2565b919050565b5f5f604083850312156147e4575f5ffd5b82356147ef816147a2565b946020939093013593505050565b5f5f5f6060848603121561480f575f5ffd5b833561481a816147a2565b9250602084013561482a816147a2565b929592945050506040919091013590565b5f6020828403121561484b575f5ffd5b8135612000816147a2565b7f4e487b71000000000000000000000000000000000000000000000000000000005f52602160045260245ffd5b6006811061489357614893614856565b9052565b6003811061489357614893614856565b5f6102208201905082518252602083015160208301526040830151604083015260608301516148ee606084018273ffffffffffffffffffffffffffffffffffffffff169052565b506080830151614916608084018273ffffffffffffffffffffffffffffffffffffffff169052565b5060a083015161493e60a084018273ffffffffffffffffffffffffffffffffffffffff169052565b5060c083015161495160c0840182614883565b5060e083015161496460e0840182614897565b5061010083015161498f61010084018280518252602080820151908301526040908101511515910152565b50610120830151805161ffff9081166101608501526020820151166101808401525061014083015180516101a084015260208101516101c0840152604081015161ffff166101e084015260608101516102008401525092915050565b7f4e487b71000000000000000000000000000000000000000000000000000000005f52604160045260245ffd5b6040805190810167ffffffffffffffff81118282101715614a3b57614a3b6149eb565b60405290565b604051610160810167ffffffffffffffff81118282101715614a3b57614a3b6149eb565b5f5f67ffffffffffffffff841115614a7f57614a7f6149eb565b506040517fffffffffffffffffffffffffffffffffffffffffffffffffffffffffffffffe0601f85018116603f0116810181811067ffffffffffffffff82111715614acc57614acc6149eb565b604052838152905080828401851015614ae3575f5ffd5b838360208301375f60208583010152509392505050565b5f82601f830112614b09575f5ffd5b61200083833560208501614a65565b5f5f60408385031215614b29575f5ffd5b82359150602083013567ffffffffffffffff811115614b46575f5ffd5b614b5285828601614afa565b9150509250929050565b60038110613716575f5ffd5b80356147ce81614b5c565b61ffff81168114613716575f5ffd5b5f60408284031215614b92575f5ffd5b614b9a614a18565b90508135614ba781614b73565b81526020820135614bb781614b73565b602082015292915050565b5f6101808284031215614bd3575f5ffd5b614bdb614a41565b9050614be6826147c3565b8152614bf4602083016147c3565b602082015260408281013590820152606080830135908201526080808301359082015260a082013567ffffffffffffffff811115614c30575f5ffd5b614c3c84828501614afa565b60a083015250614c4e60c083016147c3565b60c0820152614c5f60e08301614b68565b60e0820152614c72836101008401614b82565b610100820152610140828101356101208301526101609092013591810191909152919050565b5f60208284031215614ca8575f5ffd5b813567ffffffffffffffff811115614cbe575f5ffd5b61428784828501614bc2565b5f5f60408385031215614cdb575f5ffd5b823591506020830135614ced81614b5c565b809150509250929050565b8015158114613716575f5ffd5b5f5f60408385031215614d16575f5ffd5b8235614d21816147a2565b91506020830135614ced81614cf8565b5f5f60408385031215614d42575f5ffd5b823567ffffffffffffffff811115614d58575f5ffd5b614d6485828601614bc2565b925050602083013567ffffffffffffffff811115614d80575f5ffd5b830160408186031215614d91575f5ffd5b614d99614a18565b813567ffffffffffffffff811115614daf575f5ffd5b614dbb87828501614afa565b825250602082013567ffffffffffffffff811115614dd7575f5ffd5b614de387828501614afa565b60208301525080925050509250929050565b5f5f5f5f60808587031215614e08575f5ffd5b8435614e13816147a2565b93506020850135614e23816147a2565b925060408501359150606085013567ffffffffffffffff811115614e45575f5ffd5b8501601f81018713614e55575f5ffd5b614e6487823560208401614a65565b91505092959194509250565b5f5f60408385031215614e81575f5ffd5b50508035926020909101359150565b5f60208284031215614ea0575f5ffd5b813561200081614b73565b5f5f60408385031215614ebc575f5ffd5b8235614ec7816147a2565b91506020830135614ced816147a2565b5f5f5f60608486031215614ee9575f5ffd5b833592506020840135614efb816147a2565b91506040840135614f0b81614743565b809150509250925092565b5f81518084528060208401602086015e5f6020828601015260207fffffffffffffffffffffffffffffffffffffffffffffffffffffffffffffffe0601f83011685010191505092915050565b604081525f614f746040830185614f16565b8281036020840152611f638185614f16565b80516147ce816147a2565b5f60208284031215614fa1575f5ffd5b8151612000816147a2565b8051600681106147ce575f5ffd5b80516147ce81614b5c565b5f610160828403128015614fd7575f5ffd5b50614fe0614a41565b8251815260208084015190820152604080840151908201526060808401519082015261500e60808401614f86565b608082015261501f60a08401614f86565b60a082015261503060c08401614f86565b60c082015261504160e08401614f86565b60e08201526150536101008401614f86565b6101008201526150666101208401614fac565b6101208201526150796101408401614fba565b6101408201529392505050565b7f4e487b71000000000000000000000000000000000000000000000000000000005f52601160045260245ffd5b818103818111156107d4576107d4615086565b8481526020808201859052835161ffff908116604084015290840151166060820152610100810182516080830152602083015160a0830152604083015161ffff1660c0830152606083015160e0830152611f63565b5f608082840312801561512c575f5ffd5b506040516080810167ffffffffffffffff81118282101715615150576151506149eb565b6040908152835182526020808501519083015283015161516f81614b73565b60408201526060928301519281019290925250919050565b73ffffffffffffffffffffffffffffffffffffffff84168152826020820152606060408201525f611f636060830184614f16565b600181811c908216806151cf57607f821691505b602082108103615206577f4e487b71000000000000000000000000000000000000000000000000000000005f52602260045260245ffd5b50919050565b73ffffffffffffffffffffffffffffffffffffffff8416815260208101839052606081016142876040830184614897565b5f6020828403121561524d575f5ffd5b5051919050565b7f4e487b71000000000000000000000000000000000000000000000000000000005f52603260045260245ffd5b7f4e487b71000000000000000000000000000000000000000000000000000000005f52603160045260245ffd5b73ffffffffffffffffffffffffffffffffffffffff8616815273ffffffffffffffffffffffffffffffffffffffff8516602082015273ffffffffffffffffffffffffffffffffffffffff8416604082015282606082015260a060808201525f61531a60a0830184614f16565b979650505050505050565b808201808211156107d4576107d4615086565b5f60208284031215615348575f5ffd5b815161200081614cf8565b5f6040828403128015615364575f5ffd5b5061536d614a18565b8251615378816147a2565b8152602083015161538881614743565b60208201529392505050565b73ffffffffffffffffffffffffffffffffffffffff815116825273ffffffffffffffffffffffffffffffffffffffff6020820151166020830152604081015160408301525f606082015161010060608501526153f4610100850182614f16565b9050608083015161541d608086018273ffffffffffffffffffffffffffffffffffffffff169052565b5060a083015161543060a0860182614897565b5060c083015160c085015260e083015160e08501528091505092915050565b73ffffffffffffffffffffffffffffffffffffffff83168152604060208201525f6142876040830184615394565b5f8151604084526154916040850182614f16565b905060208301518482036020860152611f638282614f16565b73ffffffffffffffffffffffffffffffffffffffff84168152606060208201525f6154d86060830185615394565b82810360408401526154ea818561547d565b9695505050505050565b835115158152602080850151151581830152604080860151805182850152918201516060840152810151151560808301525f90506060850151805161ffff90811660a085015260208201511660c0840152506080850151805160e08401526020810151610100840152604081015161ffff16610120840152606081015161014084015250836101608301526101a0610180830152611f636101a083018461547d565b61ffff81811683821601908111156107d4576107d4615086565b5f82518060208501845e5f920191825250919050565b602081525f6120006020830184614f16565b604081016107d48284805161ffff908116835260209182015116910152565b7f4e487b71000000000000000000000000000000000000000000000000000000005f52601260045260245ffdfea26469706673582212200d79aef85c74a54005dd98ad40d8afc5135d35f412411f41c95b2f78418135c764736f6c634300081e0033","linkReferences":{"src/libraries/CompoundInterestLib.sol":{"CompoundInterestLib":[{"start":5287,"length":20},{"start":8802,"length":20},{"start":10520,"length":20},{"start":13724,"length":20},{"start":18963,"length":20}]}}},"methodIdentifiers":{"EMPTY_METADATA()":"fac6f215","_bullaClaim()":"2b538af5","acceptPurchaseOrder(uint256,uint256)":"f02f03fc","addToFeeTokenWhitelist(address)":"d4251f9e","admin()":"f851a440","approve(address,uint256)":"095ea7b3","balanceOf(address)":"70a08231","cancelInvoice(uint256,string)":"3f97833b","createInvoice((address,address,uint256,uint256,uint256,string,address,uint8,(uint16,uint16),uint256,uint256))":"4ef5494e","createInvoiceWithMetadata((address,address,uint256,uint256,uint256,string,address,uint8,(uint16,uint16),uint256,uint256),(string,string))":"a4a1d84e","deliverPurchaseOrder(uint256)":"67d1f062","getApproved(uint256)":"081812fc","getInvoice(uint256)":"3a23cc0a","getTotalAmountNeededForPurchaseOrderDeposit(uint256)":"89339744","impairInvoice(uint256)":"1be4c4d4","isApprovedForAll(address,address)":"e985e9c5","markInvoiceAsPaid(uint256)":"0f2c513d","owner()":"8da5cb5b","ownerOf(uint256)":"6352211e","payInvoice(uint256,uint256)":"cc368b1d","protocolFeeBPS()":"96daa322","protocolFeeTokenWhitelist(address)":"a5cc6a7f","protocolFeesByToken(address)":"39737e07","removeFromFeeTokenWhitelist(address)":"82459995","renounceOwnership()":"715018a6","safeTransferFrom(address,address,uint256)":"42842e0e","safeTransferFrom(address,address,uint256,bytes)":"b88d4fde","setApprovalForAll(address,bool)":"a22cb465","setPaidInvoiceCallback(uint256,address,bytes4)":"ebd2214c","setProtocolFee(uint16)":"e4467f35","supportsInterface(bytes4)":"01ffc9a7","transferFrom(address,address,uint256)":"23b872dd","transferOwnership(address)":"f2fde38b","updateBinding(uint256,uint8)":"5edc84eb","whitelistedProtocolFeeTokens(uint256)":"4be18e94","withdrawAllFees()":"af236af4"},"id":93}